:100000000C942A000C942A160C945D160C949016ED
:100010000C9447000C9447000C942B0E0C94470052
:100020000C9447000C9447000C945E0E0C94E80D61
:100030000C9447000C9447000C9447000C94470024
:100040000C942A1D0C9447000C9447000C94470014
:100050000C94470011241FBECFE5D8E0DEBFCDBF12
:1000600012E0A0E6B0E0EAE2F0E502C005900D92F1
:10007000AC33B107D9F712E0ACE3B2E001C01D9296
:10008000A237B107E1F70E9465240C9413280C9461
:100090000000EF92FF920F931F937B018C0120E0F1
:1000A00030E040E05FE40E94F50388238CF0C80153
:1000B000B70120E030E040E05FE40E94C1010E940F
:1000C000B3049B01AC01205030404040504806C072
:1000D000C801B7010E94B3049B01AC01B901CA0178
:1000E0001F910F91FF90EF900895A0E0B0E0EBE733
:1000F000F0E00C94DC27DC012B01FA019C9192309A
:1001000008F439C1EB018881823008F433C194309E
:1001100069F4843009F02FC111969C91119789815F
:10012000981709F428C1ACE2B1E025C1843009F484
:1001300021C18230A9F4923009F01DC19A01AD01AC
:1001400088E0EA010990AE01E90109929E0181501F
:10015000C1F7E201898111969C918923818308C1AD
:10016000923009F407C112962D903C901397EB0141
:100170008A819B811496AD90BD90CD90DC901797AD
:10018000EC80FD800E811F819101281B390BB90184
:1001900037FF04C066277727621B730B6032710537
:1001A0000CF061C0121613066CF537014801062EDB
:1001B00004C096948794779467940A94D2F721E0C8
:1001C00030E040E050E004C0220F331F441F551FB1
:1001D0006A95D2F721503040404050402E213F21B7
:1001E00040235123211531054105510521F021E01E
:1001F00030E040E050E079018A01E628F72808293C
:1002000019293CC0232BD1F1260E371E350146019A
:10021000062E04C096948794779467940A94D2F734
:1002200021E030E040E050E004C0220F331F441FC3
:10023000551F6A95D2F721503040404050402A2146
:100240003B214C215D21211531054105510521F04E
:1002500021E030E040E050E059016A01A628B728CB
:10026000C828D9280BC0821593052CF01C01AA249C
:10027000BB24650103C0EE24FF24870111969C91E5
:10028000D20111968C91981709F445C0992339F041
:10029000A80197012A193B094C095D0906C0A6016E
:1002A00095012E193F09400B510B57FD08C01182D3
:1002B0003382228224833583468357831DC081E0A5
:1002C00081833382228288279927DC01821B930B4A
:1002D000A40BB50B84839583A683B7830DC0220F2F
:1002E000331F441F551F24833583468357838281E0
:1002F000938101979383828324813581468157813D
:10030000DA01C9010197A109B1098F5F9F4FAF4F72
:10031000BF4328F30BC0918333822282EA0CFB1C7B
:100320000C1D1D1DE482F5820683178383E0808304
:10033000248135814681578157FF1AC0C901AA27F8
:1003400097FDA095BA2F81709070A070B0705695EF
:10035000479537952795822B932BA42BB52B848318
:100360009583A683B7838281938101969383828349
:10037000DF0101C0D201CD01CDB7DEB7E2E10C94BF
:10038000F827A0E2B0E0E7ECF1E00C94E8276983FD
:100390007A838B839C832D833E834F835887E9E048
:1003A000EE2EF12CEC0EFD1ECE010196B7010E943F
:1003B000A4068E010F5E1F4FCE010596B8010E9464
:1003C000A4068A8991E089278A8BC701B801AE010A
:1003D000475E5F4F0E9475000E94CF05A096E6E041
:1003E0000C940428A0E2B0E0E8EFF1E00C94E827D8
:1003F00069837A838B839C832D833E834F835887C5
:10040000F9E0EF2EF12CEC0EFD1ECE010196B701A6
:100410000E94A4068E010F5E1F4FCE010596B80103
:100420000E94A406C701B801AE01475E5F4F0E945B
:1004300075000E94CF05A096E6E00C940428A0E287
:10044000B0E0E5E2F2E00C94DC2769837A838B83E9
:100450009C832D833E834F835887CE010196BE0136
:10046000675F7F4F0E94A406CE010596BE016F5EB6
:100470007F4F0E94A4069985923088F08989823046
:10048000C8F0943019F4823051F404C0843029F457
:10049000923081F48CE291E0C6C0923049F420E0C1
:1004A0009A858A89981321E02A87CE010996BBC0D4
:1004B000823049F420E09A858A89981321E02A8BBA
:1004C000CE014196B0C02D843E844F8458886D88FB
:1004D0007E888F88988CEE24FF248701AA24BB2471
:1004E000650140E050E060E070E0E0E0F0E0C10174
:1004F00081709070892BE9F0E60CF71C081D191D1E
:100500009A01AB012A0D3B1D4C1D5D1D80E090E062
:10051000A0E0B0E0E614F7040805190520F481E036
:1005200090E0A0E0B0E0BA01A901480F591F6A1F8E
:100530007B1FAA0CBB1CCC1CDD1C97FE08C081E0F5
:1005400090E0A0E0B0E0A82AB92ACA2ADB2A3196B6
:10055000E032F10549F0660C771C881C991C569412
:10056000479437942794C3CFFA85EA892B893C892D
:100570008B859C85280F391F2E5F3F4F17C0CA01FE
:1005800081709070892B61F016950795F794E79428
:1005900080E090E0A0E0B0E8E82AF92A0A2B1B2BC3
:1005A00076956795579547952F5F3F4F77FDE7CF36
:1005B0000CC0440F551F661F771F17FD4160EE0CDE
:1005C000FF1C001F111F21503040403090E05907A0
:1005D00090E0690790E4790760F32B8F3C8FDB0193
:1005E000CA018F779070A070B07080349105A1051A
:1005F000B10561F447FD0AC0E114F10401051105DC
:1006000029F0405C5F4F6F4F7F4F40781A8EFE1786
:1006100011F081E08A8F4D8F5E8F6F8F78A383E01A
:10062000898FCE0149960E94CF05A096E2E10C94F5
:10063000F827A8E1B0E0EFE1F3E00C94E427698348
:100640007A838B839C832D833E834F835887B9E0C5
:10065000EB2EF12CEC0EFD1ECE010196B7010E948F
:10066000A4068E010F5E1F4FCE010596B8010E94B1
:10067000A4062985223008F47EC03989323010F46E
:10068000B8017CC08A859A8989278A87243011F02D
:10069000223031F4231709F06EC06CE271E06EC0B5
:1006A000343039F41D861E861F86188A1C861B86E8
:1006B00004C0323021F484E08987B7015FC02B8504
:1006C0003C858B899C89281B390B3C872B87ED84C3
:1006D000FE840F851889AD88BE88CF88D88CEA142F
:1006E000FB040C051D0540F4EE0CFF1C001F111F40
:1006F000215030403C872B8720E030E040E050E044
:1007000080E090E0A0E0B0E460E070E0EA14FB0478
:100710000C051D0540F0282B392B4A2B5B2BEA18C2
:10072000FB080C091D09B695A79597958795EE0CC2
:10073000FF1C001F111F6F5F7F4F6F31710531F775
:10074000DA01C9018F779070A070B0708034910584
:10075000A105B10561F427FD0AC0E114F10401050A
:10076000110529F0205C3F4F4F4F5F4F20782D87B8
:100770003E874F87588BBE01675F7F4FCB010E943A
:10078000CF056896EAE00C940028A8E1B0E0EBEC15
:10079000F3E00C94E82769837A838B839C832D8311
:1007A0003E834F83588789E0E82EF12CEC0EFD1E26
:1007B000CE010196B7010E94A4068E010F5E1F4F65
:1007C000CE010596B8010E94A4068985823040F0CA
:1007D0008989823028F0C701B8010E941C0701C036
:1007E0008FEF6896E6E00C940428A8E1B0E0EBEF08
:1007F000F3E00C94E82769837A838B839C832D83B1
:100800003E834F83588789E0E82EF12CEC0EFD1EC5
:10081000CE010196B7010E94A4068E010F5E1F4F04
:10082000CE010596B8010E94A4068985823040F069
:100830008989823028F0C701B8010E941C0701C0D5
:100840008FEF6896E6E00C940428A8E1B0E0EBE2B4
:10085000F4E00C94E82769837A838B839C832D834F
:100860003E834F83588789E0E82EF12CEC0EFD1E65
:10087000CE010196B7010E94A4068E010F5E1F4FA4
:10088000CE010596B8010E94A4068985823040F009
:100890008989823028F0C701B8010E941C0701C075
:1008A00081E06896E6E00C940428A8E0B0E0EBE56F
:1008B000F4E00C94E5279B01AC0183E08983DA0125
:1008C000C9018827B7FD83959927AA27BB27B82E8A
:1008D000211531054105510519F482E089833AC09B
:1008E0008823A9F0203080E0380780E0480780E8BE
:1008F000580729F460E070E080E09FEC30C0EE24FF
:10090000FF248701E21AF30A040B150B02C07901D8
:100910008A018EE1C82ED12CDC82CB82ED82FE8250
:100920000F831887C801B7010E9480050197181628
:10093000190684F4082E04C0EE0CFF1C001F111FC2
:100940000A94D2F7ED82FE820F831887C81AD90A5B
:10095000DC82CB82BA82CE0101960E94CF05289616
:10096000E9E00C940128ACE0B0E0E9EBF4E00C9491
:10097000EC2769837A838B839C83CE010196BE0129
:100980006B5F7F4F0E94A4068D81823061F18230BF
:1009900050F1843021F48E81882351F12EC02F81B3
:1009A000388537FD20C06E812F3131051CF066235C
:1009B000F9F023C08EE190E0821B930B29853A85E4
:1009C0004B855C8504C056954795379527958A9544
:1009D000D2F76623B1F050954095309521953F4F61
:1009E0004F4F5F4F0EC020E030E040E050E009C0C4
:1009F0002FEF3FEF4FEF5FE704C020E030E040E033
:100A000050E8B901CA012C96E2E00C940828A8E04D
:100A1000B0E0EDE0F5E00C94E4277B018C0161157A
:100A200071058105910519F482E0898360C083E036
:100A300089838EE1C82ED12CDC82CB82ED82FE82AE
:100A40000F831887C801B7010E948005FC01319708
:100A5000F7FF3BC0222733272E1B3F0B57016801AE
:100A6000022E04C0D694C794B794A7940A94D2F7E0
:100A700040E050E060E070E081E090E0A0E0B0E0B5
:100A800004C0880F991FAA1FBB1F2A95D2F7019790
:100A9000A109B1098E219F21A023B1230097A105AF
:100AA000B10521F041E050E060E070E04A295B29A7
:100AB0006C297D294D835E836F8378878EE190E07A
:100AC0008E1B9F0B9C838B8312C0309781F00E2E60
:100AD00004C0EE0CFF1C001F111F0A94D2F7ED8218
:100AE000FE820F831887CE1ADF0ADC82CB821A823D
:100AF000CE0101960E94CF052896EAE00C940028CA
:100B0000EF92FF920F931F937B018C0180E0E81618
:100B100080E0F80681E0080780E0180788F48FEF8E
:100B2000E816F1040105110531F028F088E090E0A5
:100B3000A0E0B0E017C080E090E0A0E0B0E012C01C
:100B400080E0E81680E0F80680E0080781E01807FA
:100B500028F088E190E0A0E0B0E004C080E190E0FF
:100B6000A0E0B0E020E230E040E050E0281B390B8C
:100B70004A0B5B0B04C016950795F794E7948A958A
:100B8000D2F7F701EC5CFE4F8081281B3109410947
:100B90005109C9011F910F91FF90EF900895DF92C5
:100BA000EF92FF920F931F93FC01E480F580068182
:100BB0001781D1808081823048F480E090E0A0E10C
:100BC000B0E0E82AF92A0A2B1B2BA5C0843009F4CF
:100BD0009FC0823021F4EE24FF24870105C0E11478
:100BE000F1040105110519F4E0E0F0E096C062811E
:100BF00073819FEF623879070CF05BC022E83FEF0A
:100C0000261B370B2A3131052CF020E030E040E084
:100C100050E02AC0B801A701022E04C0769567955E
:100C2000579547950A94D2F781E090E0A0E0B0E0B4
:100C300004C0880F991FAA1FBB1F2A95D2F70197DE
:100C4000A109B1098E219F21A023B1230097A105FD
:100C5000B10521F081E090E0A0E0B0E09A01AB01A5
:100C6000282B392B4A2B5B2BDA01C9018F77907027
:100C7000A070B07080349105A105B10539F427FF4B
:100C800009C0205C3F4F4F4F5F4F04C0215C3F4F76
:100C90004F4F5F4FE0E0F0E02030A0E03A07A0E0E7
:100CA0004A07A0E45A0710F0E1E0F0E079018A0178
:100CB00027C06038710564F5FB01E158FF4FD8018A
:100CC000C7018F779070A070B07080349105A10536
:100CD000B10539F4E7FE0DC080E490E0A0E0B0E09B
:100CE00004C08FE390E0A0E0B0E0E80EF91E0A1F18
:100CF0001B1F17FF05C016950795F794E7943196CB
:100D000087E016950795F794E7948A95D1F705C083
:100D1000EE24FF248701EFEFF0E06E2F6795662742
:100D20006795902F9F77D794DD24D7948E2F869543
:100D3000492F462B582F5D29B701CA011F910F91EA
:100D4000FF90EF90DF900895FC01DB01408151811D
:100D50002281622F6F7770E0221F2227221F93814A
:100D6000892F880F822B282F30E0991F9927991FF0
:100D700011969C93119721153105A9F5411551053F
:100D80006105710511F482E037C082E89FEF139688
:100D90009C938E9312979A01AB0167E0220F331F49
:100DA000441F551F6A95D1F783E08C930DC0220F25
:100DB000331F441F551F12968D919C9113970197D5
:100DC00013969C938E931297203080E0380780E032
:100DD000480780E4580758F314962D933D934D939C
:100DE0005C93179708952F3F310579F4411551050C
:100DF0006105710519F484E08C93089564FF03C0C4
:100E000081E08C9312C01C9210C02F573040139673
:100E10003C932E93129783E08C9387E0440F551FE9
:100E2000661F771F8A95D1F7706414964D935D9372
:100E30006D937C93179708951F93DC01FB019C91A0
:100E4000923008F447C08081823008F443C0943067
:100E500051F411961C91843099F58181682F70E0CE
:100E6000611B71093FC0843021F0923031F482302F
:100E7000B9F18181882389F12DC011961C911197B8
:100E80008230F1F081811817D9F412962D913C919E
:100E90001397828193818217930794F0281739075B
:100EA000BCF014968D919D910D90BC91A02D248144
:100EB000358146815781281739074A075B0718F49F
:100EC000112341F00AC082179307A407B50740F425
:100ED000112319F061E070E005C06FEF7FEF02C0F1
:100EE00060E070E0CB011F910895DF93CF93CDB701
:100EF000DEB7A1E4B0E0E1E4F0E0808188608C93AB
:100F0000A1E4B0E0E1E4F0E0808181608C93A1E4B1
:100F1000B0E0E1E4F0E0808182608C93A1E4B0E095
:100F2000E1E4F0E0808184608C93CF91DF910895BB
:100F3000DF93CF93CDB7DEB7A1E4B0E0E1E4F0E01A
:100F4000808188608C93A1E4B0E0E1E4F0E08081EE
:100F500080618C93E1E4F0E01082CF91DF910895FD
:100F6000DF93CF9300D00F92CDB7DEB780E88B83AD
:100F700087E690E09A838983ABE2B0E0EBE2F0E0B1
:100F800080818D7F8C93ABE2B0E0EBE2F0E080817A
:100F90008E7F8C93AAE2B0E0EAE2F0E080818B7F62
:100FA0008C938B8182608B838B8184608B838B811C
:100FB0008F7B8B838B818F7E8B838B818F7D8B83CC
:100FC0008B81877F8B83E0E4F0E08B818083E9E293
:100FD000F0E089818083E0E4F0E089819A81892FC3
:100FE00099278083AAE2B0E0EAE2F0E0808188609D
:100FF0008C93AAE2B0E0EAE2F0E0808180618C9319
:101000000F900F900F90CF91DF910895DF93CF93C2
:101010000F92CDB7DEB78983EBE2F0E08081829555
:1010200086958770882F90E0817090700097A1F36B
:10103000ECE2F0E0898180830F90CF91DF910895F9
:10104000DF93CF9300D00F92CDB7DEB79B838A8317
:1010500019820EC08981282F30E08A819B81FC0192
:10106000E20FF31F80810E94060889818F5F8983C8
:101070008981282F30E08A819B81FC01E20FF31FD8
:101080008081882339F70F900F900F90CF91DF91D7
:1010900008950F931F93DF93CF93CDB7DEB7689773
:1010A0000FB6F894DEBF0FBECDBF6D8B7E8B8F8BDE
:1010B000988F1C821B828C81082F10E08D899E895D
:1010C000AF89B88D2AE030E040E050E0BC01CD01AE
:1010D0000E94A627DC01CB01282F205DCE010596BA
:1010E000FC01E00FF11F20838C818F5F8C838D8941
:1010F0009E89AF89B88D2AE030E040E050E0BC0125
:10110000CD010E94A627DA01C9018D8B9E8BAF8B82
:10111000B88F8D899E89AF89B88D0097A105B105DB
:1011200051F68B81882369F08C81282F30E0CE0125
:101130000596FC01E20FF31F8DE280838C818F5FA7
:101140008C831A823DC08A81282F30E0CE0105961B
:10115000FC01E20FF31F808189838A81482F50E0D0
:101160008C81282F30E08A81882F90E0B901681B9C
:10117000790BCB019C0121503040CE010596FC013A
:10118000E20FF31F2081CE010596FC01E40FF51F4D
:1011900020838C81282F30E08A81882F90E0A9015C
:1011A000481B590BCA019C0121503040CE010596C5
:1011B000FC01E20FF31F898180838A818F5F8A831C
:1011C0008C81982F96958A81891708F4BCCF8C81E1
:1011D000282F30E0CE010596FC01E20FF31F1082AC
:1011E000CE0105960E94200868960FB6F894DEBFDF
:1011F0000FBECDBFCF91DF911F910F910895DF9367
:10120000CF93CDB7DEB728970FB6F894DEBF0FBEE9
:10121000CDBF6D837E838F8398876D817E818F8123
:1012200098850E94B304DC01CB019C838B838B8166
:101230009C81AA2797FDA095BA2FBC01CD010E94E1
:1012400055049B01AC016D817E818F8198850E9440
:10125000C101DC01CB01BC01CD0120E030E04AE757
:1012600054E40E941F02DC01CB01BC01CD010E94AD
:10127000B304DC01CB019A8389838B819C81843602
:10128000910554F08B819C812AE030E0B9010E94E5
:101290009327CB019C838B838B819C81AA2797FD0D
:1012A000A095BA2FBC01CD010E9449088EE20E9490
:1012B000060889819A81AA2797FDA095BA2FBC01BB
:1012C000CD010E94490828960FB6F894DEBF0FBEE4
:1012D000CDBFCF91DF910895DF93CF9300D00F92D0
:1012E000CDB7DEB79B838A8381E089838A819B8126
:1012F000009761F0EBE2F0E080818823DCF7ECE21C
:10130000F0E08081EA81FB81808301C019828981BC
:101310000F900F900F90CF91DF910895DF93CF93AF
:1013200000D000D00F92CDB7DEB79C838B836D8346
:1013300081E08A8319828B819C81009719F114C006
:10134000EBE2F0E080818823DCF78981282F30E010
:101350008B819C81DC01A20FB31FECE2F0E0808165
:101360008C9389818F5F898399818D81981740F350
:101370008981282F30E08B819C81FC01E20FF31FD3
:10138000108201C01A828A810F900F900F900F90E7
:101390000F90CF91DF910895DF93CF93CDB7DEB754
:1013A0002A970FB6F894DEBF0FBECDBF9B838A830A
:1013B00019828A819B81009711F41982BCC08A81AD
:1013C0009B8123E532E03F832E839987888735E030
:1013D0003A87E885F9850080288539852F5F3F4F5A
:1013E00039872887EE81FF8100822E813F812F5F20
:1013F0003F4F3F832E833A8531503A878A85882331
:1014000041F7EA81FB818081843008F05FC081E090
:101410008983EA81FB818081E82FF0E0FD83EC8302
:101420002C813D812130310521F18C819D818230DB
:1014300091052CF4EC81FD81309761F049C02C813D
:101440003D812230310521F18C819D8183309105D0
:1014500071F13EC0A3E5B0E0E3E5F0E080818F7B71
:101460008C93A3E5B0E0E3E5F0E08081877F8C9387
:101470002FC0A3E5B0E0E3E5F0E0808180648C93C9
:10148000A3E5B0E0E3E5F0E08081877F8C9320C0A6
:10149000A3E5B0E0E3E5F0E080818F7B8C93A3E5EA
:1014A000B0E0E3E5F0E0808188608C9311C0A3E5B3
:1014B000B0E0E3E5F0E0808180648C93A3E5B0E0E8
:1014C000E3E5F0E0808188608C9302C081E089834D
:1014D000EA81FB818181883058F4A3E5B0E0E3E53F
:1014E000F0E09081EA81FB818181892B8C9302C09D
:1014F00081E08983A3E5B0E0E3E5F0E08081282F77
:10150000EA81FB818281882F90E082959295907F7D
:101510009827807F9827822B8C93A9E5B0E0E9E596
:10152000F0E02081EA81FB819381EA81FB81848163
:10153000892B822B8C9389812A960FB6F894DEBF73
:101540000FBECDBFCF91DF910895DF93CF93CDB77D
:10155000DEB7A3E5B0E0E3E5F0E080818E7F8C9319
:10156000A3E5B0E0E3E5F0E080818D7F8C93A3E517
:10157000B0E0E3E5F0E080818B7F8C9381E0CF9158
:10158000DF910895DF93CF9300D0CDB7DEB79A8374
:101590008983ECE5F0E08081E981FA81808381E054
:1015A0000F900F90CF91DF910895DF93CF930F921B
:1015B000CDB7DEB78983ECE5F0E08981808381E0F7
:1015C0000F90CF91DF910895DF93CF9300D0CDB7E7
:1015D000DEB79A838983E2E5F0E08081E981FA81D0
:1015E000808381E00F900F90CF91DF910895DF937A
:1015F000CF930F92CDB7DEB78983E2E5F0E0898122
:10160000808381E00F90CF91DF910895DF93CF9396
:1016100000D0CDB7DEB79A83898380914302909141
:101620004402A0914502B0914602E981FA8180838B
:1016300081E00F900F90CF91DF9108950F931F934A
:10164000DF93CF9300D000D00F92CDB7DEB76A837F
:101650007B838C839D8380915302833029F080911A
:101660005302813009F058C080915502823011F543
:101670000CE510E06A817B818C819D8120E030E067
:1016800048EC52E40E941903DC01CB01BC01CD01FE
:1016900020E030E040E853E40E941F02DC01CB016F
:1016A000BC01CD010E944900DC01CB018150F80151
:1016B00080832FC080915502833059F50CE510E0EE
:1016C0006A817B818C819D8120E030E040E853E499
:1016D0000E941F02DC01CB01BC01CD0120E030E003
:1016E00048EC52EC0E941903DC01CB01BC01CD0196
:1016F00020E030E040E853E40E94F201DC01CB013D
:10170000BC01CD010E944900DC01CB018150F801F0
:10171000808381E0898301C0198289810F900F90B5
:101720000F900F900F90CF91DF911F910F9108951F
:10173000DF93CF93CDB7DEB767970FB6F894DEBFD0
:101740000FBECDBF6D877E878F87988B9E01285FE8
:101750003F4F3C8B2B8B87E392E09E8B8D8B95E0EC
:101760009F8BED89FE8900802D893E892F5F3F4F39
:101770003E8B2D8BEB89FC8900822B893C892F5F66
:101780003F4F3C8B2B8B3F8931503F8B8F89882378
:1017900041F7CE0108960E94CC091F821E828985DE
:1017A000E82FF0E0FA8BE98B29893A89233031055B
:1017B00049F189899A89843091057CF4E989FA890B
:1017C000E130F10549F129893A8922303105FCF4EB
:1017D00089899A89009729F126C0E989FA89E53033
:1017E000F10531F029893A892530310534F01BC0E3
:1017F00080E094E09F838E8316C080E091E09F8319
:101800008E8311C080E490E09F838E830CC088E0BB
:1018100090E09F838E8307C081E090E09F838E835A
:1018200002C01F821E828E819F81CC01A0E0B0E0A9
:1018300028EE33E040E050E0BC01CD010E94742767
:101840009B01AC0180E094E2A4EFB0E0BC01CD01CB
:101850000E94A627DA01C9012D853E854F8558894A
:10186000BC01CD010E947427DC01CB018A839B83DC
:10187000AC83BD838A819B81AC81BD81892F9A2FE6
:10188000AB2FBB278093430290934402A093450261
:10189000B09346028A81898380E00E94F70A809192
:1018A000430290914402A0914502B09146020097F4
:1018B000A105B105A1F7E2E5F0E0908189819817D3
:1018C000D0F30E94A50AA9E5B0E0E9E5F0E0808147
:1018D0008E7F8C9367960FB6F894DEBF0FBECDBF98
:1018E000CF91DF910895DF93CF9300D0CDB7DEB7CE
:1018F0009A83898389819A8190933D0280933C02E7
:101900000F900F90CF91DF910895DF93CF9300D088
:10191000CDB7DEB79A83898389819A8190933F02FC
:1019200080933E020F900F90CF91DF910895DF9347
:10193000CF9300D0CDB7DEB79A83898389819A810E
:1019400090934102809340020F900F90CF91DF91CE
:101950000895DF93CF93CDB7DEB7A9E5B0E0E9E511
:10196000F0E0808180628C93CF91DF910895DF93C6
:10197000CF93CDB7DEB7A9E5B0E0E9E5F0E080812F
:101980008F7D8C93CF91DF910895DF93CF93CDB767
:10199000DEB72A970FB6F894DEBF0FBECDBF9B838C
:1019A0008A8319828A819B81009711F41982E9C088
:1019B0008A819B8128E532E03F832E83998788873F
:1019C00038E03A87E885F9850080288539852F5FDA
:1019D0003F4F39872887EE81FF8100822E813F812A
:1019E0002F5F3F4F3F832E833A8531503A878A8558
:1019F000882341F7EA81FB818081833008F070C041
:101A000081E08983EA81FB818081E82FF0E0FD831A
:101A1000EC832C813D812130310541F18C819D8108
:101A20008230910509F43FC0EC81FD81309709F0C7
:101A300058C0AFE4B0E0EFE4F0E080818E7F8C939B
:101A4000AFE4B0E0EFE4F0E080818D7F8C93AEE412
:101A5000B0E0EEE4F0E08081877F8C93AEE4B0E00C
:101A6000EEE4F0E080818F7E8C933BC0AFE4B0E089
:101A7000EFE4F0E080818E7F8C93AFE4B0E0EFE4A0
:101A8000F0E0808182608C93AEE4B0E0EEE4F0E0C0
:101A9000808188608C93AEE4B0E0EEE4F0E0808179
:101AA00080618C931EC0AFE4B0E0EFE4F0E0808191
:101AB00081608C93AFE4B0E0EFE4F0E0808182607D
:101AC0008C93AEE4B0E0EEE4F0E0808188608C932B
:101AD000AEE4B0E0EEE4F0E0808180618C9301C080
:101AE0001982EA81FB818181883058F4AEE4B0E04C
:101AF000EEE4F0E09081EA81FB818181892B8C9377
:101B000001C01982AFE4B0E0EFE4F0E08081282F5B
:101B1000EA81FB818281882F90E000249695879549
:101B20000794969587950794982F802D822B8C93F8
:101B3000AFE4B0E0EFE4F0E08081282FEA81FB81A0
:101B40008381882F90E082959295907F9827807F5F
:101B50009827822B8C93A9E5B0E0E9E5F0E020819D
:101B6000EA81FB819481EA81FB818581982BEA815E
:101B7000FB818681982BEA81FB818781892B822BCF
:101B80008C9389812A960FB6F894DEBF0FBECDBF25
:101B9000CF91DF910895DF93CF93CDB7DEB7AEE459
:101BA000B0E0EEE4F0E080818E7F8C93AEE4B0E0B4
:101BB000EEE4F0E080818D7F8C93AEE4B0E0EEE463
:101BC000F0E080818B7F8C9381E0CF91DF9108954D
:101BD0001F920F920FB60F9211248F939F93AF9382
:101BE000BF93EF93FF93DF93CF93CDB7DEB7809191
:101BF000430290914402A0914502B09146020097A1
:101C0000A105B105A1F08091430290914402A091F9
:101C10004502B09146020197A109B10980934302A0
:101C200090934402A0934502B093460207C0A9E5F1
:101C3000B0E0E9E5F0E080818E7F8C93CF91DF9179
:101C4000FF91EF91BF91AF919F918F910F900FBE38
:101C50000F901F9018951F920F920FB60F9211249C
:101C60002F933F934F935F936F937F938F939F93A4
:101C7000AF93BF93EF93FF93DF93CF93CDB7DEB7CF
:101C80008091400290914102009729F0E09140023A
:101C9000F09141020995CF91DF91FF91EF91BF91B2
:101CA000AF919F918F917F916F915F914F913F91F4
:101CB0002F910F900FBE0F901F9018951F920F92AB
:101CC0000FB60F9211242F933F934F935F936F930F
:101CD0007F938F939F93AF93BF93EF93FF93DF9384
:101CE000CF93CDB7DEB780913E0290913F0200972F
:101CF00029F0E0913E02F0913F020995CF91DF91EA
:101D0000FF91EF91BF91AF919F918F917F916F91D3
:101D10005F914F913F912F910F900FBE0F901F90A9
:101D20001895DF93CF9300D000D00F92CDB7DEB7D8
:101D30009C838B836D831A82198250C029813A81DA
:101D4000C901880F991F280F391F8B819C81FC01C5
:101D5000E20FF31F408129813A81C901880F991F41
:101D6000280F391F8B819C81FC01E20FF31F9181A9
:101D7000842F692F40E00E94E51629813A81C9012C
:101D8000880F991F280F391F8B819C81FC01E20F5E
:101D9000F31F508129813A81C901880F991F280FAB
:101DA000391F8B819C81FC01E20FF31F4181298146
:101DB0003A81C901880F991F280F391F8B819C8197
:101DC000FC01E20FF31F9281852F642F492F0E949F
:101DD0000F1889819A8101969A8389838D81282F92
:101DE00030E089819A81821793070CF4A7CF0F9076
:101DF0000F900F900F900F90CF91DF910895DF9388
:101E0000CF9300D000D0CDB7DEB79A8389837C838F
:101E10006B83E981FA818081E981FA8191812B814B
:101E20003C81692FA9010E9440190F900F900F90DB
:101E30000F90CF91DF910895DF93CF9300D000D022
:101E40000F92CDB7DEB789836A834B838A8188304E
:101E500008F0D5C08981843008F0D1C08981282F4D
:101E600030E03D832C838C819D818130910509F484
:101E700043C02C813D81223031052CF48C819D8121
:101E8000009771F0BCC02C813D812230310509F4EE
:101E90005FC08C819D818330910509F485C0AFC0FE
:101EA0008B818130A1F4AAE3B0E0EAE3F0E0808125
:101EB000482F8A81282F30E081E090E0022E02C076
:101EC000880F991F0A94E2F7842B8C9398C0AAE399
:101ED000B0E0EAE3F0E08081482F8A81282F30E0EB
:101EE00081E090E0022E02C0880F991F0A94E2F769
:101EF000809584238C9383C08B818130A1F4A7E3E8
:101F0000B0E0E7E3F0E08081482F8A81282F30E0BD
:101F100081E090E0022E02C0880F991F0A94E2F738
:101F2000842B8C936CC0A7E3B0E0E7E3F0E0808102
:101F3000482F8A81282F30E081E090E0022E02C0F5
:101F4000880F991F0A94E2F7809584238C9357C0D9
:101F50008B818130A1F4A4E3B0E0E4E3F0E0808180
:101F6000482F8A81282F30E081E090E0022E02C0C5
:101F7000880F991F0A94E2F7842B8C9340C0A4E346
:101F8000B0E0E4E3F0E08081482F8A81282F30E040
:101F900081E090E0022E02C0880F991F0A94E2F7B8
:101FA000809584238C932BC08B818130A1F4A1E395
:101FB000B0E0E1E3F0E08081482F8A81282F30E013
:101FC00081E090E0022E02C0880F991F0A94E2F788
:101FD000842B8C9314C0A1E3B0E0E1E3F0E08081B6
:101FE000482F8A81282F30E081E090E0022E02C045
:101FF000880F991F0A94E2F7809584238C930F90A1
:102000000F900F900F900F90CF91DF910895DF9375
:10201000CF9300D000D00F92CDB7DEB789836A830B
:102020004B838A81883008F0D5C08981843008F0DC
:10203000D1C08981282F30E03D832C838C819D8104
:102040008130910509F443C02C813D812230310556
:102050002CF48C819D81009771F0BCC02C813D8156
:102060002230310509F45FC08C819D818330910558
:1020700009F485C0AFC08B818130A1F4ABE3B0E03F
:10208000EBE3F0E08081482F8A81282F30E081E067
:1020900090E0022E02C0880F991F0A94E2F7842B69
:1020A0008C9398C0ABE3B0E0EBE3F0E08081482F85
:1020B0008A81282F30E081E090E0022E02C0880F54
:1020C000991F0A94E2F7809584238C9383C08B81B7
:1020D0008130A1F4A8E3B0E0E8E3F0E08081482F8C
:1020E0008A81282F30E081E090E0022E02C0880F24
:1020F000991F0A94E2F7842B8C936CC0A8E3B0E09C
:10210000E8E3F0E08081482F8A81282F30E081E0E9
:1021100090E0022E02C0880F991F0A94E2F7809582
:1021200084238C9357C08B818130A1F4A5E3B0E068
:10213000E5E3F0E08081482F8A81282F30E081E0BC
:1021400090E0022E02C0880F991F0A94E2F7842BB8
:102150008C9340C0A5E3B0E0E5E3F0E08081482F38
:102160008A81282F30E081E090E0022E02C0880FA3
:10217000991F0A94E2F7809584238C932BC08B815E
:102180008130A1F4A2E3B0E0E2E3F0E08081482FE7
:102190008A81282F30E081E090E0022E02C0880F73
:1021A000991F0A94E2F7842B8C9314C0A2E3B0E049
:1021B000E2E3F0E08081482F8A81282F30E081E03F
:1021C00090E0022E02C0880F991F0A94E2F78095D2
:1021D00084238C930F900F900F900F900F90CF91BE
:1021E000DF910895DF93CF9300D000D00F92CDB749
:1021F000DEB78A836B8319828B81883008F084C0B4
:102200008A81843008F080C08A81282F30E03D83A5
:102210002C834C815D814130510579F18C819D8108
:102220008230910534F42C813D812115310569F00E
:102230006BC04C815D8142305105B9F18C819D812B
:102240008330910509F449C05FC0E9E3F0E0808183
:10225000282F30E08B81882F90E0A90102C055958E
:1022600047958A95E2F7CA0181709070882319F02A
:1022700081E0898349C0198247C0E6E3F0E08081AC
:10228000282F30E08B81882F90E0A90102C055955E
:1022900047958A95E2F7CA0181709070882319F0FA
:1022A00081E0898331C019822FC0E3E3F0E08081AF
:1022B000282F30E08B81882F90E0A90102C055952E
:1022C00047958A95E2F7CA0181709070882319F0CA
:1022D00081E0898319C0198217C0E0E3F0E08081B2
:1022E000282F30E08B81882F90E0A90102C05595FE
:1022F00047958A95E2F7CA0181709070882319F09A
:1023000081E0898301C0198289810F900F900F901D
:102310000F900F90CF91DF910895DF93CF9300D06E
:1023200000D0CDB7DEB789836A838981843090F588
:102330008981282F30E03C832B838B819C818130E5
:102340009105D1F02B813C81223031052CF48B8119
:102350009C81009761F01EC02B813C8122303105A9
:1023600081F08B819C818330910581F013C0EAE379
:10237000F0E08A8180830EC0E7E3F0E08A81808309
:1023800009C0E4E3F0E08A81808304C0E1E3F0E087
:102390008A8180830F900F900F900F90CF91DF91E3
:1023A0000895DF93CF9300D000D0CDB7DEB78983F7
:1023B0006A838981843090F58981282F30E03C83BD
:1023C0002B838B819C8181309105D1F02B813C81C5
:1023D000223031052CF48B819C81009761F01EC066
:1023E0002B813C812230310581F08B819C818330AF
:1023F000910581F013C0EBE3F0E08A8180830EC089
:10240000E8E3F0E08A81808309C0E5E3F0E08A81B7
:10241000808304C0E2E3F0E08A8180830F900F9014
:102420000F900F90CF91DF910895DF93CF9300D05D
:1024300000D0CDB7DEB78A8319828A81843090F5C7
:102440008A81282F30E03C832B838B819C818130D3
:102450009105D1F02B813C81223031052CF48B8108
:102460009C81009761F01EC02B813C812230310598
:1024700081F08B819C818330910581F013C0E9E369
:10248000F0E0808189830EC0E6E3F0E080818983FB
:1024900009C0E3E3F0E08081898304C0E0E3F0E079
:1024A0008081898389810F900F900F900F90CF9139
:1024B000DF910895EF92FF920F931F93DF93CF93D5
:1024C000CDB7DEB76A970FB6F894DEBF0FBECDBFAB
:1024D000988F8F8B7A8F698F88E0FE013F96DF019E
:1024E000482F1D924A95E9F783E0888BCE010F961D
:1024F0000E94C50CECE4F0E0118210828FED93E1B4
:102500000E94970C81E00E94B4130E94A90C81E004
:1025100090E0909349028093480280914802909104
:10252000490284309105C8F3209170023091710204
:102530008091680290916902D901A81BB90BCD0165
:10254000CC01A0E0B0E080936A0290936B02A0936C
:102550006C02B0936D0220916E0230916F028091F7
:10256000700290917102A901481B590BCA01CC015C
:10257000A0E0B0E08093600290936102A0936202B9
:10258000B093630280916A0290916B02A0916C02F9
:10259000B0916D02BC01CD010E940705DC01CB01A9
:1025A000BC01CD0120E030E048EC52E40E941F0263
:1025B000DC01CB017C018D0120916A0230916B021C
:1025C00040916C0250916D02809160029091610285
:1025D000A0916202B0916302820F931FA41FB51FE6
:1025E000BC01CD010E9407059B01AC01C801B701E8
:1025F0000E941903DC01CB01BC01CD010E944900FE
:10260000DC01CB01E98DFA8D80832091600230914D
:102610006102409162025091630280916A0290913E
:102620006B02A0916C02B0916D02820F931FA41FE8
:10263000B51F9C01AD01220F331F441F551F220FF0
:10264000331F441F551F80E492E4AFE0B0E0BC01AB
:10265000CD010E94A627DA01C901EF89F88D808398
:102660009183A283B38380E090E0AAEFB3E48B87E9
:102670009C87AD87BE876B857C858D859E8520E098
:1026800030E04AE755E40E941F02DC01CB018F8352
:102690009887A987BA876F81788589859A8520E090
:1026A00030E040E85FE30E94250488232CF481E0B9
:1026B00090E09E838D833FC06F81788589859A8560
:1026C00020E03FEF4FE757E40E94C50318164CF592
:1026D0006B857C858D859E8520E030E040E251E46D
:1026E0000E941F02DC01CB01BC01CD010E94490008
:1026F000DC01CB019E838D830FC080E991E09C8338
:102700008B838B819C810197F1F79C838B838D81D7
:102710009E8101979E838D838D819E81009769F7AD
:1027200014C06F81788589859A850E944900DC01F3
:10273000CB019E838D838D819E819A83898389813C
:102740009A810197F1F79A8389830E94CB0D6A964B
:102750000FB6F894DEBF0FBECDBFCF91DF911F91B2
:102760000F91FF90EF900895DF93CF9300D00F92D9
:10277000CDB7DEB789838981282F30E03B832A8358
:102780008A819B81009731F02A813B81213031057C
:1027900049F00FC0AEE4B0E0EEE4F0E080818F7B62
:1027A0008C9307C0AEE4B0E0EEE4F0E0808180649A
:1027B0008C930F900F900F90CF91DF910895DF933E
:1027C000CF93CDB7DEB78091480290914902813016
:1027D000910591F4E6E4F0E08081918190936902A3
:1027E0008093680280E00E94B41382E090E09093AE
:1027F00049028093480230C080914802909149027A
:102800008230910591F4E6E4F0E08081918190932B
:1028100071028093700281E00E94B41383E090E023
:10282000909349028093480217C08091480290918A
:1028300049028330910581F4E6E4F0E080819181E2
:1028400090936F0280936E020E94B70C84E090E038
:102850009093490280934802CF91DF910895DF93CE
:10286000CF93CDB7DEB7AFE5B0E0EFE5F0E0808124
:1028700080688C93CF91DF910895DF93CF93CDB78C
:10288000DEB7AFE5B0E0EFE5F0E080818F778C93C5
:10289000CF91DF910895DF93CF9300D00F92CDB702
:1028A000DEB79A8389836B838B81882F90E0880FB2
:1028B000991FFC01E65BFD4F89819A81918380839A
:1028C0000F900F900F90CF91DF910895DF93CF93EA
:1028D000CDB7DEB7A5E5B0E0E5E5F0E080818E7F1D
:1028E0008C93A5E5B0E0E5E5F0E080818D7F8C93E9
:1028F000CF91DF910895DF93CF93CDB7DEB7A5E5F4
:10290000B0E0E5E5F0E0808182608C93A5E5B0E081
:10291000E5E5F0E080818E7F8C93CF91DF91089583
:10292000DF93CF93CDB7DEB7A5E5B0E0E5E5F0E006
:1029300080818D7F8C93A5E5B0E0E5E5F0E08081B6
:1029400081608C93CF91DF910895DF93CF93CDB7C2
:10295000DEB7A5E5B0E0E5E5F0E0808182608C932C
:10296000A5E5B0E0E5E5F0E0808181608C93CF9152
:10297000DF910895DF93CF93CDB7DEB7A5E5B0E043
:10298000E5E5F0E080818B7F8C93A5E5B0E0E5E59F
:10299000F0E08081877F8C93CF91DF910895DF9362
:1029A000CF93CDB7DEB7A5E5B0E0E5E5F0E08081F7
:1029B00088608C93A5E5B0E0E5E5F0E080818B7F51
:1029C0008C93CF91DF910895DF93CF93CDB7DEB78E
:1029D000A5E5B0E0E5E5F0E08081877F8C93A5E593
:1029E000B0E0E5E5F0E0808184608C93CF91DF91E9
:1029F0000895DF93CF93CDB7DEB7A5E5B0E0E5E569
:102A0000F0E0808188608C93A5E5B0E0E5E5F0E03A
:102A1000808184608C93CF91DF910895DF93CF9371
:102A2000CDB7DEB7A4E5B0E0E4E5F0E080818064F6
:102A30008C93CF91DF910895DF93CF93CDB7DEB71D
:102A4000A4E5B0E0E4E5F0E080818F7B8C93CF914A
:102A5000DF910895DF93CF93CDB7DEB70E94A51421
:102A6000ABE5B0E0EBE5F0E0808180648C93CF9142
:102A7000DF910895DF93CF93CDB7DEB70E94E414C2
:102A8000ABE5B0E0EBE5F0E0808180688C93CF911E
:102A9000DF910895DF93CF93CDB7DEB72A970FB6B6
:102AA000F894DEBF0FBECDBF89836A838981282F4A
:102AB00030E03A87298789859A8581309105E9F147
:102AC00029853A852230310509F469C089859A85BE
:102AD000009709F07FC0ABE5B0E0EBE5F0E0808166
:102AE00080648C938A81282F30E038872F838F81F0
:102AF000988581309105C1F02F81388522303105CC
:102B00002CF48F819885009761F064C02F813885FF
:102B10002230310561F08F8198858330910551F025
:102B200059C00E94661456C00E947B1453C00E9474
:102B3000901450C00E94A5144DC0ABE5B0E0EBE589
:102B4000F0E0808180688C938A81282F30E03E837A
:102B50002D838D819E8181309105C1F02D813E8133
:102B6000223031052CF48D819E81009761F032C0B6
:102B70002D813E812230310561F08D819E8183302F
:102B8000910551F027C00E94BA1424C00E94CF14AE
:102B900021C00E94E4141EC00E94F9141BC0ABE5C2
:102BA000B0E0EBE5F0E0808180628C938A81282F91
:102BB00030E03C832B838B819C818130910541F0F7
:102BC0002B813C812330310529F40E940E1502C06F
:102BD0000E941C152A960FB6F894DEBF0FBECDBF1B
:102BE000CF91DF910895DF93CF9300D00F92CDB7AF
:102BF000DEB789838981282F30E03B832A838A814D
:102C00009B818130910589F02A813B8122303105F9
:102C1000A1F08A819B810097B9F4ABE5B0E0EBE5C8
:102C2000F0E080818F7B8C930FC0ABE5B0E0EBE5EB
:102C3000F0E080818F778C9307C0ABE5B0E0EBE5E7
:102C4000F0E080818F7D8C930F900F900F90CF914B
:102C5000DF9108951F920F920FB60F9211242F93B8
:102C60003F934F935F936F937F938F939F93AF9314
:102C7000BF93EF93FF93DF93CF93CDB7DEB78091F0
:102C80004A0290914B02009729F0E0914A02F0919C
:102C90004B020995CF91DF91FF91EF91BF91AF91D9
:102CA0009F918F917F916F915F914F913F912F9164
:102CB0000F900FBE0F901F9018951F920F920FB696
:102CC0000F9211242F933F934F935F936F937F93B2
:102CD0008F939F93AF93BF93EF93FF93DF93CF9324
:102CE000CDB7DEB780914C0290914D02009729F04C
:102CF000E0914C02F0914D020995CF91DF91FF9147
:102D0000EF91BF91AF919F918F917F916F915F9163
:102D10004F913F912F910F900FBE0F901F901895DC
:102D20001F920F920FB60F9211242F933F934F9340
:102D30005F936F937F938F939F93AF93BF93EF9323
:102D4000FF93DF93CF93CDB7DEB780914E02909182
:102D50004F02009729F0E0914E02F0914F02099541
:102D6000CF91DF91FF91EF91BF91AF919F918F91A3
:102D70007F916F915F914F913F912F910F900FBE77
:102D80000F901F901895DF93CF93CDB7DEB7EAE38E
:102D9000F0E08CE78083E7E3F0E01082E4E3F0E02A
:102DA00080E88083E1E3F0E082E08083EBE3F0E021
:102DB0001082E8E3F0E01082E5E3F0E01082E2E365
:102DC000F0E01082CF91DF910895DF93CF93CDB7DC
:102DD000DEB72E970FB6F894DEBF0FBECDBF8A8345
:102DE0006B834C8381E089838A81843008F00CC135
:102DF0008B81883008F008C18C81813021F08C8172
:102E0000882309F001C18A81282F30E03E872D8771
:102E10008D859E858130910509F44FC02D853E85B5
:102E2000223031052CF48D859E85009771F0EDC020
:102E30002D853E852230310509F477C08D859E852C
:102E40008330910509F4A9C0E0C08C81282F30E0BF
:102E50003C872B878B859C850097D1F02B853C8503
:102E60002130310509F0D1C0AAE3B0E0EAE3F0E097
:102E70008081482F8B81282F30E081E090E0022E66
:102E800002C0880F991F0A94E2F7842B8C93BDC06F
:102E9000AAE3B0E0EAE3F0E08081482F8B81282F9D
:102EA00030E081E090E0022E02C0880F991F0A9462
:102EB000E2F7809584238C93A8C08C81282F30E082
:102EC0003A87298789859A850097D1F029853A859F
:102ED0002130310509F099C0A7E3B0E0E7E3F0E065
:102EE0008081482F8B81282F30E081E090E0022EF6
:102EF00002C0880F991F0A94E2F7842B8C9385C037
:102F0000A7E3B0E0E7E3F0E08081482F8B81282F32
:102F100030E081E090E0022E02C0880F991F0A94F1
:102F2000E2F7809584238C9370C08C81282F30E049
:102F300038872F838F8198850097D1F02F8138852E
:102F40002130310509F061C0A4E3B0E0E4E3F0E032
:102F50008081482F8B81282F30E081E090E0022E85
:102F600002C0880F991F0A94E2F7842B8C934DC0FE
:102F7000A4E3B0E0E4E3F0E08081482F8B81282FC8
:102F800030E081E090E0022E02C0880F991F0A9481
:102F9000E2F7809584238C9338C08C81282F30E011
:102FA0003E832D838D819E810097C9F02D813E81C6
:102FB0002130310551F5A1E3B0E0E1E3F0E080819B
:102FC000482F8B81282F30E081E090E0022E02C054
:102FD000880F991F0A94E2F7842B8C9316C0A1E303
:102FE000B0E0E1E3F0E08081482F8B81282F30E0D2
:102FF00081E090E0022E02C0880F991F0A94E2F748
:10300000809584238C9301C0198289812E960FB6F6
:10301000F894DEBF0FBECDBFCF91DF910895DF934F
:10302000CF93CDB7DEB72F970FB6F894DEBF0FBEA4
:10303000CDBF8B836C834D8381E08A838B81843009
:1030400008F013C18C81883008F00FC18D8188236E
:1030500021F08D81813009F008C18B81282F30E06B
:103060003F872E878E859F858130910509F450C05A
:103070002E853F85223031052CF48E859F85009763
:1030800071F0F4C02E853F852230310509F479C0F6
:103090008E859F858330910509F4ADC0E7C08D8191
:1030A000282F30E03D872C878C859D850097C9F0BF
:1030B0002C853D852130310549F5ABE3B0E0EBE3EC
:1030C000F0E08081482F8C81282F30E081E090E073
:1030D000022E02C0880F991F0A94E2F7842B8C936A
:1030E000C5C0ABE3B0E0EBE3F0E08081482F8C811A
:1030F000282F30E081E090E0022E02C0880F991F57
:103100000A94E2F7809584238C93B0C01A82AEC0F3
:103110008D81282F30E03B872A878A859B85009701
:10312000C9F02A853B852130310549F5A8E3B0E097
:10313000E8E3F0E08081482F8C81282F30E081E0A7
:1031400090E0022E02C0880F991F0A94E2F7842BA8
:103150008C938CC0A8E3B0E0E8E3F0E08081482FD6
:103160008C81282F30E081E090E0022E02C0880F91
:10317000991F0A94E2F7809584238C9377C01A8272
:1031800075C08D81282F30E03987288788859985FB
:10319000009731F02885398521303105B1F029C0FB
:1031A000A5E3B0E0E5E3F0E08081482F8C81282F93
:1031B00030E081E090E0022E02C0880F991F0A944F
:1031C000E2F7809584238C9351C0A5E3B0E0E5E35A
:1031D000F0E08081482F8C81282F30E081E090E062
:1031E000022E02C0880F991F0A94E2F7842B8C9359
:1031F0003DC01A823BC08D81282F30E03F832E8353
:103200008E819F81009731F02E813F8121303105E1
:10321000B1F029C0A5E3B0E0E5E3F0E08081482FFC
:103220008C81282F30E081E090E0022E02C0880FD0
:10323000991F0A94E2F7809584238C9317C0A2E328
:10324000B0E0E2E3F0E08081482F8C81282F30E06D
:1032500081E090E0022E02C0880F991F0A94E2F7E5
:10326000842B8C9303C01A8201C019828A812F9605
:103270000FB6F894DEBF0FBECDBFCF91DF9108959A
:10328000DF93CF93CDB7DEB728970FB6F894DEBFA4
:103290000FBECDBF8B836C835E834D8381E08A83B9
:1032A0008B81843008F09FC08C81883008F09BC0EF
:1032B0008D819E81009709F496C08B81282F30E084
:1032C00038872F834F81588541305105A9F18F816F
:1032D00098858230910534F42F8138852115310588
:1032E00071F082C04F8158854230510509F441C0C8
:1032F0008F8198858330910509F458C075C0E9E342
:10330000F0E08081282F30E08C81882F90E0A901A7
:1033100002C0559547958A95E2F7CA018170898365
:103320008981882321F4ED81FE8110825DC0ED81C9
:10333000FE8181E0808358C0E6E3F0E08081282FA1
:1033400030E08C81882F90E0A90102C05595479507
:103350008A95E2F7CA01817089838981882321F4E3
:10336000ED81FE81108240C0ED81FE8181E080838D
:103370003BC0E3E3F0E08081282F30E08C81882F90
:1033800090E0A90102C0559547958A95E2F7CA01D8
:10339000817089838981882321F4ED81FE811082E7
:1033A00023C0ED81FE8181E080831EC0E0E3F0E078
:1033B0008081282F30E08C81882F90E0A90102C005
:1033C000559547958A95E2F7CA018170898389816D
:1033D000882321F4ED81FE81108206C0ED81FE81FB
:1033E00081E0808301C01A828A8128960FB6F89402
:1033F000DEBF0FBECDBFCF91DF910895DF93CF9396
:1034000000D000D00F92CDB7DEB78A836B831982CC
:103410008B81883008F06BC08A81843008F067C0E7
:103420008A81282F30E03D832C834C815D8141309F
:10343000510541F18C819D818230910534F42C81BC
:103440003D812115310561F052C04C815D814230D2
:10345000510551F18C819D8183309105B9F147C0AF
:10346000E9E3F0E08081282F30E08B81882F90E025
:10347000A90102C0559547958A95E2F7CA01817066
:10348000898335C0E6E3F0E08081282F30E08B812E
:10349000882F90E0A90102C0559547958A95E2F7DB
:1034A000CA018170898323C0E3E3F0E08081282F83
:1034B00030E08B81882F90E0A90102C05595479597
:1034C0008A95E2F7CA018170898311C0E0E3F0E0D8
:1034D0008081282F30E08B81882F90E0A90102C0E5
:1034E000559547958A95E2F7CA018170898389814C
:1034F0000F900F900F900F900F90CF91DF91089544
:10350000DF93CF93CDB7DEB72D970FB6F894DEBF1C
:103510000FBECDBF89836A838981282F30E03C8725
:103520002B878B859C858130910571F12B853C859E
:10353000223031052CF48B859C85009769F06BC097
:103540002B853C8522303105B9F18B859C858330F4
:10355000910509F449C05FC08A81282F30E03A877D
:10356000298789859A85009731F029853A85213008
:10357000310529F050C0EAE3F0E010824CC0EAE3E4
:10358000F0E08FEF808347C08A81282F30E03887B2
:103590002F838F819885009731F02F8138852130D6
:1035A000310529F038C0E7E3F0E0108234C0E7E3EA
:1035B000F0E08FEF80832FC08A81282F30E03E8398
:1035C0002D838D819E81009731F02D813E812130A8
:1035D000310529F020C0E4E3F0E010821CC0E4E3F0
:1035E000F0E08FEF808317C08A81282F30E03C8382
:1035F0002B838B819C81009731F02B813C81213082
:10360000310529F008C0E1E3F0E0108204C0E1E3F5
:10361000F0E08FEF80832D960FB6F894DEBF0FBEDB
:10362000CDBFCF91DF910895DF93CF93CDB7DEB7B4
:103630002D970FB6F894DEBF0FBECDBF8A836B8384
:1036400081E089838A81843008F080C08A81282FB4
:1036500030E03D872C878C859D858130910571F107
:103660002C853D85223031052CF48C859D85009775
:1036700069F06DC02C853D8522303105B9F18C850E
:103680009D858330910509F449C061C08B81282F45
:1036900030E03B872A878A859B85009731F02A8511
:1036A0003B852130310529F052C0EBE3F0E0108278
:1036B0004EC0EBE3F0E08FEF808349C08B81282F71
:1036C00030E03987288788859985009731F02885EB
:1036D00039852130310529F03AC0E8E3F0E0108265
:1036E00036C0E8E3F0E08FEF808331C08B81282F74
:1036F00030E03F832E838E819F81009731F02E81B1
:103700003F812130310529F022C0E5E3F0E010824D
:103710001EC0E5E3F0E08FEF808319C08B81282F76
:1037200030E03D832C838C819D81009731F02C818A
:103730003D812130310529F00AC0E2E3F0E010823A
:1037400006C0E2E3F0E08FEF808301C01982898137
:103750002D960FB6F894DEBF0FBECDBFCF91DF918F
:103760000895DF93CF9300D000D000D0CDB7DEB75F
:103770008A837C836B8381E089838A81843008F02B
:103780003FC08B819C810097D9F18A81282F30E03E
:103790003E832D838D819E8181309105E1F02D81C5
:1037A0003E81223031052CF48D819E81009761F09D
:1037B00028C02D813E8122303105A1F08D819E816E
:1037C00083309105B1F01DC0E9E3F0E08081EB8129
:1037D000FC81808316C0E6E3F0E08081EB81FC8110
:1037E00080830FC0E3E3F0E08081EB81FC81808384
:1037F00008C0E0E3F0E08081EB81FC81808301C0C0
:103800001982898126960FB6F894DEBF0FBECDBF10
:10381000CF91DF910895DF93CF93CDB7DEB7A7E2C5
:10382000B0E0E7E2F0E080818F778C93A7E2B0E030
:10383000E7E2F0E0808180648C93A7E2B0E0E7E209
:10384000F0E080818F7D8C93A6E2B0E0E6E2F0E0CC
:1038500080818F7D8C93A6E2B0E0E6E2F0E080818B
:1038600084608C93A6E2B0E0E6E2F0E080818260C2
:103870008C93A6E2B0E0E6E2F0E080818E7F8C934C
:10388000A6E2B0E0E6E2F0E0808180688C93CF9120
:10389000DF910895DF93CF93CDB7DEB728970FB6AA
:1038A000F894DEBF0FBECDBF8E8378876F8381E033
:1038B0008D8319821A821B821C828E81803208F0CD
:1038C0005BC08F819885009709F456C0A7E2B0E0ED
:1038D000E7E2F0E08081807E8C93A7E2B0E0E7E24F
:1038E000F0E090818E81892B8C93A6E2B0E0E6E235
:1038F000F0E0808180648C930BC089819A81AB81D8
:10390000BC810196A11DB11D89839A83AB83BC83C1
:10391000E6E2F0E0808182958F70882F90E08170E0
:103920009070009761F489819A81AB81BC81803568
:1039300023EC920720E0A20720E0B207F0F2E6E2D3
:10394000F0E0808182958F70882F90E08170907078
:10395000882381F0A6E2B0E0E6E2F0E080818061B9
:103960008C93E4E2F0E080819181EF81F88591838E
:10397000808303C01D8201C01D828D8128960FB6F1
:10398000F894DEBF0FBECDBFCF91DF910895DF93D6
:10399000CF9300D000D0CDB7DEB78A837C836B8312
:1039A00081E089838A81803278F58B819C810097C0
:1039B00059F180915202882339F581E080935202B7
:1039C0008B819C819093510280935002A6E2B0E0DB
:1039D000E6E2F0E0808188608C93A7E2B0E0E7E265
:1039E000F0E08081807E8C93A7E2B0E0E7E2F0E037
:1039F00090818A81892B8C93A6E2B0E0E6E2F0E028
:103A0000808180648C9301C0198289810F900F900E
:103A10000F900F90CF91DF910895DF93CF9300D057
:103A20000F92CDB7DEB79B838A8381E089838A8139
:103A30009B81009739F0E4E2F0E0808191819B83E3
:103A40008A8301C0198289810F900F900F90CF91C6
:103A5000DF9108951F920F920FB60F9211242F93AA
:103A60003F934F935F936F937F938F939F93AF9306
:103A7000BF93EF93FF93DF93CF93CDB7DEB78091E2
:103A8000500290915102009799F010925202A6E2D2
:103A9000B0E0E6E2F0E08081877F8C9320915002D5
:103AA00030915102E4E2F0E080819181F9010995C1
:103AB000CF91DF91FF91EF91BF91AF919F918F9146
:103AC0007F916F915F914F913F912F910F900FBE1A
:103AD0000F901F901895DF93CF93CDB7DEB7E09787
:103AE0000FB6F894DEBF0FBECDBF80E062E041E0CC
:103AF0000E940F1880E090E0A0E2B1E48DA79EA79D
:103B0000AFA7B8AB6DA57EA58FA598A92BEA3AEA19
:103B10004AEA50E40E941F02DC01CB0189A79AA760
:103B2000ABA7BCA769A57AA58BA59CA520E030E032
:103B300040E85FE30E94250488231CF481E088A705
:103B400091C069A57AA58BA59CA520E030E04FE740
:103B500053E40E94C50318160CF07BC06DA57EA52A
:103B60008FA598A920E030E04AE754E40E941903A9
:103B7000DC01CB018CA39DA3AEA3BFA36CA17DA14F
:103B80008EA19FA120E030E04AE755E40E941F0289
:103B9000DC01CB0188A399A3AAA3BBA368A179A147
:103BA0008AA19BA120E030E040E85FE30E94250469
:103BB00088232CF481E090E09F8F8E8F3FC068A116
:103BC00079A18AA19BA120E03FEF4FE757E40E9433
:103BD000C50318164CF56CA17DA18EA19FA120E014
:103BE00030E040E251E40E941F02DC01CB01BC0145
:103BF000CD010E944900DC01CB019F8F8E8F0FC049
:103C000080E991E09D8F8C8F8C8D9D8D0197F1F7D0
:103C10009D8F8C8F8E8D9F8D01979F8F8E8F8E8D18
:103C20009F8D009769F724C068A179A18AA19BA103
:103C30000E944900DC01CB019F8F8E8F8E8D9F8D5E
:103C40009B8F8A8F8A8D9B8D0197F1F79B8F8A8F2F
:103C50000FC069A57AA58BA59CA50E944900DC012F
:103C6000CB0188A788A5898F898D8A95F1F7898FDF
:103C700080E062E040E00E940F1880E090E0AAEF50
:103C8000B4E48D8B9E8BAF8BB88F6D897E898F89C5
:103C9000988D2BEA3AEA4AEA50E40E941F02DC01BE
:103CA000CB01898B9A8BAB8BBC8B69897A898B8989
:103CB0009C8920E030E040E85FE30E9425048823EF
:103CC0001CF481E0888B91C069897A898B899C89F1
:103CD00020E030E04FE753E40E94C50318160CF0D3
:103CE0007BC06D897E898F89988D20E030E04AE71E
:103CF00054E40E941903DC01CB018C879D87AE87B9
:103D0000BF876C857D858E859F8520E030E04AE702
:103D100055E40E941F02DC01CB0188879987AA879E
:103D2000BB87688579858A859B8520E030E040E8FF
:103D30005FE30E94250488232CF481E090E09F83B8
:103D40008E833FC0688579858A859B8520E03FEF1B
:103D50004FE757E40E94C50318164CF56C857D8526
:103D60008E859F8520E030E040E251E40E941F02F2
:103D7000DC01CB01BC01CD010E944900DC01CB017B
:103D80009F838E830FC080E991E09D838C838C811B
:103D90009D810197F1F79D838C838E819F8101978F
:103DA0009F838E838E819F81009769F724C06885E9
:103DB00079858A859B850E944900DC01CB019F8320
:103DC0008E838E819F819B838A838A819B810197C9
:103DD000F1F79B838A830FC069897A898B899C89D3
:103DE0000E944900DC01CB01888B88898983898105
:103DF0008A95F1F78983E0960FB6F894DEBF0FBE7F
:103E0000CDBFCF91DF910895DF93CF930F92CDB7C0
:103E1000DEB7898382E067E040E00E940F18898165
:103E2000882334F480E066E041E00E940F1805C06A
:103E300080E066E040E00E940F18898182958695B7
:103E400086958370882F90E081709070882331F080
:103E500080E065E041E00E940F1805C080E065E069
:103E600040E00E940F188981829586958770882F7F
:103E700090E081709070882331F080E064E041E050
:103E80000E940F1805C080E064E040E00E940F1817
:103E9000898182958F70882F90E08170907088233F
:103EA00031F080E063E041E00E940F1805C080E03F
:103EB00063E040E00E940F180E946B1D8981869587
:103EC00086958695882F90E081709070882331F0D8
:103ED00080E066E041E00E940F1805C080E066E0E7
:103EE00040E00E940F18898186958695882F90E082
:103EF00081709070882331F080E065E041E00E949D
:103F00000F1805C080E065E040E00E940F1889812D
:103F10008695882F90E081709070882331F080E042
:103F200064E041E00E940F1805C080E064E040E0DA
:103F30000E940F188981882F90E0817090708823EB
:103F400031F080E063E041E00E940F1805C080E09E
:103F500063E040E00E940F180E946B1D0F90CF910C
:103F6000DF910895DF93CF930F92CDB7DEB78983AA
:103F700082E090E067E070E041E050E00E940710CE
:103F80008981882334F480E066E041E00E940F18C4
:103F900005C080E066E040E00E940F1889818295AC
:103FA000869586958370882F90E081709070882325
:103FB00031F080E065E041E00E940F1805C080E02C
:103FC00065E040E00E940F18898182958695877090
:103FD000882F90E081709070882331F080E064E059
:103FE00041E00E940F1805C080E064E040E00E94BC
:103FF0000F18898182958F70882F90E08170907062
:10400000882331F080E063E041E00E940F1805C092
:1040100080E063E040E00E940F180E946B1D8981E0
:10402000869586958695882F90E08170907088237C
:1040300031F080E066E041E00E940F1805C080E0AA
:1040400066E040E00E940F18898186958695882F4A
:1040500090E081709070882331F080E065E041E06D
:104060000E940F1805C080E065E040E00E940F1834
:1040700089818695882F90E081709070882331F037
:1040800080E064E041E00E940F1805C080E064E039
:1040900040E00E940F188981882F90E08170907015
:1040A000882331F080E063E041E00E940F1805C0F2
:1040B00080E063E040E00E940F180E946B1D0F90AB
:1040C000CF91DF9108950F931F93DF93CF93CDB7D7
:1040D000DEB768970FB6F894DEBF0FBECDBF6D8B0D
:1040E0007E8B8F8B988F1C821B828C81082F10E017
:1040F0008D899E89AF89B88D2AE030E040E050E09C
:10410000BC01CD010E94A627DC01CB01282F205D38
:10411000CE010596FC01E00FF11F20838C818F5F9B
:104120008C838D899E89AF89B88D2AE030E040E08C
:1041300050E0BC01CD010E94A627DA01C9018D8B98
:104140009E8BAF8BB88F8D899E89AF89B88D009774
:10415000A105B10551F68B81882369F08C81282F48
:1041600030E0CE010596FC01E20FF31F8DE2808363
:104170008C818F5F8C831A823DC08A81282F30E02A
:10418000CE010596FC01E20FF31F808189838A81AD
:10419000482F50E08C81282F30E08A81882F90E0D2
:1041A000B901681B790BCB019C0121503040CE0135
:1041B0000596FC01E20FF31F2081CE010596FC015C
:1041C000E40FF51F20838C81282F30E08A81882F0F
:1041D00090E0A901481B590BCA019C0121503040B5
:1041E000CE010596FC01E20FF31F898180838A814D
:1041F0008F5F8A838C81982F96958A81891708F41E
:10420000BCCF8C81282F30E0CE010596FC01E20F57
:10421000F31F1082CE0105960E94592168960FB6B1
:10422000F894DEBF0FBECDBFCF91DF911F910F91EC
:104230000895DF93CF93CDB7DEB782E00E94041FCD
:1042400088E20E94041F8EE00E94041F86E00E9404
:10425000041F81E00E94041FCF91DF910895DF9336
:10426000CF9300D000D0CDB7DEB789836A83898130
:104270008832C0F48981282F30E03C832B838B81E6
:104280009C81009731F02B813C812130310531F048
:1042900009C08A8180580E94041F04C08A8180540A
:1042A0000E94041F0F900F900F900F90CF91DF91FD
:1042B0000895DF93CF9300D00F92CDB7DEB79B83E5
:1042C0008A8319820EC08981282F30E08A819B81E0
:1042D000FC01E20FF31F80810E94B21F89818F5F72
:1042E00089838981282F30E08A819B81FC01E20F3C
:1042F000F31F8081882339F70F900F900F90CF9193
:10430000DF910895DF93CF93CDB7DEB728970FB62F
:10431000F894DEBF0FBECDBF8B836C835E834D836D
:1043200038872F831A8281E089838B81882349F41F
:104330008C81803130F48C818F7080680E94041FE2
:104340003AC08B818130B9F58C818031A0F58C81A8
:104350008F70806C0E94041F2EC08A81282F30E04D
:104360008D819E81FC01E20FF31F80810E94B21FAC
:104370008A818F5F8A838B81882371F48C8183305B
:1043800058F08A818B3041F481E060E00E942F2157
:1043900089818F5F89830BC08B81813041F48C814F
:1043A000833028F08A818B3011F40E94EF21EF8155
:1043B000F885898180838A81282F30E08D819E81D4
:1043C000FC01E20FF31F8081882339F628960FB68F
:1043D000F894DEBF0FBECDBFCF91DF910895DF937C
:1043E000CF93CDB7DEB72E970FB6F894DEBF0FBED2
:1043F000CDBF81E00E94041F80E090E0A0E0B0E427
:104400008B879C87AD87BE876B857C858D859E85D8
:1044100020E030E04AE755E40E941F02DC01CB01B6
:104420008F839887A987BA876F81788589859A85D0
:1044300020E030E040E85FE30E94250488232CF46C
:1044400081E090E09E838D833FC06F817885898570
:104450009A8520E03FEF4FE757E40E94C503181606
:104460004CF56B857C858D859E8520E030E040E2B3
:1044700051E40E941F02DC01CB01BC01CD010E946E
:104480004900DC01CB019E838D830FC080E991E060
:104490009C838B838B819C810197F1F79C838B8319
:1044A0008D819E8101979E838D838D819E81009752
:1044B00069F714C06F81788589859A850E944900C3
:1044C000DC01CB019E838D838D819E819A838983BC
:1044D00089819A810197F1F79A8389832E960FB685
:1044E000F894DEBF0FBECDBFCF91DF910895DF936B
:1044F000CF93CDB7DEB72E970FB6F894DEBF0FBEC1
:10450000CDBF88E10E94041F80E090E0A0EAB1E402
:104510008B879C87AD87BE876B857C858D859E85C7
:1045200020E030E04AE755E40E941F02DC01CB01A5
:104530008F839887A987BA876F81788589859A85BF
:1045400020E030E040E85FE30E94250488232CF45B
:1045500081E090E09E838D833FC06F81788589855F
:104560009A8520E03FEF4FE757E40E94C5031816F5
:104570004CF56B857C858D859E8520E030E040E2A2
:1045800051E40E941F02DC01CB01BC01CD010E945D
:104590004900DC01CB019E838D830FC080E991E04F
:1045A0009C838B838B819C810197F1F79C838B8308
:1045B0008D819E8101979E838D838D819E81009741
:1045C00069F714C06F81788589859A850E944900B2
:1045D000DC01CB019E838D838D819E819A838983AB
:1045E00089819A810197F1F79A8389832E960FB674
:1045F000F894DEBF0FBECDBFCF91DF910895DF935A
:10460000CF93CDB7DEB72E970FB6F894DEBF0FBEAF
:10461000CDBF8CE10E94041F80E090E0A0EAB1E4ED
:104620008B879C87AD87BE876B857C858D859E85B6
:1046300020E030E04AE755E40E941F02DC01CB0194
:104640008F839887A987BA876F81788589859A85AE
:1046500020E030E040E85FE30E94250488232CF44A
:1046600081E090E09E838D833FC06F81788589854E
:104670009A8520E03FEF4FE757E40E94C5031816E4
:104680004CF56B857C858D859E8520E030E040E291
:1046900051E40E941F02DC01CB01BC01CD010E944C
:1046A0004900DC01CB019E838D830FC080E991E03E
:1046B0009C838B838B819C810197F1F79C838B83F7
:1046C0008D819E8101979E838D838D819E81009730
:1046D00069F714C06F81788589859A850E944900A1
:1046E000DC01CB019E838D838D819E819A8389839A
:1046F00089819A810197F1F79A8389832E960FB663
:10470000F894DEBF0FBECDBFCF91DF9108950F9318
:10471000DF93CF93CDB7DEB728970FB6F894DEBFFF
:104720000FBECDBF8B837D836C834E832F83088721
:1047300088850E94041F1A8219820FC029813A813C
:104740008C819D81FC01E20FF31F80810E94B21FCA
:1047500089819A8101969A83898389819A81883097
:10476000910564F38E816F810E942F218B810E94BD
:10477000B21F8F81803148F00E94EF2180E060E01D
:104780000E942F218B810E94B21F28960FB6F894A9
:10479000DEBF0FBECDBFCF91DF910F910895DF93A4
:1047A000CF93CDB7DEB728970FB6F894DEBF0FBE14
:1047B000CDBF6D837E838F8398876D817E818F814E
:1047C00098850E94B304DC01CB019C838B838B8191
:1047D0009C81AA2797FDA095BA2FBC01CD010E940C
:1047E00055049B01AC016D817E818F8198850E946B
:1047F000C101DC01CB01BC01CD0120E030E04AE782
:1048000054E40E941F02DC01CB01BC01CD010E94D7
:10481000B304DC01CB019A8389838B819C8184362C
:10482000910554F08B819C812AE030E0B9010E940F
:104830009327CB019C838B838B819C81AA2797FD37
:10484000A095BA2FBC01CD010E9463208EE20E9488
:10485000B21F89819A81AA2797FDA095BA2FBC0122
:10486000CD010E94632028960FB6F894DEBF0FBEDC
:10487000CDBFCF91DF910895DF93CF9300D000D0CB
:10488000CDB7DEB769837A838B839C838DE20E94E8
:10489000B21F89819A81AB81BC81B05889839A8388
:1048A000AB83BC8369817A818B819C810E944900A2
:1048B000DC01CB01BC01CD010E9463200F900F9061
:1048C0000F900F90CF91DF910895EF92FF920F9389
:1048D0001F93DF93CF93CDB7DEB7E0970FB6F89471
:1048E000DEBF0FBECDBF0E94C3160E940B1C0E94EC
:1048F00019210E94B0070E942F1485E090E09EA32A
:104900008DA380E090E0A0E0B0E089A39AA3ABA3E0
:10491000BCA380E090E4AEE4B5E48D8F9E8FAF8FB2
:10492000B8A380E090E0A0E0B0E0898F9A8FAB8FD1
:10493000BC8F188E1F861BA61AA680E090E0A0E010
:10494000B0E08B879C87AD87BE8782E48A8780E052
:1049500090E0A0E0B0E08E839F83A887B9871D8296
:1049600080E690E00E9420088BE690E00E942008FC
:1049700088E790E00E94200882E890E00E942008EA
:1049800085E990E00E94200880E060E00E942F21ED
:104990008AEA90E00E94592181E060E00E942F2184
:1049A00087EB90E00E945921CE0189960E946C0904
:1049B00089A58F3409F095C09E01295D3F4F80E0A5
:1049C000B9010E944A1C2FA138A58DA19EA1AC015E
:1049D000249FC001259F900D349F900D1124CC0180
:1049E000A0E0B0E0BC01CD010E940705DC01CB01D5
:1049F00089839A83AB83BC8369817A818B819C8113
:104A000020E030E040E854E40E941903DC01CB01CF
:104A100089A39AA3ABA3BCA38DA19EA1CC01A0E0C6
:104A2000B0E0BC01CD010E940705DC01CB01BC0157
:104A3000CD0129A13AA14BA15CA10E94C101DC01D9
:104A4000CB019C01AD0169A17AA18BA19CA10E941F
:104A50001903DC01CB0189839A83AB83BC836D8D01
:104A60007E8D8F8D98A129813A814B815C810E9436
:104A70001F02DC01CB01898F9A8FAB8FBC8F0E9404
:104A8000EF2180E060E00E942F2184EC90E00E9402
:104A9000592181E060E00E942F21698D7A8D8B8DF4
:104AA0009C8D0E944900DC01CB01BC01CD010E941C
:104AB0006320888D882399F4698D7A8D8B8D9C8DE8
:104AC0000E944900DC01CB01BC01CD010E944908D4
:104AD00082ED90E00E94200881E0888F65CF188EDB
:104AE00063CF89A5863509F0BBC09E01295D3F4F84
:104AF00081E0B9010E944A1C8FA198A5CC01A0E0D9
:104B0000B0E0BC01CD010E940705DC01CB01BC0176
:104B1000CD0120E030E040EA50E40E941F02DC01B9
:104B2000CB01BC01CD0120E030EC4FE754E40E9402
:104B30001903DC01CB01888B998BAA8BBB8B68890D
:104B400079898A899B8926E239EF4AEC5DE30E94E4
:104B50001903DC01CB018C8B9D8BAE8BBF8B0E942C
:104B6000EF2180E060E00E942F2187ED90E00E941D
:104B7000592181E060E00E942F216C897D898E8916
:104B80009F8920E030E040E050E00E94C503181605
:104B9000FCF48C899D89AE89BF89BC01CD010E943E
:104BA000CF2386E50E94B21F8F85882379F48C89F4
:104BB0009D89AE89BF89BC01CD010E94FF0886EEA8
:104BC00090E00E94200881E08F87EECE1F86ECCE19
:104BD0006C897D898E899F8920E030E04AE754E422
:104BE0000E941F02DC01CB01BC01CD010E944900E3
:104BF000DC01CB01CC01A0E0B0E0BC01CD010E9402
:104C000063208CEE90E00E9459218F85882331F536
:104C10006C897D898E899F8920E030E04AE754E4E1
:104C20000E941F02DC01CB01BC01CD010E944900A2
:104C3000DC01CB01CC01A0E0B0E0BC01CD010E94C1
:104C40000705DC01CB01BC01CD010E94FF088FEEFE
:104C500090E00E94200881E08F87A6CE1F86A4CE18
:104C600089A5813409F079C09E01265D3F4F87E018
:104C7000B9010E944A1C8AA59BA5CC01A0E0B0E026
:104C8000BC01CD010E940705DC01CB01BC01CD01B7
:104C900020E030E040E854E40E941903DC01CB013D
:104CA000BC01CD0120E030E44CE955E40E941F0234
:104CB000DC01CB018B879C87AD87BE876B857C85AC
:104CC0008D859E8520E030E44CE155E40E94C101D1
:104CD000DC01CB017C018D018A85882F90E0AA2719
:104CE00097FDA095BA2FBC01CD010E9455049B01F0
:104CF000AC01C801B7010E941903DC01CB018E830E
:104D00009F83A887B9870E94EF2180E060E00E941E
:104D10002F2183EF90E00E94592181E060E00E9402
:104D20002F218E819F81A885B985BC01CD010E946C
:104D3000CF238D81882379F48E819F81A885B985C1
:104D4000BC01CD010E94FF088FEF90E00E94200877
:104D500081E08D8329CE1D8227CE89A5863409F076
:104D600023CECE018C969E01205D3F4FB9010E945B
:104D70005A120E94EF2180E060E00E942F2185E01E
:104D800091E00E9459218DE00E9406088CA59DA506
:104D9000AEA5BFA5883E53E0950750E0A50750E0BB
:104DA000B507C8F48CA59DA5AEA5BFA5BC01CD01D6
:104DB0000E9463208CE091E00E9459218CA59DA562
:104DC000AEA5BFA5BC01CD010E9449088FE091E0CE
:104DD0000E94200871C08CA59DA5AEA5BFA5893EE7
:104DE00023E0920720E0A20720E0B207C8F18CA5DB
:104DF0009DA5AEA5BFA5803442E494074FE0A4076B
:104E000040E0B40768F58CA59DA5AEA5BFA528EE2A
:104E100033E040E050E0BC01CD010E94A627DA015A
:104E2000C901BC01CD010E94632083E191E00E9491
:104E300059218CA59DA5AEA5BFA528EE33E040E085
:104E400050E0BC01CD010E94A627DA01C901BC01D6
:104E5000CD010E94490887E191E00E9420082CC002
:104E60008CA59DA5AEA5BFA520E432E44FE050E09F
:104E7000BC01CD010E94A627DA01C901BC01CD0108
:104E80000E9463208CE191E00E9459218CA59DA590
:104E9000AEA5BFA520E432E44FE050E0BC01CD0157
:104EA0000E94A627DA01C901BC01CD010E94490870
:104EB00080E291E00E94200881E060E00E942F21C2
:104EC00085E291E00E94592188A9882F90E0A0E016
:104ED000B0E0BC01CD010E94632085E20E94B21FB8
:104EE00080E20E94060860CD629FD001739FF001AE
:104EF000829FE00DF11D649FE00DF11D929FF00D6A
:104F0000839FF00D749FF00D659FF00D9927729FA0
:104F1000B00DE11DF91F639FB00DE11DF91FBD012B
:104F2000CF011124089597FB092E07260AD077FD9B
:104F300004D02ED006D000201AF4709561957F4FD2
:104F40000895F6F7909581959F4F0895A1E21A2E46
:104F5000AA1BBB1BFD010DC0AA1FBB1FEE1FFF1F1D
:104F6000A217B307E407F50720F0A21BB30BE40B6D
:104F7000F50B661F771F881F991F1A9469F76095B4
:104F80007095809590959B01AC01BD01CF0108956E
:104F9000AA1BBB1B51E107C0AA1FBB1FA617B7075F
:104FA00010F0A61BB70B881F991F5A95A9F780957B
:104FB0009095BC01CD0108952F923F924F925F9240
:104FC0006F927F928F929F92AF92BF92CF92DF9219
:104FD000EF92FF920F931F93CF93DF93CDB7DEB77E
:104FE000CA1BDB0B0FB6F894DEBF0FBECDBF099412
:104FF0002A88398848885F846E847D848C849B8469
:10500000AA84B984C884DF80EE80FD800C811B8176
:10501000AA81B981CE0FD11D0FB6F894DEBF0FBEA5
:0A502000CDBFED010895F894FFCF15
:10502A004F3A4F686D657465722000563A566F6C38
:10503A00746D657465722000413A416D65746572DC
:10504A002000463A4672657175656E6379206D6512
:10505A007465722000456E74657220596F757220EE
:10506A004F7074696F6E203A20004F3A4F686D2076
:10507A00563A566F6C7400413A416D7020463A4672
:10508A00726571004F686D6D657465722E2E2E2ED5
:10509A002E004F686D2000566F6C746D65746572D2
:1050AA002E2E2E2E2E00566F6C7420006D56006D1B
:1050BA00562000416D657465722E2E2E2E2E0041EB
:1050CA006D70732000467265713A2000487A004874
:1050DA007A20004B487A004B487A20004D487A00E3
:1050EA004D487A2000447574793A20000000000087
:1050FA000000000000010202030303030404040485
:10510A000404040405050505050505050505050549
:10511A000505050506060606060606060606060629
:10512A000606060606060606060606060606060615
:10513A0006060606070707070707070707070707F9
:10514A0007070707070707070707070707070707E5
:10515A0007070707070707070707070707070707D5
:10516A0007070707070707070707070707070707C5
:10517A0007070707080808080808080808080808A9
:10518A000808080808080808080808080808080895
:10519A000808080808080808080808080808080885
:1051AA000808080808080808080808080808080875
:1051BA000808080808080808080808080808080865
:1051CA000808080808080808080808080808080855
:1051DA000808080808080808080808080808080845
:1051EA000808080808080808080808080808080835
:0C51FA000808080803020100050001007D
:00000001FF
