:100000000C942A000C94350F0C94680F0C949B0FE1
:100010000C9447000C9447000C9447000C94470044
:100020000C9447000C9447000C94AA0B0C94670B9B
:100030000C94530D0C9447000C9447000C9447000B
:100040000C9447000C9447000C9447000C94470014
:100050000C94470011241FBECFE5D8E0DEBFCDBF12
:1000600011E0A0E6B0E0EEE0F2E502C005900D92EE
:10007000A83FB107D9F712E0A8EFB1E001C01D9287
:10008000A233B107E1F70E9465250C9405290C9471
:100090000000EF92FF920F931F937B018C0120E0F1
:1000A00030E040E05FE40E94F50388238CF0C80153
:1000B000B70120E030E040E05FE40E94C1010E940F
:1000C000B3049B01AC01205030404040504806C072
:1000D000C801B7010E94B3049B01AC01B901CA0178
:1000E0001F910F91FF90EF900895A0E0B0E0EBE733
:1000F000F0E00C94CE28DC012B01FA019C919230A7
:1001000008F439C1EB018881823008F433C194309E
:1001100069F4843009F02FC111969C91119789815F
:10012000981709F428C1A0E6B0E025C1843009F48D
:1001300021C18230A9F4923009F01DC19A01AD01AC
:1001400088E0EA010990AE01E90109929E0181501F
:10015000C1F7E201898111969C918923818308C1AD
:10016000923009F407C112962D903C901397EB0141
:100170008A819B811496AD90BD90CD90DC901797AD
:10018000EC80FD800E811F819101281B390BB90184
:1001900037FF04C066277727621B730B6032710537
:1001A0000CF061C0121613066CF537014801062EDB
:1001B00004C096948794779467940A94D2F721E0C8
:1001C00030E040E050E004C0220F331F441F551FB1
:1001D0006A95D2F721503040404050402E213F21B7
:1001E00040235123211531054105510521F021E01E
:1001F00030E040E050E079018A01E628F72808293C
:1002000019293CC0232BD1F1260E371E350146019A
:10021000062E04C096948794779467940A94D2F734
:1002200021E030E040E050E004C0220F331F441FC3
:10023000551F6A95D2F721503040404050402A2146
:100240003B214C215D21211531054105510521F04E
:1002500021E030E040E050E059016A01A628B728CB
:10026000C828D9280BC0821593052CF01C01AA249C
:10027000BB24650103C0EE24FF24870111969C91E5
:10028000D20111968C91981709F445C0992339F041
:10029000A80197012A193B094C095D0906C0A6016E
:1002A00095012E193F09400B510B57FD08C01182D3
:1002B0003382228224833583468357831DC081E0A5
:1002C00081833382228288279927DC01821B930B4A
:1002D000A40BB50B84839583A683B7830DC0220F2F
:1002E000331F441F551F24833583468357838281E0
:1002F000938101979383828324813581468157813D
:10030000DA01C9010197A109B1098F5F9F4FAF4F72
:10031000BF4328F30BC0918333822282EA0CFB1C7B
:100320000C1D1D1DE482F5820683178383E0808304
:10033000248135814681578157FF1AC0C901AA27F8
:1003400097FDA095BA2F81709070A070B0705695EF
:10035000479537952795822B932BA42BB52B848318
:100360009583A683B7838281938101969383828349
:10037000DF0101C0D201CD01CDB7DEB7E2E10C94BF
:10038000EA28A0E2B0E0E7ECF1E00C94DA28698317
:100390007A838B839C832D833E834F835887E9E048
:1003A000EE2EF12CEC0EFD1ECE010196B7010E943F
:1003B000A4068E010F5E1F4FCE010596B8010E9464
:1003C000A4068A8991E089278A8BC701B801AE010A
:1003D000475E5F4F0E9475000E94CF05A096E6E041
:1003E0000C94F628A0E2B0E0E8EFF1E00C94DA28F3
:1003F00069837A838B839C832D833E834F835887C5
:10040000F9E0EF2EF12CEC0EFD1ECE010196B701A6
:100410000E94A4068E010F5E1F4FCE010596B80103
:100420000E94A406C701B801AE01475E5F4F0E945B
:1004300075000E94CF05A096E6E00C94F628A0E295
:10044000B0E0E5E2F2E00C94CE2869837A838B83F6
:100450009C832D833E834F835887CE010196BE0136
:10046000675F7F4F0E94A406CE010596BE016F5EB6
:100470007F4F0E94A4069985923088F08989823046
:10048000C8F0943019F4823051F404C0843029F457
:10049000923081F480E690E0C6C0923049F420E0CA
:1004A0009A858A89981321E02A87CE010996BBC0D4
:1004B000823049F420E09A858A89981321E02A8BBA
:1004C000CE014196B0C02D843E844F8458886D88FB
:1004D0007E888F88988CEE24FF248701AA24BB2471
:1004E000650140E050E060E070E0E0E0F0E0C10174
:1004F00081709070892BE9F0E60CF71C081D191D1E
:100500009A01AB012A0D3B1D4C1D5D1D80E090E062
:10051000A0E0B0E0E614F7040805190520F481E036
:1005200090E0A0E0B0E0BA01A901480F591F6A1F8E
:100530007B1FAA0CBB1CCC1CDD1C97FE08C081E0F5
:1005400090E0A0E0B0E0A82AB92ACA2ADB2A3196B6
:10055000E032F10549F0660C771C881C991C569412
:10056000479437942794C3CFFA85EA892B893C892D
:100570008B859C85280F391F2E5F3F4F17C0CA01FE
:1005800081709070892B61F016950795F794E79428
:1005900080E090E0A0E0B0E8E82AF92A0A2B1B2BC3
:1005A00076956795579547952F5F3F4F77FDE7CF36
:1005B0000CC0440F551F661F771F17FD4160EE0CDE
:1005C000FF1C001F111F21503040403090E05907A0
:1005D00090E0690790E4790760F32B8F3C8FDB0193
:1005E000CA018F779070A070B07080349105A1051A
:1005F000B10561F447FD0AC0E114F10401051105DC
:1006000029F0405C5F4F6F4F7F4F40781A8EFE1786
:1006100011F081E08A8F4D8F5E8F6F8F78A383E01A
:10062000898FCE0149960E94CF05A096E2E10C94F5
:10063000EA28A8E1B0E0EFE1F3E00C94D628698362
:100640007A838B839C832D833E834F835887B9E0C5
:10065000EB2EF12CEC0EFD1ECE010196B7010E948F
:10066000A4068E010F5E1F4FCE010596B8010E94B1
:10067000A4062985223008F47EC03989323010F46E
:10068000B8017CC08A859A8989278A87243011F02D
:10069000223031F4231709F06EC060E670E06EC0BE
:1006A000343039F41D861E861F86188A1C861B86E8
:1006B00004C0323021F484E08987B7015FC02B8504
:1006C0003C858B899C89281B390B3C872B87ED84C3
:1006D000FE840F851889AD88BE88CF88D88CEA142F
:1006E000FB040C051D0540F4EE0CFF1C001F111F40
:1006F000215030403C872B8720E030E040E050E044
:1007000080E090E0A0E0B0E460E070E0EA14FB0478
:100710000C051D0540F0282B392B4A2B5B2BEA18C2
:10072000FB080C091D09B695A79597958795EE0CC2
:10073000FF1C001F111F6F5F7F4F6F31710531F775
:10074000DA01C9018F779070A070B0708034910584
:10075000A105B10561F427FD0AC0E114F10401050A
:10076000110529F0205C3F4F4F4F5F4F20782D87B8
:100770003E874F87588BBE01675F7F4FCB010E943A
:10078000CF056896EAE00C94F228A8E1B0E0EBEC23
:10079000F3E00C94DA2869837A838B839C832D831E
:1007A0003E834F83588789E0E82EF12CEC0EFD1E26
:1007B000CE010196B7010E94A4068E010F5E1F4F65
:1007C000CE010596B8010E94A4068985823040F0CA
:1007D0008989823028F0C701B8010E941C0701C036
:1007E0008FEF6896E6E00C94F628A8E1B0E0EBEF16
:1007F000F3E00C94DA2869837A838B839C832D83BE
:100800003E834F83588789E0E82EF12CEC0EFD1EC5
:10081000CE010196B7010E94A4068E010F5E1F4F04
:10082000CE010596B8010E94A4068985823040F069
:100830008989823028F0C701B8010E941C0701C0D5
:100840008FEF6896E6E00C94F628A8E1B0E0EBE2C2
:10085000F4E00C94DA2869837A838B839C832D835C
:100860003E834F83588789E0E82EF12CEC0EFD1E65
:10087000CE010196B7010E94A4068E010F5E1F4FA4
:10088000CE010596B8010E94A4068985823040F009
:100890008989823028F0C701B8010E941C0701C075
:1008A00081E06896E6E00C94F628A8E0B0E0EBE57D
:1008B000F4E00C94D7289B01AC0183E08983DA0132
:1008C000C9018827B7FD83959927AA27BB27B82E8A
:1008D000211531054105510519F482E089833AC09B
:1008E0008823A9F0203080E0380780E0480780E8BE
:1008F000580729F460E070E080E09FEC30C0EE24FF
:10090000FF248701E21AF30A040B150B02C07901D8
:100910008A018EE1C82ED12CDC82CB82ED82FE8250
:100920000F831887C801B7010E9480050197181628
:10093000190684F4082E04C0EE0CFF1C001F111FC2
:100940000A94D2F7ED82FE820F831887C81AD90A5B
:10095000DC82CB82BA82CE0101960E94CF05289616
:10096000E9E00C94F328ACE0B0E0E9EBF4E00C949F
:10097000DE2869837A838B839C83CE010196BE0136
:100980006B5F7F4F0E94A4068D81823061F18230BF
:1009900050F1843021F48E81882351F12EC02F81B3
:1009A000388537FD20C06E812F3131051CF066235C
:1009B000F9F023C08EE190E0821B930B29853A85E4
:1009C0004B855C8504C056954795379527958A9544
:1009D000D2F76623B1F050954095309521953F4F61
:1009E0004F4F5F4F0EC020E030E040E050E009C0C4
:1009F0002FEF3FEF4FEF5FE704C020E030E040E033
:100A000050E8B901CA012C96E2E00C94FA28A8E05B
:100A1000B0E0EDE0F5E00C94D6287B018C01611587
:100A200071058105910519F482E0898360C083E036
:100A300089838EE1C82ED12CDC82CB82ED82FE82AE
:100A40000F831887C801B7010E948005FC01319708
:100A5000F7FF3BC0222733272E1B3F0B57016801AE
:100A6000022E04C0D694C794B794A7940A94D2F7E0
:100A700040E050E060E070E081E090E0A0E0B0E0B5
:100A800004C0880F991FAA1FBB1F2A95D2F7019790
:100A9000A109B1098E219F21A023B1230097A105AF
:100AA000B10521F041E050E060E070E04A295B29A7
:100AB0006C297D294D835E836F8378878EE190E07A
:100AC0008E1B9F0B9C838B8312C0309781F00E2E60
:100AD00004C0EE0CFF1C001F111F0A94D2F7ED8218
:100AE000FE820F831887CE1ADF0ADC82CB821A823D
:100AF000CE0101960E94CF052896EAE00C94F228D8
:100B0000EF92FF920F931F937B018C0180E0E81618
:100B100080E0F80681E0080780E0180788F48FEF8E
:100B2000E816F1040105110531F028F088E090E0A5
:100B3000A0E0B0E017C080E090E0A0E0B0E012C01C
:100B400080E0E81680E0F80680E0080781E01807FA
:100B500028F088E190E0A0E0B0E004C080E190E0FF
:100B6000A0E0B0E020E230E040E050E0281B390B8C
:100B70004A0B5B0B04C016950795F794E7948A958A
:100B8000D2F7F701E859FF4F8081281B310941094D
:100B90005109C9011F910F91FF90EF900895DF92C5
:100BA000EF92FF920F931F93FC01E480F580068182
:100BB0001781D1808081823048F480E090E0A0E10C
:100BC000B0E0E82AF92A0A2B1B2BA5C0843009F4CF
:100BD0009FC0823021F4EE24FF24870105C0E11478
:100BE000F1040105110519F4E0E0F0E096C062811E
:100BF00073819FEF623879070CF05BC022E83FEF0A
:100C0000261B370B2A3131052CF020E030E040E084
:100C100050E02AC0B801A701022E04C0769567955E
:100C2000579547950A94D2F781E090E0A0E0B0E0B4
:100C300004C0880F991FAA1FBB1F2A95D2F70197DE
:100C4000A109B1098E219F21A023B1230097A105FD
:100C5000B10521F081E090E0A0E0B0E09A01AB01A5
:100C6000282B392B4A2B5B2BDA01C9018F77907027
:100C7000A070B07080349105A105B10539F427FF4B
:100C800009C0205C3F4F4F4F5F4F04C0215C3F4F76
:100C90004F4F5F4FE0E0F0E02030A0E03A07A0E0E7
:100CA0004A07A0E45A0710F0E1E0F0E079018A0178
:100CB00027C06038710564F5FB01E158FF4FD8018A
:100CC000C7018F779070A070B07080349105A10536
:100CD000B10539F4E7FE0DC080E490E0A0E0B0E09B
:100CE00004C08FE390E0A0E0B0E0E80EF91E0A1F18
:100CF0001B1F17FF05C016950795F794E7943196CB
:100D000087E016950795F794E7948A95D1F705C083
:100D1000EE24FF248701EFEFF0E06E2F6795662742
:100D20006795902F9F77D794DD24D7948E2F869543
:100D3000492F462B582F5D29B701CA011F910F91EA
:100D4000FF90EF90DF900895FC01DB01408151811D
:100D50002281622F6F7770E0221F2227221F93814A
:100D6000892F880F822B282F30E0991F9927991FF0
:100D700011969C93119721153105A9F5411551053F
:100D80006105710511F482E037C082E89FEF139688
:100D90009C938E9312979A01AB0167E0220F331F49
:100DA000441F551F6A95D1F783E08C930DC0220F25
:100DB000331F441F551F12968D919C9113970197D5
:100DC00013969C938E931297203080E0380780E032
:100DD000480780E4580758F314962D933D934D939C
:100DE0005C93179708952F3F310579F4411551050C
:100DF0006105710519F484E08C93089564FF03C0C4
:100E000081E08C9312C01C9210C02F573040139673
:100E10003C932E93129783E08C9387E0440F551FE9
:100E2000661F771F8A95D1F7706414964D935D9372
:100E30006D937C93179708951F93DC01FB019C91A0
:100E4000923008F447C08081823008F443C0943067
:100E500051F411961C91843099F58181682F70E0CE
:100E6000611B71093FC0843021F0923031F482302F
:100E7000B9F18181882389F12DC011961C911197B8
:100E80008230F1F081811817D9F412962D913C919E
:100E90001397828193818217930794F0281739075B
:100EA000BCF014968D919D910D90BC91A02D248144
:100EB000358146815781281739074A075B0718F49F
:100EC000112341F00AC082179307A407B50740F425
:100ED000112319F061E070E005C06FEF7FEF02C0F1
:100EE00060E070E0CB011F910895DF93CF93CDB701
:100EF000DEB72A970FB6F894DEBF0FBECDBF9B8337
:100F00008A8381E089838A819B81009719F481E03B
:100F10008983BBC08A819B8122E232E03F832E839A
:100F20009987888735E03A87E885F98500802885A4
:100F300039852F5F3F4F39872887EE81FF810082F7
:100F40002E813F812F5F3F4F3F832E833A85315063
:100F50003A878A85882341F7EA81FB818081843042
:100F600008F05EC01982EA81FB818081E82FF0E001
:100F7000FD83EC832C813D812130310521F18C8171
:100F80009D81823091052CF4EC81FD81309761F0D8
:100F900049C02C813D812230310521F18C819D8118
:100FA0008330910571F13EC0A3E5B0E0E3E5F0E0E8
:100FB00080818F7B8C93A3E5B0E0E3E5F0E0808156
:100FC000877F8C932FC0A3E5B0E0E3E5F0E080815C
:100FD00080648C93A3E5B0E0E3E5F0E08081877F57
:100FE0008C9320C0A3E5B0E0E3E5F0E080818F7B47
:100FF0008C93A3E5B0E0E3E5F0E0808188608C931A
:1010000011C0A3E5B0E0E3E5F0E0808180648C935B
:10101000A3E5B0E0E3E5F0E0808188608C9302C056
:1010200081E08983EA81FB818181883058F4A3E5DE
:10103000B0E0E3E5F0E09081EA81FB818181892BDA
:101040008C9302C081E08983A3E5B0E0E3E5F0E0A2
:101050008081282FEA81FB818281882F90E0829510
:101060009295907F9827807F9827822B8C93A9E573
:10107000B0E0E9E5F0E02081EA81FB819381EA813B
:10108000FB818481892B822B8C9389812A960FB6D0
:10109000F894DEBF0FBECDBFCF91DF910895DF93EF
:1010A000CF93CDB7DEB7A3E5B0E0E3E5F0E0808114
:1010B0008E7F8C93A3E5B0E0E3E5F0E080818D7F47
:1010C0008C93A3E5B0E0E3E5F0E080818B7F8C9327
:1010D00080E0CF91DF910895DF93CF9300D0CDB71B
:1010E000DEB79A838983ECE5F0E08081E981FA81BB
:1010F000808380E00F900F90CF91DF910895DF9370
:10110000CF930F92CDB7DEB78983ECE5F0E089810C
:10111000808380E00F90CF91DF910895DF93CF938C
:1011200000D0CDB7DEB79A838983E2E5F0E0808115
:10113000E981FA81808380E00F900F90CF91DF9159
:101140000895DF93CF930F92CDB7DEB78983E2E5A1
:10115000F0E08981808380E00F90CF91DF91089546
:10116000DF93CF9300D0CDB7DEB79A838983809188
:10117000FD019091FE01A091FF01B0910002E98173
:10118000FA81808380E00F900F90CF91DF910895D6
:101190000F931F93DF93CF9300D000D00F92CDB762
:1011A000DEB76A837B838C839D83809122028330A8
:1011B00029F080912202813009F057C080912402E9
:1011C000823011F50CE510E06A817B818C819D8174
:1011D00020E030E048EC52E40E941903DC01CB012E
:1011E000BC01CD0120E030E040E853E40E941F0242
:1011F000DC01CB01BC01CD010E944900DC01CB0127
:101200008150F80180832FC080912402833059F5EA
:101210000CE510E06A817B818C819D8120E030E0CB
:1012200040E853E40E941F02DC01CB01BC01CD0168
:1012300020E030E048EC52EC0E941903DC01CB01C5
:10124000BC01CD0120E030E040E853E40E94F2010F
:10125000DC01CB01BC01CD010E944900DC01CB01C6
:101260008150F8018083198202C081E089838981DD
:101270000F900F900F900F900F90CF91DF911F91D3
:101280000F910895DF93CF93CDB7DEB767970FB671
:10129000F894DEBF0FBECDBF6D877E878F87988B9A
:1012A0009E01285F3F4F3C8B2B8B85ED91E09E8B01
:1012B0008D8B95E09F8BED89FE8900802D893E897D
:1012C0002F5F3F4F3E8B2D8BEB89FC8900822B8952
:1012D0003C892F5F3F4F3C8B2B8B3F8931503F8B9D
:1012E0008F89882341F7CE0108960E9475071F82D7
:1012F0001E828985E82FF0E0FA8BE98B29893A89EB
:101300002330310549F189899A89843091057CF42B
:10131000E989FA89E130F10549F129893A892230D0
:101320003105FCF489899A89009729F126C0E98959
:10133000FA89E530F10531F029893A8925303105FE
:1013400034F01BC080E094E09F838E8316C080E061
:1013500091E09F838E8311C080E490E09F838E8311
:101360000CC088E090E09F838E8307C081E090E00E
:101370009F838E8302C01F821E828E819F81CC013B
:10138000A0E0B0E028EE33E040E050E0BC01CD0149
:101390000E9479289B01AC0180E094E2A4EFB0E0C8
:1013A000BC01CD010E94AC28DA01C9012D853E8522
:1013B0004F855889BC01CD010E947928DC01CB0101
:1013C0008A839B83AC83BD838A819B81AC81BD81F1
:1013D000892F9A2FAB2FBB278093FD019093FE019D
:1013E000A093FF01B09300028A81898380E00E946C
:1013F000A1088091FD019091FE01A091FF01B091A3
:1014000000020097A105B105A1F7E2E5F0E09081A7
:1014100089819817D0F30E944F08A9E5B0E0E9E56B
:10142000F0E080818E7F8C9367960FB6F894DEBFD4
:101430000FBECDBFCF91DF910895DF93CF9300D042
:10144000CDB7DEB79A83898389819A819093F90118
:101450008093F8010F900F90CF91DF910895DF9363
:10146000CF9300D0CDB7DEB79A83898389819A81E3
:101470009093FB018093FA010F900F90CF91DF9131
:101480000895DF93CF93CDB7DEB72A970FB6F894C0
:10149000DEBF0FBECDBF9B838A8381E089838A81B3
:1014A0009B81009719F481E08983EAC08A819B813E
:1014B00027E232E03F832E839987888738E03A8796
:1014C000E885F9850080288539852F5F3F4F39876A
:1014D0002887EE81FF8100822E813F812F5F3F4F61
:1014E0003F832E833A8531503A878A85882341F796
:1014F000EA81FB818081833008F06FC01982EA8124
:10150000FB818081E82FF0E0FD83EC832C813D811D
:101510002130310541F18C819D818230910509F4A2
:101520003FC0EC81FD81309709F059C0AFE4B0E0D5
:10153000EFE4F0E080818E7F8C93AFE4B0E0EFE4E5
:10154000F0E080818D7F8C93AEE4B0E0EEE4F0E0DB
:101550008081877F8C93AEE4B0E0EEE4F0E08081A0
:101560008F7E8C933CC0AFE4B0E0EFE4F0E080818C
:101570008E7F8C93AFE4B0E0EFE4F0E08081826096
:101580008C93AEE4B0E0EEE4F0E0808188608C9370
:10159000AEE4B0E0EEE4F0E0808180618C931FC0A7
:1015A000AFE4B0E0EFE4F0E0808181608C93AFE4E1
:1015B000B0E0EFE4F0E0808182608C93AEE4B0E0D4
:1015C000EEE4F0E0808188608C93AEE4B0E0EEE47D
:1015D000F0E0808180618C9302C081E08983EA81A0
:1015E000FB818181883058F4AEE4B0E0EEE4F0E0B5
:1015F0009081EA81FB818181892B8C9302C081E0FB
:101600008983AFE4B0E0EFE4F0E08081282FEA8145
:10161000FB818281882F90E000249695879507941E
:10162000969587950794982F802D822B8C93AFE405
:10163000B0E0EFE4F0E08081282FEA81FB81838134
:10164000882F90E082959295907F9827807F9827A9
:10165000822B8C93A9E5B0E0E9E5F0E02081EA81F6
:10166000FB819481EA81FB818581982BEA81FB8152
:101670008681982BEA81FB818781892B822B8C9331
:1016800089812A960FB6F894DEBF0FBECDBFCF91E9
:10169000DF910895DF93CF93CDB7DEB7AEE4B0E02E
:1016A000EEE4F0E080818E7F8C93AEE4B0E0EEE477
:1016B000F0E080818D7F8C93AEE4B0E0EEE4F0E06A
:1016C00080818B7F8C9380E0CF91DF9108951F9272
:1016D0000F920FB60F9211248F939F93AF93BF93E6
:1016E000EF93FF93DF93CF93CDB7DEB78091FD01EA
:1016F0009091FE01A091FF01B09100020097A10519
:10170000B105A1F08091FD019091FE01A091FF0132
:10171000B09100020197A109B1098093FD01909356
:10172000FE01A093FF01B093000207C0A9E5B0E05D
:10173000E9E5F0E080818E7F8C93CF91DF91FF917E
:10174000EF91BF91AF919F918F910F900FBE0F902E
:101750001F9018951F920F920FB60F9211242F937E
:101760003F934F935F936F937F938F939F93AF9329
:10177000BF93EF93FF93DF93CF93CDB7DEB7809105
:10178000FA019091FB01009729F0E091FA01F091A4
:10179000FB010995CF91DF91FF91EF91BF91AF913F
:1017A0009F918F917F916F915F914F913F912F9179
:1017B0000F900FBE0F901F901895DF93CF9300D01E
:1017C000CDB7DEB79A838983E981FA818081803140
:1017D00009F0D8C081E067E041E00E94CE0F81E0CF
:1017E00065E041E00E94CE0F81E064E041E00E94AC
:1017F000CE0F81E066E040E00E94CE0FADE2B0E0A7
:10180000EDE2F0E0808180618C93E981FA8184814E
:101810008823B1F4ADE2B0E0EDE2F0E080818E7FAC
:101820008C93ADE2B0E0EDE2F0E080818D7F8C93AF
:10183000AEE2B0E0EEE2F0E080818E7F8C93BDC03E
:10184000E981FA8184818130B1F4ADE2B0E0EDE26A
:10185000F0E0808181608C93ADE2B0E0EDE2F0E0F9
:1018600080818D7F8C93AEE2B0E0EEE2F0E080818B
:101870008E7F8C93A2C0E981FA8184818230B1F499
:10188000ADE2B0E0EDE2F0E080818E7F8C93ADE2DE
:10189000B0E0EDE2F0E0808182608C93AEE2B0E0F7
:1018A000EEE2F0E080818E7F8C9387C0E981FA813F
:1018B00084818330B1F4ADE2B0E0EDE2F0E080810C
:1018C00081608C93ADE2B0E0EDE2F0E08081826077
:1018D0008C93AEE2B0E0EEE2F0E080818E7F8C93FC
:1018E0006CC0E981FA8184818430B1F4ADE2B0E06A
:1018F000EDE2F0E080818E7F8C93ADE2B0E0EDE22E
:10190000F0E080818D7F8C93AEE2B0E0EEE2F0E01B
:10191000808181608C9351C0E981FA818481853016
:10192000B1F4ADE2B0E0EDE2F0E0808181608C9353
:10193000ADE2B0E0EDE2F0E080818D7F8C93AEE22D
:10194000B0E0EEE2F0E0808181608C9336C0E98106
:10195000FA818481863089F5ADE2B0E0EDE2F0E015
:1019600080818E7F8C93ADE2B0E0EDE2F0E080818B
:1019700082608C93AEE2B0E0EEE2F0E080818160C4
:101980008C931BC081E066E041E00E94CE0F81E0B5
:1019900067E040E00E94CE0F81E065E040E00E94F9
:1019A000CE0F81E064E040E00E94CE0FADE2B0E0F7
:1019B000EDE2F0E080818F7E8C93ADE2B0E0EDE26D
:1019C000F0E09081E981FA818281892B8C93ADE2EC
:1019D000B0E0EDE2F0E09081E981FA818381892B2A
:1019E0008C93ADE2B0E0EDE2F0E09081E981FA8124
:1019F0008181892B8C93E981FA818581882339F053
:101A0000ADE2B0E0EDE2F0E0808180688C93E981A6
:101A1000FA81868197819093030280930202ADE25E
:101A2000B0E0EDE2F0E0808180648C930F900F9045
:101A3000CF91DF910895DF93CF930F92CDB7DEB7AB
:101A40008983EFE2F0E089818083EEE2F0E080813B
:101A50008823DCF7EFE2F0E080810F90CF91DF91F7
:101A60000895DF93CF93CDB7DEB7EEE2F0E080814B
:101A70008823DCF7EFE2F0E08081CF91DF910895D9
:101A8000DF93CF930F92CDB7DEB78983EFE2F0E01B
:101A900089818083EEE2F0E080818823DCF70F907B
:101AA000CF91DF9108951F920F920FB60F921124DC
:101AB0002F933F934F935F936F937F938F939F9356
:101AC000AF93BF93EF93FF93DF93CF93CDB7DEB781
:101AD0008091020290910302009729F0E0910202A6
:101AE000F09103020995CF91DF91FF91EF91BF91A2
:101AF000AF919F918F917F916F915F914F913F91A6
:101B00002F910F900FBE0F901F901895DF93CF93DA
:101B100000D000D00F92CDB7DEB789837B836A8374
:101B20008981282F30E03D832C838C819D818130F9
:101B3000910581F02C813D812230310591F08C811D
:101B40009D810097A1F48A819B81909305028093E7
:101B500004020DC08A819B81909307028093060244
:101B600006C08A819B8190930902809308020F909E
:101B70000F900F900F900F90CF91DF910895DF930A
:101B8000CF9300D00F92CDB7DEB789838981282FFC
:101B900030E03B832A838A819B818130910589F0E3
:101BA0002A813B8122303105A1F08A819B810097F7
:101BB000B9F4ABE5B0E0EBE5F0E0808180648C93B4
:101BC0000FC0ABE5B0E0EBE5F0E0808180688C937E
:101BD00007C0ABE5B0E0EBE5F0E0808180628C937C
:101BE0000F900F900F90CF91DF910895DF93CF93D7
:101BF00000D00F92CDB7DEB789838981282F30E0DE
:101C00003B832A838A819B818130910589F02A81D7
:101C10003B8122303105A1F08A819B810097B9F484
:101C2000ABE5B0E0EBE5F0E080818F7B8C930FC0FB
:101C3000ABE5B0E0EBE5F0E080818F778C9307C0F7
:101C4000ABE5B0E0EBE5F0E080818F7D8C930F9009
:101C50000F900F90CF91DF910895DF93CF93CDB781
:101C6000DEB72A970FB6F894DEBF0FBECDBF8983CB
:101C70006A838981282F30E03A87298789859A8568
:101C80008130910509F466C029853A8522303105F5
:101C900009F4BBC089859A85009709F0DDC08A8167
:101CA000282F30E038872F838F81988581309105E8
:101CB00021F12F813885223031052CF48F819885D0
:101CC000009761F0C9C02F8138852230310521F19C
:101CD0008F8198858330910571F1BEC0A5E5B0E094
:101CE000E5E5F0E080818E7F8C93A5E5B0E0E5E549
:101CF000F0E080818D7F8C93AFC0A5E5B0E0E5E595
:101D0000F0E0808181608C93A5E5B0E0E5E5F0E04E
:101D100080818D7F8C93A0C0A5E5B0E0E5E5F0E083
:101D200080818E7F8C93A5E5B0E0E5E5F0E08081D1
:101D300082608C9391C0A5E5B0E0E5E5F0E080819C
:101D400081608C93A5E5B0E0E5E5F0E080818260FC
:101D50008C9382C08A81282F30E03E832D838D8131
:101D60009E818130910521F12D813E812230310506
:101D70002CF48D819E81009761F06EC02D813E8193
:101D80002230310521F18D819E818330910571F1E1
:101D900063C0A5E5B0E0E5E5F0E080818B7F8C9342
:101DA000A5E5B0E0E5E5F0E08081877F8C9354C045
:101DB000A5E5B0E0E5E5F0E0808184608C93A5E5E1
:101DC000B0E0E5E5F0E08081877F8C9345C0A5E534
:101DD000B0E0E5E5F0E080818B7F8C93A5E5B0E095
:101DE000E5E5F0E0808188608C9336C0A5E5B0E041
:101DF000E5E5F0E0808184608C93A5E5B0E0E5E561
:101E0000F0E0808188608C9327C08A81282F30E0A1
:101E10003C832B838B819C818230910531F02B8117
:101E20003C812330310549F010C0A4E5B0E0E4E581
:101E3000F0E080818F7B8C930FC0A4E5B0E0E4E5F7
:101E4000F0E0808180648C9307C0A4E5B0E0E4E515
:101E5000F0E080818F7B8C932A960FB6F894DEBFDA
:101E60000FBECDBFCF91DF9108951F920F920FB695
:101E70000F9211242F933F934F935F936F937F9310
:101E80008F939F93AF93BF93EF93FF93DF93CF9382
:101E9000CDB7DEB78091040290910502009729F03A
:101EA000E0910402F09105020995CF91DF91FF9135
:101EB000EF91BF91AF919F918F917F916F915F91C2
:101EC0004F913F912F910F900FBE0F901F9018953B
:101ED0001F920F920FB60F9211242F933F934F939F
:101EE0005F936F937F938F939F93AF93BF93EF9382
:101EF000FF93DF93CF93CDB7DEB780910602909129
:101F00000702009729F0E0910602F0910702099577
:101F1000CF91DF91FF91EF91BF91AF919F918F9101
:101F20007F916F915F914F913F912F910F900FBED5
:101F30000F901F9018951F920F920FB60F921124B9
:101F40002F933F934F935F936F937F938F939F93C1
:101F5000AF93BF93EF93FF93DF93CF93CDB7DEB7EC
:101F60008091080290910902009729F0E0910802FF
:101F7000F09109020995CF91DF91FF91EF91BF9107
:101F8000AF919F918F917F916F915F914F913F9111
:101F90002F910F900FBE0F901F901895DF93CF9346
:101FA00000D000D0CDB7DEB789836A834B838A81A6
:101FB000883018F081E08C83D8C08981882391F51E
:101FC0008B818130A1F4AAE3B0E0EAE3F0E0808104
:101FD000482F8A81282F30E081E090E0022E02C055
:101FE000880F991F0A94E2F7842B8C93BDC08B81D4
:101FF0008823A9F4AAE3B0E0EAE3F0E08081482F67
:102000008A81282F30E081E090E0022E02C0880F04
:10201000991F0A94E2F7809584238C93A5C081E0F0
:102020008C83A3C08981813091F58B818130A1F4AB
:10203000A7E3B0E0E7E3F0E08081482F8A81282F12
:1020400030E081E090E0022E02C0880F991F0A94D0
:10205000E2F7842B8C9388C08B818823A9F4A7E3B3
:10206000B0E0E7E3F0E08081482F8A81282F30E05C
:1020700081E090E0022E02C0880F991F0A94E2F7D7
:10208000809584238C9370C081E08C836EC089819D
:10209000823091F58B818130A1F4A4E3B0E0E4E3D8
:1020A000F0E08081482F8A81282F30E081E090E0A5
:1020B000022E02C0880F991F0A94E2F7842B8C939A
:1020C00053C08B818823A9F4A4E3B0E0E4E3F0E0FB
:1020D0008081482F8A81282F30E081E090E0022E15
:1020E00002C0880F991F0A94E2F7809584238C938D
:1020F0003BC081E08C8339C08981833091F58B812D
:102100008130A1F4A1E3B0E0E1E3F0E08081482F69
:102110008A81282F30E081E090E0022E02C0880FF3
:10212000991F0A94E2F7842B8C931EC08B8188231D
:10213000A9F4A1E3B0E0E1E3F0E08081482F8A81D7
:10214000282F30E081E090E0022E02C0880F991F16
:102150000A94E2F7809584238C9306C081E08C83F7
:1021600004C081E08C8301C01C828C810F900F9091
:102170000F900F90CF91DF910895DF93CF9300D010
:1021800000D0CDB7DEB789836A834B838A818830DC
:1021900018F081E08C83D8C08981882391F58B81E8
:1021A0008130A1F4ABE3B0E0EBE3F0E08081482FB5
:1021B0008A81282F30E081E090E0022E02C0880F53
:1021C000991F0A94E2F7842B8C93BDC08B818823DE
:1021D000A9F4ABE3B0E0EBE3F0E08081482F8A8123
:1021E000282F30E081E090E0022E02C0880F991F76
:1021F0000A94E2F7809584238C93A5C081E08C83B8
:10220000A3C08981813091F58B818130A1F4A8E34D
:10221000B0E0E8E3F0E08081482F8A81282F30E0A9
:1022200081E090E0022E02C0880F991F0A94E2F725
:10223000842B8C9388C08B818823A9F4A8E3B0E019
:10224000E8E3F0E08081482F8A81282F30E081E0A8
:1022500090E0022E02C0880F991F0A94E2F7809541
:1022600084238C9370C081E08C836EC0898182301E
:1022700091F58B818130A1F4A5E3B0E0E5E3F0E0D6
:102280008081482F8A81282F30E081E090E0022E63
:1022900002C0880F991F0A94E2F7842B8C9353C0D5
:1022A0008B818823A9F4A5E3B0E0E5E3F0E0808129
:1022B000482F8A81282F30E081E090E0022E02C072
:1022C000880F991F0A94E2F7809584238C933BC072
:1022D00081E08C8339C08981833091F58B81813095
:1022E000A1F4A2E3B0E0E2E3F0E08081482F8A812C
:1022F000282F30E081E090E0022E02C0880F991F65
:102300000A94E2F7842B8C931EC08B818823A9F456
:10231000A2E3B0E0E2E3F0E08081482F8A81282F39
:1023200030E081E090E0022E02C0880F991F0A94ED
:10233000E2F7809584238C9306C081E08C8304C0EF
:1023400081E08C8301C01C828C810F900F900F90D4
:102350000F90CF91DF910895DF93CF9300D000D0FD
:102360000F92CDB7DEB789836A835C834B838A8102
:10237000883018F041E04D8360C089818823A1F442
:10238000E9E3F0E08081282F30E08A81882F90E017
:10239000A90102C0559547958A95E2F7CA01817057
:1023A000EB81FC81808348C089818130A1F4E6E320
:1023B000F0E08081282F30E08A81882F90E0A90109
:1023C00002C0559547958A95E2F7CA018170EB8165
:1023D000FC81808331C089818230A1F4E3E3F0E0A5
:1023E0008081282F30E08A81882F90E0A90102C0E7
:1023F000559547958A95E2F7CA018170EB81FC817A
:1024000080831AC089818330A1F4E0E3F0E0808109
:10241000282F30E08A81882F90E0A90102C05595CD
:1024200047958A95E2F7CA018170EB81FC81808330
:1024300003C051E05D8301C01D828D810F900F901C
:102440000F900F900F90CF91DF910895DF93CF936E
:1024500000D000D00F92CDB7DEB789836A838A811E
:10246000813031F08A81813019F021E02D8353C011
:102470008981282F30E03C832B838B819C818130A4
:10248000910509F12B813C81223031052CF48B819F
:102490009C81009761F03BC02B813C81223031054B
:1024A000F1F08B819C818330910529F130C08A81C4
:1024B000813029F4EAE3F0E08FEF80832BC0EAE378
:1024C000F0E0108227C08A81813029F4E7E3F0E050
:1024D0008FEF80831FC0E7E3F0E010821BC08A818A
:1024E000813029F4E4E3F0E08FEF808313C0E4E36C
:1024F000F0E010820FC08A81813029F4E1E3F0E03E
:102500008FEF808307C0E1E3F0E0108203C091E029
:102510009D8301C01D828D810F900F900F900F90B1
:102520000F90CF91DF910895DF93CF9300D000D02B
:102530000F92CDB7DEB789836A838A81813031F00B
:102540008A81882319F021E02D8353C08981282FA7
:1025500030E03C832B838B819C818130910509F194
:102560002B813C81223031052CF48B819C8100979A
:1025700061F03BC02B813C8122303105F1F08B8131
:102580009C818330910529F130C08A81813029F402
:10259000EBE3F0E08FEF80832BC0EBE3F0E0108201
:1025A00027C08A81813029F4E8E3F0E08FEF80834F
:1025B0001FC0E8E3F0E010821BC08A81813029F45B
:1025C000E5E3F0E08FEF808313C0E5E3F0E01082F5
:1025D0000FC08A81813029F4E2E3F0E08FEF80833D
:1025E00007C0E2E3F0E0108203C091E09D8301C0E8
:1025F0001D828D810F900F900F900F900F90CF91B3
:10260000DF910895DF93CF9300D00F92CDB7DEB75F
:1026100089836A838A81883018F081E08B8360C067
:1026200089818823A1F4ABE3B0E0EBE3F0E08081A3
:10263000482F8A81282F30E081E090E0022E02C0EE
:10264000880F991F0A94E2F784278C9348C08981E8
:102650008130A1F4A8E3B0E0E8E3F0E08081482F06
:102660008A81282F30E081E090E0022E02C0880F9E
:10267000991F0A94E2F784278C9331C089818230B4
:10268000A1F4A5E3B0E0E5E3F0E08081482F8A8182
:10269000282F30E081E090E0022E02C0880F991FC1
:1026A0000A94E2F784278C931AC089818330A1F4BD
:1026B000A2E3B0E0E2E3F0E08081482F8A81282F96
:1026C00030E081E090E0022E02C0880F991F0A944A
:1026D000E2F784278C9303C081E08B8301C01B82C7
:1026E0008B810F900F900F90CF91DF910895DF9322
:1026F000CF9300D0CDB7DEB71A8219821A82198221
:10270000A3C289819A81880F991F880F991FFC01A4
:10271000E859FE4F8081882309F09BC089819A8106
:10272000880F991F0196880F991FFC01E859FE4FE9
:1027300080818130E9F4AAE3B0E0EAE3F0E080814F
:10274000482F89819A81880F991F880F991FFC0152
:10275000E759FE4F8081282F30E081E090E0022E83
:1027600002C0880F991F0A94E2F7842B8C9367C2EA
:10277000AAE3B0E0EAE3F0E08081482F89819A8102
:10278000880F991F880F991FFC01E759FE4F808120
:10279000282F30E081E090E0022E02C0880F991FC0
:1027A0000A94E2F7809584238C9389819A81880F1B
:1027B000991F880F991FFC01E559FE4F80818130D8
:1027C000E9F4ABE3B0E0EBE3F0E08081482F8981EE
:1027D0009A81880F991F880F991FFC01E759FE4FB6
:1027E0008081282F30E081E090E0022E02C0880F27
:1027F000991F0A94E2F7842B8C9321C289819A81D4
:10280000880F991F880F991FFC01E559FE4F8081A1
:10281000882309F014C2ABE3B0E0EBE3F0E0808181
:10282000482F89819A81880F991F880F991FFC0171
:10283000E759FE4F8081282F30E081E090E0022EA2
:1028400002C0880F991F0A94E2F7809584238C9325
:10285000F6C189819A81880F991F880F991FFC0101
:10286000E859FE4F8081813009F09BC089819A81AF
:10287000880F991F0196880F991FFC01E859FE4F98
:1028800080818130E9F4A7E3B0E0E7E3F0E0808104
:10289000482F89819A81880F991F880F991FFC0101
:1028A000E759FE4F8081282F30E081E090E0022E32
:1028B00002C0880F991F0A94E2F7842B8C93BFC142
:1028C000A7E3B0E0E7E3F0E08081482F89819A81B7
:1028D000880F991F880F991FFC01E759FE4F8081CF
:1028E000282F30E081E090E0022E02C0880F991F6F
:1028F0000A94E2F7809584238C9389819A81880FCA
:10290000991F880F991FFC01E559FE4F8081813086
:10291000E9F4A8E3B0E0E8E3F0E08081482F8981A2
:102920009A81880F991F880F991FFC01E759FE4F64
:102930008081282F30E081E090E0022E02C0880FD5
:10294000991F0A94E2F7842B8C9379C189819A812B
:10295000880F991F880F991FFC01E559FE4F808150
:10296000882309F06CC1ABE3B0E0EBE3F0E08081D9
:10297000482F89819A81880F991F880F991FFC0120
:10298000E759FE4F8081282F30E081E090E0022E51
:1029900002C0880F991F0A94E2F7809584238C93D4
:1029A0004EC189819A81880F991F880F991FFC0158
:1029B000E859FE4F8081823009F09BC089819A815D
:1029C000880F991F0196880F991FFC01E859FE4F47
:1029D00080818130E9F4A4E3B0E0E4E3F0E08081B9
:1029E000482F89819A81880F991F880F991FFC01B0
:1029F000E759FE4F8081282F30E081E090E0022EE1
:102A000002C0880F991F0A94E2F7842B8C9317C198
:102A1000A4E3B0E0E4E3F0E08081482F89819A816B
:102A2000880F991F880F991FFC01E759FE4F80817D
:102A3000282F30E081E090E0022E02C0880F991F1D
:102A40000A94E2F7809584238C9389819A81880F78
:102A5000991F880F991FFC01E559FE4F8081813035
:102A6000E9F4A5E3B0E0E5E3F0E08081482F898157
:102A70009A81880F991F880F991FFC01E759FE4F13
:102A80008081282F30E081E090E0022E02C0880F84
:102A9000991F0A94E2F7842B8C93D1C089819A8183
:102AA000880F991F880F991FFC01E559FE4F8081FF
:102AB000882309F0C4C0ABE3B0E0EBE3F0E0808131
:102AC000482F89819A81880F991F880F991FFC01CF
:102AD000E759FE4F8081282F30E081E090E0022E00
:102AE00002C0880F991F0A94E2F7809584238C9383
:102AF000A6C089819A81880F991F880F991FFC01B0
:102B0000E859FE4F8081833009F099C089819A810C
:102B1000880F991F0196880F991FFC01E859FE4FF5
:102B200080818130E9F4A1E3B0E0E1E3F0E080816D
:102B3000482F89819A81880F991F880F991FFC015E
:102B4000E759FE4F8081282F30E081E090E0022E8F
:102B500002C0880F991F0A94E2F7842B8C936FC0F0
:102B6000A1E3B0E0E1E3F0E08081482F89819A8120
:102B7000880F991F880F991FFC01E759FE4F80812C
:102B8000282F30E081E090E0022E02C0880F991FCC
:102B90000A94E2F7809584238C9389819A81880F27
:102BA000991F880F991FFC01E559FE4F80818130E4
:102BB000E9F4A2E3B0E0E2E3F0E08081482F89810C
:102BC0009A81880F991F880F991FFC01E759FE4FC2
:102BD0008081282F30E081E090E0022E02C0880F33
:102BE000991F0A94E2F7842B8C9329C089819A81DA
:102BF000880F991F880F991FFC01E559FE4F8081AE
:102C00008823E9F4ABE3B0E0EBE3F0E08081482F08
:102C100089819A81880F991F880F991FFC01E759B4
:102C2000FE4F8081282F30E081E090E0022E02C02C
:102C3000880F991F0A94E2F7809584238C938981E9
:102C40009A8101969A83898389819A818A31910533
:102C50000CF457CD80E00F900F90CF91DF91089545
:102C6000DF93CF93CDB7DEB782E060E041E00E9412
:102C7000CE0F82E065E041E00E94CE0F82E066E088
:102C800041E00E94CE0F82E067E041E00E94CE0F5B
:102C900082E060E040E00E94BD1082E065E040E03C
:102CA0000E94BD1082E066E040E00E94BD1082E01C
:102CB00067E040E00E94BD10CF91DF910895DF935F
:102CC000CF93CDB7DEB7EF970FB6F894DEBF0FBE48
:102CD000CDBF8FAF8FAD882F90E0A0E0B0E0072E82
:102CE0007BE0880F991FAA1FBB1F7A95D1F7702D23
:102CF00028E631E040E050E0BC01CD010E94AC2864
:102D0000DA01C9019EAF8DAF8DAD9EAD96958795C9
:102D1000969587959CAF8BAF1AAE19AE1AAE19AEC9
:102D20001DC282E060E041E00E94BD1082E065E0EB
:102D300040E00E94BD1082E066E040E00E94BD10CD
:102D400082E067E040E00E94BD1080E090E0A0EAF1
:102D5000B1E48DAB9EABAFABB8AF6DA97EA98FA927
:102D600098AD20E030E04AE755E40E941F02DC0104
:102D7000CB0189AB9AABABABBCAB69A97AA98BA9E8
:102D80009CA920E030E040E85FE30E94250488230E
:102D90002CF481E090E098AB8FA73FC069A97AA995
:102DA0008BA99CA920E03FEF4FE757E40E94C503A1
:102DB00018164CF56DA97EA98FA998AD20E030E0DA
:102DC00040E251E40E941F02DC01CB01BC01CD01B5
:102DD0000E944900DC01CB0198AB8FA70FC080E9AE
:102DE00091E09EA78DA78DA59EA50197F1F79EA7BF
:102DF0008DA78FA598A9019798AB8FA78FA598A9A4
:102E0000009769F714C069A97AA98BA99CA90E94A7
:102E10004900DC01CB0198AB8FA78FA598A99CA78F
:102E20008BA78BA59CA50197F1F79CA78BA782E0A8
:102E300060E040E00E94BD1082E065E041E00E9459
:102E4000BD1082E066E040E00E94BD1082E067E0D5
:102E500040E00E94BD1080E090E0A0EAB1E48FA3C2
:102E600098A7A9A7BAA76FA178A589A59AA520E0D8
:102E700030E04AE755E40E941F02DC01CB018BA33E
:102E80009CA3ADA3BEA36BA17CA18DA19EA120E0BC
:102E900030E040E85FE30E94250488232CF481E0C1
:102EA00090E09AA389A33FC06BA17CA18DA19EA1B4
:102EB00020E03FEF4FE757E40E94C50318164CF59A
:102EC0006FA178A589A59AA520E030E040E251E401
:102ED0000E941F02DC01CB01BC01CD010E94490010
:102EE000DC01CB019AA389A30FC080E991E098A3EC
:102EF0008F8F8F8D98A10197F1F798A38F8F89A15C
:102F00009AA101979AA389A389A19AA1009769F729
:102F100014C06BA17CA18DA19EA10E944900DC017F
:102F2000CB019AA389A389A19AA19E8F8D8F8D8DA4
:102F30009E8D0197F1F79E8F8D8F82E060E040E0DB
:102F40000E94BD1082E065E040E00E94BD1082E07A
:102F500066E041E00E94BD1082E067E040E00E9430
:102F6000BD1080E090E0A0EAB1E4898F9A8FAB8F2A
:102F7000BC8F698D7A8D8B8D9C8D20E030E04AE787
:102F800055E40E941F02DC01CB018D8B9E8BAF8B21
:102F9000B88F6D897E898F89988D20E030E040E878
:102FA0005FE30E94250488232CF481E090E09C8B51
:102FB0008B8B3FC06D897E898F89988D20E03FEF94
:102FC0004FE757E40E94C50318164CF5698D7A8DBA
:102FD0008B8D9C8D20E030E040E251E40E941F0286
:102FE000DC01CB01BC01CD010E944900DC01CB0119
:102FF0009C8B8B8B0FC080E991E09A8B898B8989A0
:103000009A890197F1F79A8B898B8B899C89019713
:103010009C8B8B8B8B899C89009769F714C06D8979
:103020007E898F89988D0E944900DC01CB019C8BA1
:103030008B8B8B899C89988B8F878F85988901973B
:10304000F1F7988B8F8782E060E040E00E94BD102E
:1030500082E065E040E00E94BD1082E066E040E072
:103060000E94BD1082E067E041E00E94BD1080E058
:1030700090E0A0EAB1E48B879C87AD87BE876B8523
:103080007C858D859E8520E030E04AE755E40E94EE
:103090001F02DC01CB018F839887A987BA876F81D4
:1030A000788589859A8520E030E040E85FE30E94DA
:1030B000250488232CF481E090E09E838D833FC01B
:1030C0006F81788589859A8520E03FEF4FE757E447
:1030D0000E94C50318164CF56B857C858D859E85F1
:1030E00020E030E040E251E40E941F02DC01CB010D
:1030F000BC01CD010E944900DC01CB019E838D8380
:103100000FC080E991E09C838B838B819C81019728
:10311000F1F79C838B838D819E8101979E838D83A4
:103120008D819E81009769F714C06F8178858985AC
:103130009A850E944900DC01CB019E838D838D819D
:103140009E819A83898389819A810197F1F79A8375
:10315000898389AD9AAD01969AAF89AF29AD3AAD11
:103160008BAD9CAD2817390708F4DBCDEF960FB671
:10317000F894DEBF0FBECDBFCF91DF910895DF93EE
:10318000CF93CDB7DEB781E080930A0283E08093CE
:103190000B0282E080930C0210920D028AE092E012
:1031A0000E94410ACF91DF910895DF93CF9300D021
:1031B00000D000D0CDB7DEB79E838D838D819E81F8
:1031C000AA2797FDA095BA2FBC01CD010E945504F6
:1031D000DC01CB01BC01CD0120E030E044E353E44D
:1031E0000E941903DC01CB01BC01CD0120E030E0DD
:1031F0004AE754E40E941F02DC01CB01BC01CD016F
:1032000020E030E84BEB54E40E94F201DC01CB01FA
:10321000BC01CD010E944900DC01CB019C838B8362
:103220008B819C8196958795969587959A838983BE
:10323000EAE4F0E089819A81019791838083E6E452
:10324000F0E087E893E191838083AFE4B0E0EFE4BE
:10325000F0E0808180688C930E94BF188D819E81F0
:103260002FEF863A92072CF486EA9FEF9E838D8398
:1032700009C08D819E818B35910524F08AE590E00F
:103280009E838D8326960FB6F894DEBF0FBECDBF0A
:10329000CF91DF910895DF93CF93CDB7DEB70E9432
:1032A0004A0BCF91DF910895DF93CF93CDB7DEB76F
:1032B000E0970FB6F894DEBF0FBECDBF81E060E0AF
:1032C00041E00E94BD1080E090E0A0E2B1E48DA753
:1032D0009EA7AFA7B8AB6DA57EA58FA598A92BEA31
:1032E0003AEA4AEA50E40E941F02DC01CB0189A7B6
:1032F0009AA7ABA7BCA769A57AA58BA59CA520E03A
:1033000030E040E85FE30E94250488231CF481E05C
:1033100088A791C069A57AA58BA59CA520E030E07F
:103320004FE753E40E94C50318160CF07BC06DA54F
:103330007EA58FA598A920E030E04AE754E40E94DA
:103340001903DC01CB018CA39DA3AEA3BFA36CA189
:103350007DA18EA19FA120E030E04AE755E40E94C4
:103360001F02DC01CB0188A399A3AAA3BBA368A178
:1033700079A18AA19BA120E030E040E85FE30E94B0
:10338000250488232CF481E090E09F8F8E8F3FC02E
:1033900068A179A18AA19BA120E03FEF4FE757E404
:1033A0000E94C50318164CF56CA17DA18EA19FA1AA
:1033B00020E030E040E251E40E941F02DC01CB013A
:1033C000BC01CD010E944900DC01CB019F8F8E8F93
:1033D0000FC080E991E09D8F8C8F8C8D9D8D019722
:1033E000F1F79D8F8C8F8E8D9F8D01979F8F8E8F84
:1033F0008E8D9F8D009769F724C068A179A18AA15D
:103400009BA10E944900DC01CB019F8F8E8F8E8D86
:103410009F8D9B8F8A8F8A8D9B8D0197F1F79B8F54
:103420008A8F0FC069A57AA58BA59CA50E9449002B
:10343000DC01CB0188A788A5898F898D8A95F1F752
:10344000898F81E060E040E00E94BD1080E090E064
:10345000AAEFB4E48D8B9E8BAF8BB88F6D897E897C
:103460008F89988D2BEA3AEA4AEA50E40E941F02BB
:10347000DC01CB01898B9A8BAB8BBC8B69897A89F8
:103480008B899C8920E030E040E85FE30E942504BE
:1034900088231CF481E0888B91C069897A898B89A3
:1034A0009C8920E030E04FE753E40E94C5031816E2
:1034B0000CF07BC06D897E898F89988D20E030E08B
:1034C0004AE754E40E941903DC01CB018C879D87F5
:1034D000AE87BF876C857D858E859F8520E030E037
:1034E0004AE755E40E941F02DC01CB0188879987D7
:1034F000AA87BB87688579858A859B8520E030E02F
:1035000040E85FE30E94250488232CF481E090E0EA
:103510009F838E833FC0688579858A859B8520E05F
:103520003FEF4FE757E40E94C50318164CF56C8532
:103530007D858E859F8520E030E040E251E40E9449
:103540001F02DC01CB01BC01CD010E944900DC015E
:10355000CB019F838E830FC080E991E09D838C8394
:103560008C819D810197F1F79D838C838E819F8152
:1035700001979F838E838E819F81009769F724C076
:10358000688579858A859B850E944900DC01CB018D
:103590009F838E838E819F819B838A838A819B8177
:1035A0000197F1F79B838A830FC069897A898B8998
:1035B0009C890E944900DC01CB01888B8889898322
:1035C00089818A95F1F7898380E0E0960FB6F894B7
:1035D000DEBF0FBECDBFCF91DF910895DF93CF93B4
:1035E000CDB7DEB782E00E948E1B88E20E948E1B60
:1035F0008EE00E948E1B86E00E948E1B81E00E945E
:103600008E1B80E0CF91DF910895DF93CF93CDB7EC
:10361000DEB72E970FB6F894DEBF0FBECDBF81E0A8
:103620000E948E1B80E090E0A0E0B0E48B879C8736
:10363000AD87BE876B857C858D859E8520E030E0DB
:103640004AE755E40E941F02DC01CB018F83988773
:10365000A987BA876F81788589859A8520E030E0CF
:1036600040E85FE30E94250488232CF481E090E089
:103670009E838D833FC06F81788589859A8520E000
:103680003FEF4FE757E40E94C50318164CF56B85D2
:103690007C858D859E8520E030E040E251E40E94EB
:1036A0001F02DC01CB01BC01CD010E944900DC01FD
:1036B000CB019E838D830FC080E991E09C838B8337
:1036C0008B819C810197F1F79C838B838D819E81F7
:1036D00001979E838D838D819E81009769F714C029
:1036E0006F81788589859A850E944900DC01CB012C
:1036F0009E838D838D819E819A83898389819A811E
:103700000197F1F79A83898380E02E960FB6F8949B
:10371000DEBF0FBECDBFCF91DF910895DF93CF9372
:103720000F92CDB7DEB7898381E061E040E00E946F
:10373000BD108981882334F480E066E041E00E9476
:10374000BD1005C080E066E040E00E94BD108981A8
:103750008295869586958370882F90E08170907011
:10376000882331F080E065E041E00E94BD1005C093
:1037700080E065E040E00E94BD10898182958695D9
:103780008770882F90E081709070882331F080E0FE
:1037900064E041E00E94BD1005C080E064E040E0CC
:1037A0000E94BD10898182958F70882F90E0817072
:1037B0009070882331F080E063E041E00E94BD100A
:1037C00005C080E063E040E00E94BD100E945419F3
:1037D0008981869586958695882F90E08170907076
:1037E000882331F080E066E041E00E94BD1005C012
:1037F00080E066E040E00E94BD1089818695869554
:10380000882F90E081709070882331F080E065E02F
:1038100041E00E94BD1005C080E065E040E00E94EC
:10382000BD1089818695882F90E0817090708823E3
:1038300031F080E064E041E00E94BD1005C080E00E
:1038400064E040E00E94BD108981882F90E0817083
:103850009070882331F080E063E041E00E94BD1069
:1038600005C080E063E040E00E94BD100E94541952
:1038700080E00F90CF91DF910895DF93CF930F9267
:10388000CDB7DEB7898381E061E041E00E94BD10E1
:103890008981882334F480E066E041E00E94BD1015
:1038A00005C080E066E040E00E94BD1089818295FD
:1038B000869586958370882F90E08170907088231C
:1038C00031F080E065E041E00E94BD1005C080E07D
:1038D00065E040E00E94BD108981829586958770E1
:1038E000882F90E081709070882331F080E064E050
:1038F00041E00E94BD1005C080E064E040E00E940D
:10390000BD10898182958F70882F90E081709070B2
:10391000882331F080E063E041E00E94BD1005C0E3
:1039200080E063E040E00E94BD100E94541989814C
:10393000869586958695882F90E081709070882373
:1039400031F080E066E041E00E94BD1005C080E0FB
:1039500066E040E00E94BD10898186958695882F9B
:1039600090E081709070882331F080E065E041E064
:103970000E94BD1005C080E065E040E00E94BD10DF
:1039800089818695882F90E081709070882331F02E
:1039900080E064E041E00E94BD1005C080E064E08A
:1039A00040E00E94BD108981882F90E08170907066
:1039B000882331F080E063E041E00E94BD1005C043
:1039C00080E063E040E00E94BD100E94541980E056
:1039D0000F90CF91DF910895DF93CF9300D00F9296
:1039E000CDB7DEB79B838A8381E061E041E00E942E
:1039F000BD1019820EC08981282F30E08A819B81F9
:103A0000FC01E20FF31F80810E943D1C89818F5FC2
:103A100089838981282F30E08A819B81FC01E20F14
:103A2000F31F8081882339F780E00F900F900F906B
:103A3000CF91DF910895DF93CF9300D000D0CDB721
:103A4000DEB79A8389836B834C8381E061E041E038
:103A50000E94BD108B816C810E94F21F89819A8126
:103A60000E94EC1C80E00F900F900F900F90CF9170
:103A7000DF910895DF93CF93CDB7DEB72E970FB6C2
:103A8000F894DEBF0FBECDBF9E878D8781E061E0D9
:103A900041E00E94BD101A8219828D859E85009793
:103AA00011F580E30E943D1C39C08A81E82FF0E0C7
:103AB0008D859E852AE030E0B9010E949828282F44
:103AC000205DCE010396E80FF91F20838D859E852A
:103AD0002AE030E0B9010E949828CB019E878D87AB
:103AE0008A818F5F8A838D859E850097F1F68A8112
:103AF000898311C08981882F90E09C01215030403A
:103B0000CE010396FC01E20FF31F80810E943D1C51
:103B10008981815089838981882361F780E02E968D
:103B20000FB6F894DEBF0FBECDBFCF91DF910895E1
:103B3000DF93CF93CDB7DEB7A3970FB6F894DEBF70
:103B40000FBECDBF98A38F8F69A34AA381E061E028
:103B500041E00E94BD1089A1813009F076C080E863
:103B60000E948E1B80E090E0A0E8BFE3898F9A8FCF
:103B7000AB8FBC8F698D7A8D8B8D9C8D20E030E072
:103B80004AE755E40E941F02DC01CB018D8B9E8B1E
:103B9000AF8BB88F6D897E898F89988D20E030E05A
:103BA00040E85FE30E94250488232CF481E090E044
:103BB0009C8B8B8B3FC06D897E898F89988D20E08F
:103BC0003FEF4FE757E40E94C50318164CF5698D87
:103BD0007A8D8B8D9C8D20E030E040E251E40E9494
:103BE0001F02DC01CB01BC01CD010E944900DC01B8
:103BF000CB019C8B8B8B0FC080E991E09A8B898BDA
:103C000089899A890197F1F79A8B898B8B899C898D
:103C100001979C8B8B8B8B899C89009769F792C04D
:103C20006D897E898F89988D0E944900DC01CB01C6
:103C30009C8B8B8B8B899C89988B8F878F859889A0
:103C40000197F1F7988B8F877DC089A1823009F0A9
:103C500076C080EC0E948E1B80E090E0A0E2B1E490
:103C60008B879C87AD87BE876B857C858D859E8580
:103C700020E030E04AE755E40E941F02DC01CB015E
:103C80008F839887A987BA876F81788589859A8578
:103C900020E030E040E85FE30E94250488232CF414
:103CA00081E090E09E838D833FC06F817885898518
:103CB0009A8520E03FEF4FE757E40E94C5031816AE
:103CC0004CF56B857C858D859E8520E030E040E25B
:103CD00051E40E941F02DC01CB01BC01CD010E9416
:103CE0004900DC01CB019E838D830FC080E991E008
:103CF0009C838B838B819C810197F1F79C838B83C1
:103D00008D819E8101979E838D838D819E810097F9
:103D100069F718C06F81788589859A850E94490066
:103D2000DC01CB019E838D838D819E819A83898363
:103D300089819A810197F1F79A83898303C081E091
:103D40008BA31AC081E090E09E8F8D8F08C08CE11C
:103D50000E948E1B8D8D9E8D01969E8F8D8F8AA1C8
:103D6000282F30E08D8D9E8D2817390784F78F8D91
:103D700098A10E943A1D1BA28BA1A3960FB6F8949E
:103D8000DEBF0FBECDBFCF91DF910895DF93CF93FC
:103D9000CDB7DEB7A2970FB6F894DEBF0FBECDBF8A
:103DA0008F8F68A349A381E061E041E00E94BD10CC
:103DB00088A1813009F076C080E80E948E1B80E0E7
:103DC00090E0A0E8BFE3898F9A8FAB8FBC8F698D9D
:103DD0007A8D8B8D9C8D20E030E04AE755E40E947F
:103DE0001F02DC01CB018D8B9E8BAF8BB88F6D8951
:103DF0007E898F89988D20E030E040E85FE30E9463
:103E0000250488232CF481E090E09C8B8B8B3FC0B1
:103E10006D897E898F89988D20E03FEF4FE757E4C9
:103E20000E94C50318164CF5698D7A8D8B8D9C8D7B
:103E300020E030E040E251E40E941F02DC01CB01AF
:103E4000BC01CD010E944900DC01CB019C8B8B8B16
:103E50000FC080E991E09A8B898B89899A890197B3
:103E6000F1F79A8B898B8B899C8901979C8B8B8B23
:103E70008B899C89009769F792C06D897E898F89AB
:103E8000988D0E944900DC01CB019C8B8B8B8B8928
:103E90009C89988B8F878F8598890197F1F7988BEC
:103EA0008F877DC088A1823009F076C080EC0E94A7
:103EB0008E1B80E090E0A0E2B1E48B879C87AD8709
:103EC000BE876B857C858D859E8520E030E04AE746
:103ED00055E40E941F02DC01CB018F839887A987DC
:103EE000BA876F81788589859A8520E030E040E83F
:103EF0005FE30E94250488232CF481E090E09E83F8
:103F00008D833FC06F81788589859A8520E03FEF5A
:103F10004FE757E40E94C50318164CF56B857C8566
:103F20008D859E8520E030E040E251E40E941F0232
:103F3000DC01CB01BC01CD010E944900DC01CB01B9
:103F40009E838D830FC080E991E09C838B838B815E
:103F50009C810197F1F79C838B838D819E810197D2
:103F60009E838D838D819E81009769F718C06F8134
:103F7000788589859A850E944900DC01CB019E8362
:103F80008D838D819E819A83898389819A8101970E
:103F9000F1F79A83898303C081E08AA319C081E085
:103FA00090E09E8F8D8F08C08CE10E948E1B8D8DBE
:103FB0009E8D01969E8F8D8F89A1282F30E08D8D4B
:103FC0009E8D2817390784F78F8D0E943D1C1AA2F9
:103FD0008AA1A2960FB6F894DEBF0FBECDBFCF91D7
:103FE000DF910895DF93CF9300D000D00F92CDB72B
:103FF000DEB789836A838A8181508A838981282FE9
:1040000030E03D832C838C819D818130910531F09E
:104010002C813D812230310531F00AC08A818058DF
:104020000E948E1B08C08A8180540E948E1B03C090
:1040300031E03B8301C01B828B810F900F900F906A
:104040000F900F90CF91DF910895DF93CF9300D021
:104050000F92CDB7DEB789836A838981882341F4C3
:104060008A81803148F58A8180580E948E1B24C045
:104070008981813041F48A818031F0F48A818054D1
:104080000E948E1B19C08981823041F48A8180315F
:1040900098F48A8180570E948E1B0EC089818330DC
:1040A00041F48A81803140F48A8180530E948E1BC2
:1040B00003C081E08B8301C01B828B810F900F9026
:1040C0000F90CF91DF910895DF93CF93CDB7DEB7F7
:1040D00065970FB6F894DEBF0FBECDBF9C8B8B8B60
:1040E000EB89FC898FEF80831F868B899C890097E1
:1040F00009F4EDC0198AE5C08989882F90E0FC0198
:10410000E651FE4F908180E0692F40E00E94BD1093
:10411000188AC1C08889882F90E0FC01E251FE4FC7
:1041200090819E012E5E3F4F83E0692FA9010E947E
:10413000AC118A89882309F0ABC080E090E0A0EA46
:10414000B1E48B879C87AD87BE876B857C858D8529
:104150009E8520E030E04AE755E40E941F02DC0122
:10416000CB018F839887A987BA876F8178858985E6
:104170009A8520E030E040E85FE30E942504882330
:104180002CF481E090E09E838D833FC06F81788521
:1041900089859A8520E03FEF4FE757E40E94C503E9
:1041A00018164CF56B857C858D859E8520E030E06A
:1041B00040E251E40E941F02DC01CB01BC01CD01B1
:1041C0000E944900DC01CB019E838D830FC080E9F2
:1041D00091E09C838B838B819C810197F1F79C8379
:1041E0008B838D819E8101979E838D838D819E819E
:1041F000009769F714C06F81788589859A850E9438
:104200004900DC01CB019E838D838D819E819A8341
:10421000898389819A810197F1F79A8389838889B3
:10422000882F90E0FC01E251FE4F90819E012E5EAE
:104230003F4F83E0692FA9010E94AC110FC088890C
:10424000882F90E0FC01E251FE4F90819E012E5E8E
:104250003F4F83E0692FA9010E94AC118A8988230E
:1042600071F38989482F50E08889282F30E0CA01EE
:10427000880F991F880F991F820F931FFC01E65228
:10428000FE4F8081EB89FC89808381E08F8707C0A6
:1042900088898F5F888B8889843008F43BCF89892F
:1042A000882F90E0FC01E651FE4F908180E0692F5D
:1042B00041E00E94BD108F85813039F089898F5F80
:1042C000898B8989843008F417CF1D8A02C081E068
:1042D0008D8B8D8965960FB6F894DEBF0FBECDBF6E
:1042E000CF91DF910895DF93CF9300D0CDB7DEB7A4
:1042F00089838981882359F482E061E041E00E944A
:10430000CE0F82E062E041E00E94CE0F11C08981B1
:10431000813059F482E063E041E00E94CE0F82E0F8
:1043200064E041E00E94CE0F03C081E08A8301C0B7
:104330001A828A810F900F90CF91DF910895DF93B9
:10434000CF9300D0CDB7DEB789838981882359F414
:1043500082E061E040E00E94BD1082E062E040E067
:104360000E94BD1011C08981813059F482E063E060
:1043700040E00E94BD1082E064E040E00E94BD1079
:1043800003C081E08A8301C01A828A810F900F9056
:10439000CF91DF910895DF93CF9300D000D00F929B
:1043A000CDB7DEB789836A838A81282F30E03D83C9
:1043B0002C838C819D81009731F02C813D812130AF
:1043C0003105E9F038C08981882359F482E061E041
:1043D00041E00E94BD1082E062E040E00E94BD101A
:1043E0002DC08981813051F582E063E041E00E9477
:1043F000BD1082E064E040E00E94BD101FC08981D2
:10440000882359F482E061E040E00E94BD1082E020
:1044100062E041E00E94BD1011C08981813071F4D9
:1044200082E063E040E00E94BD1082E064E041E091
:104430000E94BD1003C031E03B8301C01B828B8111
:104440000F900F900F900F900F90CF91DF910895E4
:10445000DF93CF93CDB7DEB72C970FB6F894DEBFBE
:104460000FBECDBF8E836F83CE010196998788875B
:10447000E2EFF1E0FB87EA87F5E0FC87EA85FB8560
:1044800000808A859B8501969B878A87E885F985C8
:104490000082888599850196998788879C859150A7
:1044A0009C87EC85EE2351F7CE0101960E9475079B
:1044B0008E81882F90E0009779F48F81882F90E08B
:1044C000A0E0B0E0BC01CD010E940705DC01CB01FA
:1044D000BC01CD010E94C80880E02C960FB6F8946C
:1044E000DEBF0FBECDBFCF91DF9108950F931F9315
:1044F000DF93CF93CDB7DEB7CE54D0400FB6F8944C
:10450000DEBF0FBECDBFFE01E95BFF4F918380830D
:10451000FE01E75BFF4F71836083FE01E55BFF4FA8
:1045200051834083FE01ED5BFF4F80E090E0AAE7FE
:10453000B4E480839183A283B3838E01015C1F4F17
:10454000FE01ED5BFF4F608171818281938120E0EC
:1045500030E04AE755E40E941F02DC01CB01F8017C
:1045600080839183A283B383FE01FF966081718172
:104570008281938120E030E040E85FE30E942504DF
:1045800088232CF481E090E09EAF8DAF46C0FE0101
:10459000FF96608171818281938120E03FEF4FE738
:1045A00057E40E94C503181664F5FE01ED5BFF4F4A
:1045B000608171818281938120E030E040E251E4AA
:1045C0000E941F02DC01CB01BC01CD010E94490009
:1045D000DC01CB019EAF8DAF0FC080E991E09CAFB5
:1045E0008BAF8BAD9CAD0197F1F79CAF8BAF8DADD1
:1045F0009EAD01979EAF8DAF8DAD9EAD009769F7D3
:1046000016C0FE01FF9660817181828193810E94B4
:104610004900DC01CB019EAF8DAF8DAD9EAD9AAF51
:1046200089AF89AD9AAD0197F1F79AAF89AF0E9432
:10463000310DFE01E95BFF4F0190F081E02D808399
:1046400080E090E0A8E4B3E48DAB9EABAFABB8AF35
:104650006DA97EA98FA998AD20E030E04AE755E426
:104660000E941F02DC01CB0189AB9AABABABBCABA8
:1046700069A97AA98BA99CA920E030E040E85FE312
:104680000E94250488232CF481E090E098AB8FA74A
:104690003FC069A97AA98BA99CA920E03FEF4FE709
:1046A00057E40E94C50318164CF56DA97EA98FA981
:1046B00098AD20E030E040E251E40E941F02DC01AE
:1046C000CB01BC01CD010E944900DC01CB0198ABBC
:1046D0008FA70FC080E991E09EA78DA78DA59EA50D
:1046E0000197F1F79EA78DA78FA598A9019798AB81
:1046F0008FA78FA598A9009769F714C069A97AA90F
:104700008BA99CA90E944900DC01CB0198AB8FA723
:104710008FA598A99CA78BA78BA59CA50197F1F7BE
:104720009CA78BA70E94310DFE01E75BFF4F019014
:10473000F081E02D808380E090E0A8E4B3E48FA3D3
:1047400098A7A9A7BAA76FA178A589A59AA520E0DF
:1047500030E04AE755E40E941F02DC01CB018BA345
:104760009CA3ADA3BEA36BA17CA18DA19EA120E0C3
:1047700030E040E85FE30E94250488232CF481E0C8
:1047800090E09AA389A33FC06BA17CA18DA19EA1BB
:1047900020E03FEF4FE757E40E94C50318164CF5A1
:1047A0006FA178A589A59AA520E030E040E251E408
:1047B0000E941F02DC01CB01BC01CD010E94490017
:1047C000DC01CB019AA389A30FC080E991E098A3F3
:1047D0008F8F8F8D98A10197F1F798A38F8F89A163
:1047E0009AA101979AA389A389A19AA1009769F731
:1047F00014C06BA17CA18DA19EA10E944900DC0187
:10480000CB019AA389A389A19AA19E8F8D8F8D8DAB
:104810009E8D0197F1F79E8F8D8F0E94310DFE01C5
:10482000E55BFF4F0190F081E02D808380E090E018
:10483000A8E4B3E4898F9A8FAB8FBC8F698D7A8D92
:104840008B8D9C8D20E030E04AE755E40E941F02EA
:10485000DC01CB018D8B9E8BAF8BB88F6D897E89F0
:104860008F89988D20E030E040E85FE30E942504C6
:1048700088232CF481E090E09C8B8B8B3FC06D896A
:104880007E898F89988D20E03FEF4FE757E40E94A3
:10489000C50318164CF5698D7A8D8B8D9C8D20E0A3
:1048A00030E040E251E40E941F02DC01CB01BC0178
:1048B000CD010E944900DC01CB019C8B8B8B0FC08A
:1048C00080E991E09A8B898B89899A890197F1F720
:1048D0009A8B898B8B899C8901979C8B8B8B8B897D
:1048E0009C89009769F714C06D897E898F89988D9E
:1048F0000E944900DC01CB019C8B8B8B8B899C89AE
:10490000988B8F878F8598890197F1F7988B8F8780
:10491000FE01E55BFF4F808191818C010F5F1F4F8E
:104920000E94310DF801808380E090E0A8E4B3E4B8
:104930008B879C87AD87BE876B857C858D859E85A3
:1049400020E030E04AE755E40E941F02DC01CB0181
:104950008F839887A987BA876F81788589859A859B
:1049600020E030E040E85FE30E94250488232CF437
:1049700081E090E09E838D833FC06F81788589853B
:104980009A8520E03FEF4FE757E40E94C5031816D1
:104990004CF56B857C858D859E8520E030E040E27E
:1049A00051E40E941F02DC01CB01BC01CD010E9439
:1049B0004900DC01CB019E838D830FC080E991E02B
:1049C0009C838B838B819C810197F1F79C838B83E4
:1049D0008D819E8101979E838D838D819E8100971D
:1049E00069F714C06F81788589859A850E9449008E
:1049F000DC01CB019E838D838D819E819A83898387
:104A000089819A810197F1F79A838983FE01E95B95
:104A1000FF4F0190F081E02D8081833049F4FE0149
:104A2000E55BFF4F80819181FC01329610820CC0C2
:104A3000FE01E55BFF4F808191818C010E5F1F4F6E
:104A40000E94310DF8018083FE01E55BFF4F8081FC
:104A50009181FC0133961082FE01E95BFF4F0190CA
:104A6000F081E02D8081282F30E02F963FAF2EAFD0
:104A70002F972F968EAD9FAD2F978430910591F093
:104A80002F96EEADFFAD2F97E530F10579F02F961B
:104A90002EAD3FAD2F972330310559F483E080933D
:104AA0002F0207C085E080932F0203C084E080932B
:104AB0002F02C25BDF4F0FB6F894DEBF0FBECDBF33
:104AC000CF91DF911F910F910895DF93CF93CDB7D1
:104AD000DEB7C554D0400FB6F894DEBF0FBECDBFD1
:104AE0000E9477130E94301678941FAE1EAE1DAE42
:104AF0008FEE8CAFFE01EF5BFF4F1082FE01EE5B8D
:104B0000FF4F11821082CE01CC960E94DD0B80E017
:104B10000E9473211BAE1AAE19AE10922F0209C06B
:104B20008CE192E02DE132E04EE152E0B9010E94C9
:104B3000762280911C02882321F480911D02882313
:104B400079F380912F02282F30E026963FAF2EAFC9
:104B5000269726964EAD5FAD26974430510509F451
:104B60005AC126968EAD9FAD26978530910544F4A7
:104B700026962EAD3FAD26972330310591F0D9CF43
:104B800026964EAD5FAD26974530510509F476C1A6
:104B900026968EAD9FAD26978630910509F42BC2DF
:104BA000C8CF80911E02882F90E09C01220F331FF6
:104BB000C901880F991F880F991F820F931F982F83
:104BC00080911F02890F8093160280911D02873009
:104BD00009F08EC09091160280E0692F0E94282271
:104BE00080E060E00E94CB2180E090E8ABE3B5E498
:104BF0008DAB9EABAFABB8AF6DA97EA98FA998ADB9
:104C000020E030E04AE755E40E941F02DC01CB01BE
:104C100089AB9AABABABBCAB69A97AA98BA99CA9B0
:104C200020E030E040E85FE30E94250488232CF474
:104C300081E090E098AB8FA73FC069A97AA98BA9C2
:104C40009CA920E03FEF4FE757E40E94C5031816E8
:104C50004CF56DA97EA98FA998AD20E030E040E227
:104C600051E40E941F02DC01CB01BC01CD010E9476
:104C70004900DC01CB0198AB8FA70FC080E991E020
:104C80009EA78DA78DA59EA50197F1F79EA78DA73D
:104C90008FA598A9019798AB8FA78FA598A9009782
:104CA00069F714C069A97AA98BA99CA90E94490037
:104CB000DC01CB0198AB8FA78FA598A99CA78BA7E8
:104CC0008BA59CA50197F1F79CA78BA780E00E947C
:104CD0009F210E944F0881E064E040E00E94BD10E7
:104CE00010921C0210921D0282E080932F0221CFAD
:104CF00080911D02883009F01CCF9091160280E04F
:104D0000692F0E94282280E061E00E94CB2180E090
:104D100090E8ABE3B5E48FA398A7A9A7BAA76FA1C2
:104D200078A589A59AA520E030E04AE755E40E94DD
:104D30001F02DC01CB018BA39CA3ADA3BEA36BA17F
:104D40007CA18DA19EA120E030E040E85FE30E94BD
:104D5000250488232CF481E090E09AA389A33FC026
:104D60006BA17CA18DA19EA120E03FEF4FE757E40E
:104D70000E94C50318164CF56FA178A589A59AA5C0
:104D800020E030E040E251E40E941F02DC01CB0150
:104D9000BC01CD010E944900DC01CB019AA389A38B
:104DA0000FC080E991E098A38F8F8F8D98A1019714
:104DB000F1F798A38F8F89A19AA101979AA389A34C
:104DC00089A19AA1009769F714C06BA17CA18DA15C
:104DD0009EA10E944900DC01CB019AA389A389A16D
:104DE0009AA19E8F8D8F8D8D9E8D0197F1F79E8F4D
:104DF0008D8F80E00E949F210E944F0881E064E037
:104E000040E00E94BD1010921C0210921D0282E030
:104E100080932F028ECE80911E02282F30E084E6F0
:104E200090E0AC01249FC001259F900D349F900D10
:104E30001124482F80911F02882F90E09C01220F9F
:104E4000331FC901880F991F880F991F820F931F65
:104E5000942F980F80912002890F8BAF8BAD0E9409
:104E60005F1681E064E040E00E94BD1010921C02D9
:104E700010921D0282E080932F025BCE80911E0271
:104E800080931502809115028B32B9F480911F0234
:104E9000882F90E09C01220F331FC901880F991FB2
:104EA000880F991F280F391F80912002882F90E0CA
:104EB000820F931F9AAF89AF19C080911F02882F6C
:104EC00090E09C01220F331FC901880F991F880FA2
:104ED000991F820F931F909581959F4F20912002DB
:104EE000222F30E0821B930B9AAF89AF89AD9AAD28
:104EF0000E94D51880E090E0AAE7B4E4898F9A8FE9
:104F0000AB8FBC8F698D7A8D8B8D9C8D20E030E0CE
:104F10004AE755E40E941F02DC01CB018D8B9E8B7A
:104F2000AF8BB88F6D897E898F89988D20E030E0B6
:104F300040E85FE30E94250488232CF481E090E0A0
:104F40009C8B8B8B3FC06D897E898F89988D20E0EB
:104F50003FEF4FE757E40E94C50318164CF5698DE3
:104F60007A8D8B8D9C8D20E030E040E251E40E94F0
:104F70001F02DC01CB01BC01CD010E944900DC0114
:104F8000CB019C8B8B8B0FC080E991E09A8B898B36
:104F900089899A890197F1F79A8B898B8B899C89EA
:104FA00001979C8B8B8B8B899C89009769F714C028
:104FB0006D897E898F89988D0E944900DC01CB0123
:104FC0009C8B8B8B8B899C89988B8F878F859889FD
:104FD0000197F1F7988B8F870E944B1981E064E06D
:104FE00040E00E94BD1010921C0210921D0282E04F
:104FF00080932F029ECD80E090E0AAE7B4E48B87F7
:105000009C87AD87BE876B857C858D859E8520E0DE
:1050100030E04AE755E40E941F02DC01CB018F8398
:105020009887A987BA876F81788589859A8520E0D6
:1050300030E040E85FE30E94250488232CF481E0FF
:1050400090E09E838D833FC06F81788589859A85A6
:1050500020E03FEF4FE757E40E94C50318164CF5D8
:105060006B857C858D859E8520E030E040E251E4B3
:105070000E941F02DC01CB01BC01CD010E9449004E
:10508000DC01CB019E838D830FC080E991E09C837E
:105090008B838B819C810197F1F79C838B838D811E
:1050A0009E8101979E838D838D819E81009769F7F4
:1050B00014C06F81788589859A850E944900DC013A
:1050C000CB019E838D838D819E819A838983898183
:1050D0009A810197F1F79A83898380E090E0CB5B16
:1050E000DF4F0FB6F894DEBF0FBECDBFCF91DF917B
:1050F0000895629FD001739FF001829FE00DF11D22
:10510000649FE00DF11D929FF00D839FF00D749F41
:10511000F00D659FF00D9927729FB00DE11DF91FED
:10512000639FB00DE11DF91FBD01CF01112408954A
:10513000AA1BBB1B51E107C0AA1FBB1FA617B707BD
:1051400010F0A61BB70B881F991F5A95A9F78095D9
:105150009095BC01CD010895A1E21A2EAA1BBB1B9C
:10516000FD010DC0AA1FBB1FEE1FFF1FA217B30733
:10517000E407F50720F0A21BB30BE40BF50B661F49
:10518000771F881F991F1A9469F76095709580950D
:1051900090959B01AC01BD01CF0108952F923F92E4
:1051A0004F925F926F927F928F929F92AF92BF9237
:1051B000CF92DF92EF92FF920F931F93CF93DF93E3
:1051C000CDB7DEB7CA1BDB0B0FB6F894DEBF0FBE40
:1051D000CDBF09942A88398848885F846E847D848D
:1051E0008C849B84AA84B984C884DF80EE80FD808F
:1051F0000C811B81AA81B981CE0FD11D0FB6F89405
:0E520000DEBF0FBECDBFED010895F894FFCFC5
:10520E00000000000000000000010202030303037F
:10521E000404040404040404050505050505050538
:10522E000505050505050505060606060606060618
:10523E000606060606060606060606060606060600
:10524E0006060606060606060707070707070707E8
:10525E0007070707070707070707070707070707D0
:10526E0007070707070707070707070707070707C0
:10527E0007070707070707070707070707070707B0
:10528E000707070707070707080808080808080898
:10529E000808080808080808080808080808080880
:1052AE000808080808080808080808080808080870
:1052BE000808080808080808080808080808080860
:1052CE000808080808080808080808080808080850
:1052DE000808080808080808080808080808080840
:1052EE000808080808080808080808080808080830
:1052FE000808080808080808080808080808080820
:10530E00080808080808080800000100000101004C
:10531E00000201000003010000040100000501006D
:10532E00000601000007010002000100010200005A
:10533E00010001000101010001030100030200014F
:10534E000303000103040001030600010100010034
:10535E000204010003070100030501000000000024
:10536E00000000000000000000000000000000002F
:10537E00313233340000050001003738392F34350F
:10538E00362A3132332D43303D2B00010207020302
:08539E000406010302000000F7
:00000001FF
