:100000000C942A000C94A7090C94DA090C940D0A9C
:100010000C9447000C9447000C9447000C94470044
:100020000C9447000C9447000C9447000C94470034
:100030000C94A3070C9447000C9447000C944700C1
:100040000C9447000C9447000C9447000C94470014
:100050000C94470011241FBECFE5D8E0DEBFCDBF12
:1000600011E0A0E6B0E0E0E9FEE402C005900D92E8
:10007000AA3CB107D9F711E0AAECB1E001C01D928A
:10008000AC3FB107E1F70E94F8190C9446270C9495
:100090000000EF92FF920F931F937B018C0120E0F1
:1000A00030E040E05FE40E94F50388238CF0C80153
:1000B000B70120E030E040E05FE40E94C1010E940F
:1000C00055049B01AC01205030404040504806C0D0
:1000D000C801B7010E9455049B01AC01B901CA01D6
:1000E0001F910F91FF90EF900895A0E0B0E0EBE733
:1000F000F0E00C94FF26DC012B01FA019C91923078
:1001000008F439C1EB018881823008F433C194309E
:1001100069F4843009F02FC111969C91119789815F
:10012000981709F428C1ACE3B1E025C1843009F483
:1001300021C18230A9F4923009F01DC19A01AD01AC
:1001400088E0EA010990AE01E90109929E0181501F
:10015000C1F7E201898111969C918923818308C1AD
:10016000923009F407C112962D903C901397EB0141
:100170008A819B811496AD90BD90CD90DC901797AD
:10018000EC80FD800E811F819101281B390BB90184
:1001900037FF04C066277727621B730B6032710537
:1001A0000CF061C0121613066CF537014801062EDB
:1001B00004C096948794779467940A94D2F721E0C8
:1001C00030E040E050E004C0220F331F441F551FB1
:1001D0006A95D2F721503040404050402E213F21B7
:1001E00040235123211531054105510521F021E01E
:1001F00030E040E050E079018A01E628F72808293C
:1002000019293CC0232BD1F1260E371E350146019A
:10021000062E04C096948794779467940A94D2F734
:1002200021E030E040E050E004C0220F331F441FC3
:10023000551F6A95D2F721503040404050402A2146
:100240003B214C215D21211531054105510521F04E
:1002500021E030E040E050E059016A01A628B728CB
:10026000C828D9280BC0821593052CF01C01AA249C
:10027000BB24650103C0EE24FF24870111969C91E5
:10028000D20111968C91981709F445C0992339F041
:10029000A80197012A193B094C095D0906C0A6016E
:1002A00095012E193F09400B510B57FD08C01182D3
:1002B0003382228224833583468357831DC081E0A5
:1002C00081833382228288279927DC01821B930B4A
:1002D000A40BB50B84839583A683B7830DC0220F2F
:1002E000331F441F551F24833583468357838281E0
:1002F000938101979383828324813581468157813D
:10030000DA01C9010197A109B1098F5F9F4FAF4F72
:10031000BF4328F30BC0918333822282EA0CFB1C7B
:100320000C1D1D1DE482F5820683178383E0808304
:10033000248135814681578157FF1AC0C901AA27F8
:1003400097FDA095BA2F81709070A070B0705695EF
:10035000479537952795822B932BA42BB52B848318
:100360009583A683B7838281938101969383828349
:10037000DF0101C0D201CD01CDB7DEB7E2E10C94BF
:100380001B27A0E2B0E0E7ECF1E00C940B276983B7
:100390007A838B839C832D833E834F835887E9E048
:1003A000EE2EF12CEC0EFD1ECE010196B7010E943F
:1003B0007E058E010F5E1F4FCE010596B8010E948B
:1003C0007E058A8991E089278A8BC701B801AE0131
:1003D000475E5F4F0E9475000E94A904A096E6E068
:1003E0000C942727A0E2B0E0E8EFF1E00C940B2793
:1003F00069837A838B839C832D833E834F835887C5
:10040000F9E0EF2EF12CEC0EFD1ECE010196B701A6
:100410000E947E058E010F5E1F4FCE010596B8012A
:100420000E947E05C701B801AE01475E5F4F0E9482
:1004300075000E94A904A096E6E00C942727A0E28C
:10044000B0E0E5E2F2E00C94FF2669837A838B83C7
:100450009C832D833E834F835887CE010196BE0136
:10046000675F7F4F0E947E05CE010596BE016F5EDD
:100470007F4F0E947E059985923088F0898982306D
:10048000C8F0943019F4823051F404C0843029F457
:10049000923081F48CE391E0C6C0923049F420E0C0
:1004A0009A858A89981321E02A87CE010996BBC0D4
:1004B000823049F420E09A858A89981321E02A8BBA
:1004C000CE014196B0C02D843E844F8458886D88FB
:1004D0007E888F88988CEE24FF248701AA24BB2471
:1004E000650140E050E060E070E0E0E0F0E0C10174
:1004F00081709070892BE9F0E60CF71C081D191D1E
:100500009A01AB012A0D3B1D4C1D5D1D80E090E062
:10051000A0E0B0E0E614F7040805190520F481E036
:1005200090E0A0E0B0E0BA01A901480F591F6A1F8E
:100530007B1FAA0CBB1CCC1CDD1C97FE08C081E0F5
:1005400090E0A0E0B0E0A82AB92ACA2ADB2A3196B6
:10055000E032F10549F0660C771C881C991C569412
:10056000479437942794C3CFFA85EA892B893C892D
:100570008B859C85280F391F2E5F3F4F17C0CA01FE
:1005800081709070892B61F016950795F794E79428
:1005900080E090E0A0E0B0E8E82AF92A0A2B1B2BC3
:1005A00076956795579547952F5F3F4F77FDE7CF36
:1005B0000CC0440F551F661F771F17FD4160EE0CDE
:1005C000FF1C001F111F21503040403090E05907A0
:1005D00090E0690790E4790760F32B8F3C8FDB0193
:1005E000CA018F779070A070B07080349105A1051A
:1005F000B10561F447FD0AC0E114F10401051105DC
:1006000029F0405C5F4F6F4F7F4F40781A8EFE1786
:1006100011F081E08A8F4D8F5E8F6F8F78A383E01A
:10062000898FCE0149960E94A904A096E2E10C941C
:100630001B27A8E1B0E0EFE1F3E00C940727698302
:100640007A838B839C832D833E834F835887B9E0C5
:10065000EB2EF12CEC0EFD1ECE010196B7010E948F
:100660007E058E010F5E1F4FCE010596B8010E94D8
:100670007E052985223008F47EC03989323010F495
:10068000B8017CC08A859A8989278A87243011F02D
:10069000223031F4231709F06EC06CE371E06EC0B4
:1006A000343039F41D861E861F86188A1C861B86E8
:1006B00004C0323021F484E08987B7015FC02B8504
:1006C0003C858B899C89281B390B3C872B87ED84C3
:1006D000FE840F851889AD88BE88CF88D88CEA142F
:1006E000FB040C051D0540F4EE0CFF1C001F111F40
:1006F000215030403C872B8720E030E040E050E044
:1007000080E090E0A0E0B0E460E070E0EA14FB0478
:100710000C051D0540F0282B392B4A2B5B2BEA18C2
:10072000FB080C091D09B695A79597958795EE0CC2
:10073000FF1C001F111F6F5F7F4F6F31710531F775
:10074000DA01C9018F779070A070B0708034910584
:10075000A105B10561F427FD0AC0E114F10401050A
:10076000110529F0205C3F4F4F4F5F4F20782D87B8
:100770003E874F87588BBE01675F7F4FCB010E943A
:10078000A9046896EAE00C942327A8E1B0E0EBEC1A
:10079000F3E00C940B2769837A838B839C832D83EE
:1007A0003E834F83588789E0E82EF12CEC0EFD1E26
:1007B000CE010196B7010E947E058E010F5E1F4F8C
:1007C000CE010596B8010E947E058985823040F0F1
:1007D0008989823028F0C701B8010E94F60501C05E
:1007E0008FEF6896E6E00C942727A8E1B0E0EBEFE6
:1007F000F3E00C940B2769837A838B839C832D838E
:100800003E834F83588789E0E82EF12CEC0EFD1EC5
:10081000CE010196B7010E947E058E010F5E1F4F2B
:10082000CE010596B8010E947E058985823040F090
:100830008989823028F0C701B8010E94F60501C0FD
:100840008FEF6896E6E00C942727A8E1B0E0EBE292
:10085000F4E00C940B2769837A838B839C832D832C
:100860003E834F83588789E0E82EF12CEC0EFD1E65
:10087000CE010196B7010E947E058E010F5E1F4FCB
:10088000CE010596B8010E947E058985823040F030
:100890008989823028F0C701B8010E94F60501C09D
:1008A00081E06896E6E00C942727ACE0B0E0EBE549
:1008B000F4E00C940F2769837A838B839C83CE01A9
:1008C0000196BE016B5F7F4F0E947E058D81823055
:1008D00061F1823050F1843021F48E81882351F10E
:1008E0002EC02F81388537FD20C06E812F31310514
:1008F0001CF06623F9F023C08EE190E0821B930B7D
:1009000029853A854B855C8504C056954795379572
:1009100027958A95D2F76623B1F05095409530958A
:1009200021953F4F4F4F5F4F0EC020E030E040E039
:1009300050E009C02FEF3FEF4FEF5FE704C020E02A
:1009400030E040E050E8B901CA012C96E2E00C9496
:100950002B27DF92EF92FF920F931F93FC01E4800D
:10096000F58006811781D1808081823048F480E053
:1009700090E0A0E1B0E0E82AF92A0A2B1B2BA5C0E1
:10098000843009F49FC0823021F4EE24FF248701D3
:1009900005C0E114F1040105110519F4E0E0F0E0EF
:1009A00096C0628173819FEF623879070CF05BC05B
:1009B00022E83FEF261B370B2A3131052CF020E0CF
:1009C00030E040E050E02AC0B801A701022E04C088
:1009D00076956795579547950A94D2F781E090E010
:1009E000A0E0B0E004C0880F991FAA1FBB1F2A9582
:1009F000D2F70197A109B1098E219F21A023B1232C
:100A00000097A105B10521F081E090E0A0E0B0E001
:100A10009A01AB01282B392B4A2B5B2BDA01C90138
:100A20008F779070A070B07080349105A105B105EA
:100A300039F427FF09C0205C3F4F4F4F5F4F04C080
:100A4000215C3F4F4F4F5F4FE0E0F0E02030A0E0EF
:100A50003A07A0E04A07A0E45A0710F0E1E0F0E00E
:100A600079018A0127C06038710564F5FB01E158FE
:100A7000FF4FD801C7018F779070A070B07080349D
:100A80009105A105B10539F4E7FE0DC080E490E0C1
:100A9000A0E0B0E004C08FE390E0A0E0B0E0E80E9A
:100AA000F91E0A1F1B1F17FF05C016950795F7941F
:100AB000E794319687E016950795F794E7948A9521
:100AC000D1F705C0EE24FF248701EFEFF0E06E2F91
:100AD000679566276795902F9F77D794DD24D794E5
:100AE0008E2F8695492F462B582F5D29B701CA01B5
:100AF0001F910F91FF90EF90DF900895FC01DB01B3
:100B0000408151812281622F6F7770E0221F22275E
:100B1000221F9381892F880F822B282F30E0991F65
:100B20009927991F11969C93119721153105A9F5C5
:100B3000411551056105710511F482E037C082E865
:100B40009FEF13969C938E9312979A01AB0167E0E7
:100B5000220F331F441F551F6A95D1F783E08C93F2
:100B60000DC0220F331F441F551F12968D919C916B
:100B70001397019713969C938E931297203080E0E1
:100B8000380780E0480780E4580758F314962D93FF
:100B90003D934D935C93179708952F3F310579F45A
:100BA000411551056105710519F484E08C93089590
:100BB00064FF03C081E08C9312C01C9210C02F57B9
:100BC000304013963C932E93129783E08C9387E0EA
:100BD000440F551F661F771F8A95D1F770641496CE
:100BE0004D935D936D937C93179708951F93DC014C
:100BF000FB019C91923008F447C08081823008F458
:100C000043C0943051F411961C91843099F5818140
:100C1000682F70E0611B71093FC0843021F0923071
:100C200031F48230B9F18181882389F12DC0119688
:100C30001C9111978230F1F081811817D9F4129626
:100C40002D913C911397828193818217930794F0A1
:100C500028173907BCF014968D919D910D90BC9189
:100C6000A02D2481358146815781281739074A07ED
:100C70005B0718F4112341F00AC082179307A407F9
:100C8000B50740F4112319F061E070E005C06FEF83
:100C90007FEF02C060E070E0CB011F910895DF9309
:100CA000CF9300D0CDB7DEB79A838983E981FA81EB
:100CB0008081803109F0D8C081E067E041E00E9486
:100CC000400A81E065E041E00E94400A81E064E082
:100CD00041E00E94400A81E066E040E00E94400A54
:100CE000ADE2B0E0EDE2F0E0808180618C93E981DB
:100CF000FA8184818823B1F4ADE2B0E0EDE2F0E066
:100D000080818E7F8C93ADE2B0E0EDE2F0E08081F7
:100D10008D7F8C93AEE2B0E0EEE2F0E080818E7FDA
:100D20008C93BDC0E981FA8184818130B1F4ADE258
:100D3000B0E0EDE2F0E0808181608C93ADE2B0E064
:100D4000EDE2F0E080818D7F8C93AEE2B0E0EEE2E8
:100D5000F0E080818E7F8C93A2C0E981FA8184814A
:100D60008230B1F4ADE2B0E0EDE2F0E080818E7F60
:100D70008C93ADE2B0E0EDE2F0E0808182608C9394
:100D8000AEE2B0E0EEE2F0E080818E7F8C9387C02F
:100D9000E981FA8184818330B1F4ADE2B0E0EDE223
:100DA000F0E0808181608C93ADE2B0E0EDE2F0E0B4
:100DB000808182608C93AEE2B0E0EEE2F0E0808170
:100DC0008E7F8C936CC0E981FA8184818430B1F488
:100DD000ADE2B0E0EDE2F0E080818E7F8C93ADE299
:100DE000B0E0EDE2F0E080818D7F8C93AEE2B0E088
:100DF000EEE2F0E0808181608C9351C0E981FA815C
:100E000084818530B1F4ADE2B0E0EDE2F0E08081C4
:100E100081608C93ADE2B0E0EDE2F0E080818D7F07
:100E20008C93AEE2B0E0EEE2F0E0808181608C93E2
:100E300036C0E981FA818481863089F5ADE2B0E07F
:100E4000EDE2F0E080818E7F8C93ADE2B0E0EDE2E8
:100E5000F0E0808182608C93AEE2B0E0EEE2F0E000
:100E6000808181608C931BC081E066E041E00E943C
:100E7000400A81E067E040E00E94400A81E065E0CE
:100E800040E00E94400A81E064E040E00E94400AA5
:100E9000ADE2B0E0EDE2F0E080818F7E8C93ADE2D8
:100EA000B0E0EDE2F0E09081E981FA818281892B66
:100EB0008C93ADE2B0E0EDE2F0E09081E981FA815F
:100EC0008381892B8C93ADE2B0E0EDE2F0E090817C
:100ED000E981FA818181892B8C93E981FA8185816D
:100EE000882339F0ADE2B0E0EDE2F0E08081806887
:100EF0008C93E981FA81868197819093CB018093CD
:100F0000CA01ADE2B0E0EDE2F0E0808180648C9354
:100F10000F900F90CF91DF910895DF93CF930F92B1
:100F2000CDB7DEB78983EFE2F0E089818083EEE21E
:100F3000F0E080818823DCF7EFE2F0E080810F9021
:100F4000CF91DF9108951F920F920FB60F92112447
:100F50002F933F934F935F936F937F938F939F93C1
:100F6000AF93BF93EF93FF93DF93CF93CDB7DEB7EC
:100F70008091CA019091CB01009729F0E091CA01BC
:100F8000F091CB010995CF91DF91FF91EF91BF9146
:100F9000AF919F918F917F916F915F914F913F9111
:100FA0002F910F900FBE0F901F901895DF93CF9346
:100FB000CDB7DEB7EEE2F0E080818823DCF7EFE228
:100FC000F0E08081CF91DF910895DF93CF930F926E
:100FD000CDB7DEB78983EFE2F0E089818083EEE26E
:100FE000F0E080818823DCF70F90CF91DF910895A6
:100FF000DF93CF9300D000D00F92CDB7DEB78983B7
:101000007B836A838981282F30E03D832C838C8108
:101010009D818130910581F02C813D812230310507
:1010200091F08C819D810097A1F48A819B8190939E
:10103000CD018093CC010DC08A819B819093CF011B
:101040008093CE0106C08A819B819093D1018093C9
:10105000D0010F900F900F900F900F90CF91DF91D4
:101060000895DF93CF9300D00F92CDB7DEB7898379
:101070008981282F30E03B832A838A819B818130BC
:10108000910589F02A813B8122303105A1F08A81C6
:101090009B810097B9F4ABE5B0E0EBE5F0E080812F
:1010A00080648C930FC0ABE5B0E0EBE5F0E08081AD
:1010B00080688C9307C0ABE5B0E0EBE5F0E08081A1
:1010C00080628C930F900F900F90CF91DF910895D5
:1010D000DF93CF9300D00F92CDB7DEB7898389819C
:1010E000282F30E03B832A838A819B8181309105C0
:1010F00089F02A813B8122303105A1F08A819B81D0
:101100000097B9F4ABE5B0E0EBE5F0E080818F7BD0
:101110008C930FC0ABE5B0E0EBE5F0E080818F771A
:101120008C9307C0ABE5B0E0EBE5F0E080818F7D0C
:101130008C930F900F900F90CF91DF910895DF93D4
:10114000CF93CDB7DEB72A970FB6F894DEBF0FBEA8
:10115000CDBF89836A838981282F30E03A87298728
:1011600089859A858130910509F466C029853A857B
:101170002230310509F4BBC089859A85009709F0B2
:10118000DDC08A81282F30E038872F838F819885B2
:101190008130910521F12F813885223031052CF4E1
:1011A0008F819885009761F0C9C02F8138852230E2
:1011B000310521F18F8198858330910571F1BEC091
:1011C000A5E5B0E0E5E5F0E080818E7F8C93A5E5B4
:1011D000B0E0E5E5F0E080818D7F8C93AFC0A5E5C0
:1011E000B0E0E5E5F0E0808181608C93A5E5B0E0BA
:1011F000E5E5F0E080818D7F8C93A0C0A5E5B0E0AF
:10120000E5E5F0E080818E7F8C93A5E5B0E0E5E533
:10121000F0E0808182608C9391C0A5E5B0E0E5E5C7
:10122000F0E0808181608C93A5E5B0E0E5E5F0E039
:10123000808182608C9382C08A81282F30E03E8337
:101240002D838D819E818130910521F12D813E81FB
:10125000223031052CF48D819E81009761F06EC0A3
:101260002D813E812230310521F18D819E81833097
:10127000910571F163C0A5E5B0E0E5E5F0E080819E
:101280008B7F8C93A5E5B0E0E5E5F0E08081877F7A
:101290008C9354C0A5E5B0E0E5E5F0E08081846082
:1012A0008C93A5E5B0E0E5E5F0E08081877F8C9345
:1012B00045C0A5E5B0E0E5E5F0E080818B7F8C934B
:1012C000A5E5B0E0E5E5F0E0808188608C9336C06C
:1012D000A5E5B0E0E5E5F0E0808184608C93A5E5CC
:1012E000B0E0E5E5F0E0808188608C9327C08A81DA
:1012F000282F30E03C832B838B819C8182309105A9
:1013000031F02B813C812330310549F010C0A4E538
:10131000B0E0E4E5F0E080818F7B8C930FC0A4E522
:10132000B0E0E4E5F0E0808180648C9307C0A4E540
:10133000B0E0E4E5F0E080818F7B8C932A960FB6D5
:10134000F894DEBF0FBECDBFCF91DF9108951F92FD
:101350000F920FB60F9211242F933F934F935F93E9
:101360006F937F938F939F93AF93BF93EF93FF936D
:10137000DF93CF93CDB7DEB78091CC019091CD01B3
:10138000009729F0E091CC01F091CD010995CF9122
:10139000DF91FF91EF91BF91AF919F918F917F91DD
:1013A0006F915F914F913F912F910F900FBE0F90D2
:1013B0001F9018951F920F920FB60F9211242F9322
:1013C0003F934F935F936F937F938F939F93AF93CD
:1013D000BF93EF93FF93DF93CF93CDB7DEB78091A9
:1013E000CE019091CF01009729F0E091CE01F091CC
:1013F000CF010995CF91DF91FF91EF91BF91AF910F
:101400009F918F917F916F915F914F913F912F911C
:101410000F900FBE0F901F9018951F920F920FB64E
:101420000F9211242F933F934F935F936F937F936A
:101430008F939F93AF93BF93EF93FF93DF93CF93DC
:10144000CDB7DEB78091D0019091D101009729F0FE
:10145000E091D001F091D1010995CF91DF91FF91F9
:10146000EF91BF91AF919F918F917F916F915F911C
:101470004F913F912F910F900FBE0F901F90189595
:10148000DF93CF9300D000D0CDB7DEB789836A83D6
:101490004B838A81883018F081E08C83D8C08981A1
:1014A000882391F58B818130A1F4AAE3B0E0EAE3CF
:1014B000F0E08081482F8A81282F30E081E090E0A1
:1014C000022E02C0880F991F0A94E2F7842B8C9396
:1014D000BDC08B818823A9F4AAE3B0E0EAE3F0E081
:1014E0008081482F8A81282F30E081E090E0022E11
:1014F00002C0880F991F0A94E2F7809584238C9389
:10150000A5C081E08C83A3C08981813091F58B8156
:101510008130A1F4A7E3B0E0E7E3F0E08081482F59
:101520008A81282F30E081E090E0022E02C0880FEF
:10153000991F0A94E2F7842B8C9388C08B818823AF
:10154000A9F4A7E3B0E0E7E3F0E08081482F8A81C7
:10155000282F30E081E090E0022E02C0880F991F12
:101560000A94E2F7809584238C9370C081E08C8389
:101570006EC08981823091F58B818130A1F4A4E322
:10158000B0E0E4E3F0E08081482F8A81282F30E04A
:1015900081E090E0022E02C0880F991F0A94E2F7C2
:1015A000842B8C9353C08B818823A9F4A4E3B0E0EF
:1015B000E4E3F0E08081482F8A81282F30E081E049
:1015C00090E0022E02C0880F991F0A94E2F78095DE
:1015D00084238C933BC081E08C8339C08981833024
:1015E00091F58B818130A1F4A1E3B0E0E1E3F0E07B
:1015F0008081482F8A81282F30E081E090E0022E00
:1016000002C0880F991F0A94E2F7842B8C931EC0A6
:101610008B818823A9F4A1E3B0E0E1E3F0E08081CD
:10162000482F8A81282F30E081E090E0022E02C00E
:10163000880F991F0A94E2F7809584238C9306C043
:1016400081E08C8304C081E08C8301C01C828C818A
:101650000F900F900F900F90CF91DF910895DF932F
:10166000CF9300D000D0CDB7DEB789836A834B8398
:101670008A81883018F081E08C83D8C089818823E2
:1016800091F58B818130A1F4ABE3B0E0EBE3F0E0C6
:101690008081482F8A81282F30E081E090E0022E5F
:1016A00002C0880F991F0A94E2F7842B8C93BDC067
:1016B0008B818823A9F4ABE3B0E0EBE3F0E0808119
:1016C000482F8A81282F30E081E090E0022E02C06E
:1016D000880F991F0A94E2F7809584238C93A5C004
:1016E00081E08C83A3C08981813091F58B81813029
:1016F000A1F4A8E3B0E0E8E3F0E08081482F8A811C
:10170000282F30E081E090E0022E02C0880F991F60
:101710000A94E2F7842B8C9388C08B818823A9F4E8
:10172000A8E3B0E0E8E3F0E08081482F8A81282F29
:1017300030E081E090E0022E02C0880F991F0A94E9
:10174000E2F7809584238C9370C081E08C836EC017
:101750008981823091F58B818130A1F4A5E3B0E0DD
:10176000E5E3F0E08081482F8A81282F30E081E096
:1017700090E0022E02C0880F991F0A94E2F7842B92
:101780008C9353C08B818823A9F4A5E3B0E0E5E3F3
:10179000F0E08081482F8A81282F30E081E090E0BE
:1017A000022E02C0880F991F0A94E2F780958423C5
:1017B0008C933BC081E08C8339C08981833091F563
:1017C0008B818130A1F4A2E3B0E0E2E3F0E080811C
:1017D000482F8A81282F30E081E090E0022E02C05D
:1017E000880F991F0A94E2F7842B8C931EC08B817B
:1017F0008823A9F4A2E3B0E0E2E3F0E08081482F7F
:101800008A81282F30E081E090E0022E02C0880F0C
:10181000991F0A94E2F7809584238C9306C081E097
:101820008C8304C081E08C8301C01C828C810F906A
:101830000F900F900F90CF91DF910895DF93CF938A
:1018400000D000D00F92CDB7DEB789836A835C8366
:101850004B838A81883018F041E04D8360C08981D4
:101860008823A1F4E9E3F0E08081282F30E08A8129
:10187000882F90E0A90102C0559547958A95E2F717
:10188000CA018170EB81FC81808348C089818130ED
:10189000A1F4E6E3F0E08081282F30E08A81882FF0
:1018A00090E0A90102C0559547958A95E2F7CA01D3
:1018B0008170EB81FC81808331C089818230A1F409
:1018C000E3E3F0E08081282F30E08A81882F90E0E8
:1018D000A90102C0559547958A95E2F7CA01817022
:1018E000EB81FC8180831AC089818330A1F4E0E31D
:1018F000F0E08081282F30E08A81882F90E0A901D4
:1019000002C0559547958A95E2F7CA018170EB812F
:10191000FC81808303C051E05D8301C01D828D8105
:101920000F900F900F900F900F90CF91DF9108952F
:10193000DF93CF9300D000D00F92CDB7DEB789836D
:101940006A838A81813031F08A81813019F021E007
:101950002D8353C08981282F30E03C832B838B81DA
:101960009C818130910509F12B813C812230310528
:101970002CF48B819C81009761F03BC02B813C81D2
:1019800022303105F1F08B819C818330910529F162
:1019900030C08A81813029F4EAE3F0E08FEF808360
:1019A0002BC0EAE3F0E0108227C08A81813029F45D
:1019B000E7E3F0E08FEF80831FC0E7E3F0E0108201
:1019C0001BC08A81813029F4E4E3F0E08FEF80834B
:1019D00013C0E4E3F0E010820FC08A81813029F463
:1019E000E1E3F0E08FEF808307C0E1E3F0E01082F5
:1019F00003C091E09D8301C01D828D810F900F90E7
:101A00000F900F900F90CF91DF910895DF93CF93B8
:101A100000D000D00F92CDB7DEB789836A838A8168
:101A2000813031F08A81882319F021E02D8353C061
:101A30008981282F30E03C832B838B819C818130EE
:101A4000910509F12B813C81223031052CF48B81E9
:101A50009C81009761F03BC02B813C812230310595
:101A6000F1F08B819C818330910529F130C08A810E
:101A7000813029F4EBE3F0E08FEF80832BC0EBE3C0
:101A8000F0E0108227C08A81813029F4E8E3F0E099
:101A90008FEF80831FC0E8E3F0E010821BC08A81D3
:101AA000813029F4E5E3F0E08FEF808313C0E5E3B4
:101AB000F0E010820FC08A81813029F4E2E3F0E087
:101AC0008FEF808307C0E2E3F0E0108203C091E073
:101AD0009D8301C01D828D810F900F900F900F90FC
:101AE0000F90CF91DF910895DF93CF9300D00F92A5
:101AF000CDB7DEB789836A838A81883018F081E0A8
:101B00008B8360C089818823A1F4ABE3B0E0EBE371
:101B1000F0E08081482F8A81282F30E081E090E03A
:101B2000022E02C0880F991F0A94E2F784278C9333
:101B300048C089818130A1F4A8E3B0E0E8E3F0E097
:101B40008081482F8A81282F30E081E090E0022EAA
:101B500002C0880F991F0A94E2F784278C9331C042
:101B600089818230A1F4A5E3B0E0E5E3F0E0808173
:101B7000482F8A81282F30E081E090E0022E02C0B9
:101B8000880F991F0A94E2F784278C931AC08981E1
:101B90008330A1F4A2E3B0E0E2E3F0E08081482FDB
:101BA0008A81282F30E081E090E0022E02C0880F69
:101BB000991F0A94E2F784278C9303C081E08B83FA
:101BC00001C01B828B810F900F900F90CF91DF91FE
:101BD0000895DF93CF9300D0CDB7DEB71A82198274
:101BE0001A821982A3C289819A81880F991F880F4E
:101BF000991FFC01EC5BFE4F8081882309F09BC09C
:101C000089819A81880F991F0196880F991FFC017D
:101C1000EC5BFE4F80818130E9F4AAE3B0E0EAE3B7
:101C2000F0E08081482F89819A81880F991F880F61
:101C3000991FFC01EB5BFE4F8081282F30E081E093
:101C400090E0022E02C0880F991F0A94E2F7842BBD
:101C50008C9367C2AAE3B0E0EAE3F0E08081482F0A
:101C600089819A81880F991F880F991FFC01EB5B6E
:101C7000FE4F8081282F30E081E090E0022E02C0EC
:101C8000880F991F0A94E2F7809584238C938981A9
:101C90009A81880F991F880F991FFC01E95BFE4FFD
:101CA00080818130E9F4ABE3B0E0EBE3F0E08081E8
:101CB000482F89819A81880F991F880F991FFC01ED
:101CC000EB5BFE4F8081282F30E081E090E0022E18
:101CD00002C0880F991F0A94E2F7842B8C9321C2CB
:101CE00089819A81880F991F880F991FFC01E95BF0
:101CF000FE4F8081882309F014C2ABE3B0E0EBE330
:101D0000F0E08081482F89819A81880F991F880F80
:101D1000991FFC01EB5BFE4F8081282F30E081E0B2
:101D200090E0022E02C0880F991F0A94E2F7809576
:101D300084238C93F6C189819A81880F991F880F1B
:101D4000991FFC01EC5BFE4F8081813009F09BC044
:101D500089819A81880F991F0196880F991FFC012C
:101D6000EC5BFE4F80818130E9F4A7E3B0E0E7E36C
:101D7000F0E08081482F89819A81880F991F880F10
:101D8000991FFC01EB5BFE4F8081282F30E081E042
:101D900090E0022E02C0880F991F0A94E2F7842B6C
:101DA0008C93BFC1A7E3B0E0E7E3F0E08081482F68
:101DB00089819A81880F991F880F991FFC01EB5B1D
:101DC000FE4F8081282F30E081E090E0022E02C09B
:101DD000880F991F0A94E2F7809584238C93898158
:101DE0009A81880F991F880F991FFC01E95BFE4FAC
:101DF00080818130E9F4A8E3B0E0E8E3F0E080819D
:101E0000482F89819A81880F991F880F991FFC019B
:101E1000EB5BFE4F8081282F30E081E090E0022EC6
:101E200002C0880F991F0A94E2F7842B8C9379C122
:101E300089819A81880F991F880F991FFC01E95B9E
:101E4000FE4F8081882309F06CC1ABE3B0E0EBE387
:101E5000F0E08081482F89819A81880F991F880F2F
:101E6000991FFC01EB5BFE4F8081282F30E081E061
:101E700090E0022E02C0880F991F0A94E2F7809525
:101E800084238C934EC189819A81880F991F880F72
:101E9000991FFC01EC5BFE4F8081823009F09BC0F2
:101EA00089819A81880F991F0196880F991FFC01DB
:101EB000EC5BFE4F80818130E9F4A4E3B0E0E4E321
:101EC000F0E08081482F89819A81880F991F880FBF
:101ED000991FFC01EB5BFE4F8081282F30E081E0F1
:101EE00090E0022E02C0880F991F0A94E2F7842B1B
:101EF0008C9317C1A4E3B0E0E4E3F0E08081482FC5
:101F000089819A81880F991F880F991FFC01EB5BCB
:101F1000FE4F8081282F30E081E090E0022E02C049
:101F2000880F991F0A94E2F7809584238C93898106
:101F30009A81880F991F880F991FFC01E95BFE4F5A
:101F400080818130E9F4A5E3B0E0E5E3F0E0808151
:101F5000482F89819A81880F991F880F991FFC014A
:101F6000EB5BFE4F8081282F30E081E090E0022E75
:101F700002C0880F991F0A94E2F7842B8C93D1C07A
:101F800089819A81880F991F880F991FFC01E95B4D
:101F9000FE4F8081882309F0C4C0ABE3B0E0EBE3DF
:101FA000F0E08081482F89819A81880F991F880FDE
:101FB000991FFC01EB5BFE4F8081282F30E081E010
:101FC00090E0022E02C0880F991F0A94E2F78095D4
:101FD00084238C93A6C089819A81880F991F880FCA
:101FE000991FFC01EC5BFE4F8081833009F099C0A2
:101FF00089819A81880F991F0196880F991FFC018A
:10200000EC5BFE4F80818130E9F4A1E3B0E0E1E3D5
:10201000F0E08081482F89819A81880F991F880F6D
:10202000991FFC01EB5BFE4F8081282F30E081E09F
:1020300090E0022E02C0880F991F0A94E2F7842BC9
:102040008C936FC0A1E3B0E0E1E3F0E08081482F22
:1020500089819A81880F991F880F991FFC01EB5B7A
:10206000FE4F8081282F30E081E090E0022E02C0F8
:10207000880F991F0A94E2F7809584238C938981B5
:102080009A81880F991F880F991FFC01E95BFE4F09
:1020900080818130E9F4A2E3B0E0E2E3F0E0808106
:1020A000482F89819A81880F991F880F991FFC01F9
:1020B000EB5BFE4F8081282F30E081E090E0022E24
:1020C00002C0880F991F0A94E2F7842B8C9329C0D1
:1020D00089819A81880F991F880F991FFC01E95BFC
:1020E000FE4F80818823E9F4ABE3B0E0EBE3F0E05E
:1020F0008081482F89819A81880F991F880F991FA5
:10210000FC01EB5BFE4F8081282F30E081E090E006
:10211000022E02C0880F991F0A94E2F7809584234B
:102120008C9389819A8101969A83898389819A8186
:102130008A3191050CF457CD80E00F900F90CF912C
:10214000DF910895DF93CF93CDB7DEB7E0970FB659
:10215000F894DEBF0FBECDBF81E060E041E00E9499
:102160002F0B80E090E0A0E2B1E48DA79EA7AFA77F
:10217000B8AB6DA57EA58FA598A92BEA3AEA4AEAE5
:1021800050E40E941F02DC01CB0189A79AA7ABA7EC
:10219000BCA769A57AA58BA59CA520E030E040E806
:1021A0005FE30E94250488231CF481E088A791C086
:1021B00069A57AA58BA59CA520E030E04FE753E404
:1021C0000E94C50318160CF07BC06DA57EA58FA5D7
:1021D00098A920E030E04AE754E40E941903DC01AA
:1021E000CB018CA39DA3AEA3BFA36CA17DA18EA1A7
:1021F0009FA120E030E04AE755E40E941F02DC0185
:10220000CB0188A399A3AAA3BBA368A179A18AA1A2
:102210009BA120E030E040E85FE30E942504882392
:102220002CF481E090E09F8F8E8F3FC068A179A150
:102230008AA19BA120E03FEF4FE757E40E94C5032E
:1022400018164CF56CA17DA18EA19FA120E030E075
:1022500040E251E40E941F02DC01CB01BC01CD0130
:102260000E944900DC01CB019F8F8E8F0FC080E957
:1022700091E09D8F8C8F8C8D9D8D0197F1F79D8FB7
:102280008C8F8E8D9F8D01979F8F8E8F8E8D9F8DC2
:10229000009769F724C068A179A18AA19BA10E9437
:1022A0004900DC01CB019F8F8E8F8E8D9F8D9B8F80
:1022B0008A8F8A8D9B8D0197F1F79B8F8A8F0FC034
:1022C00069A57AA58BA59CA50E944900DC01CB01DC
:1022D00088A788A5898F898D8A95F1F7898F81E0F4
:1022E00060E040E00E942F0B80E090E0AAEFB4E4B1
:1022F0008D8B9E8BAF8BB88F6D897E898F89988DE2
:102300002BEA3AEA4AEA50E40E941F02DC01CB01C0
:10231000898B9A8BAB8BBC8B69897A898B899C89D9
:1023200020E030E040E85FE30E94250488231CF4AD
:1023300081E0888B91C069897A898B899C8920E0AA
:1023400030E04FE753E40E94C50318160CF07BC041
:102350006D897E898F89988D20E030E04AE754E4CA
:102360000E941903DC01CB018C879D87AE87BF8754
:102370006C857D858E859F8520E030E04AE755E4B9
:102380000E941F02DC01CB0188879987AA87BB873F
:10239000688579858A859B8520E030E040E85FE3A9
:1023A0000E94250488232CF481E090E09F838E8393
:1023B0003FC0688579858A859B8520E03FEF4FE7A0
:1023C00057E40E94C50318164CF56C857D858E85F3
:1023D0009F8520E030E040E251E40E941F02DC01D2
:1023E000CB01BC01CD010E944900DC01CB019F83E0
:1023F0008E830FC080E991E09D838C838C819D81C9
:102400000197F1F79D838C838E819F8101979F8334
:102410008E838E819F81009769F724C068857985B6
:102420008A859B850E944900DC01CB019F838E83B6
:102430008E819F819B838A838A819B810197F1F79B
:102440009B838A830FC069897A898B899C890E94C2
:102450004900DC01CB01888B8889898389818A9531
:10246000F1F7898380E0E0960FB6F894DEBF0FBEE7
:10247000CDBFCF91DF910895DF93CF93CDB7DEB776
:1024800082E00E94DC1288E20E94DC128EE00E9450
:10249000DC1286E00E94DC1281E00E94DC1280E007
:1024A000CF91DF910895DF93CF93CDB7DEB72E970D
:1024B0000FB6F894DEBF0FBECDBF81E00E94DC12E4
:1024C00080E090E0A0E0B0E48B879C87AD87BE877A
:1024D0006B857C858D859E8520E030E04AE755E45C
:1024E0000E941F02DC01CB018F839887A987BA87DE
:1024F0006F81788589859A8520E030E040E85FE348
:102500000E94250488232CF481E090E09E838D8333
:102510003FC06F81788589859A8520E03FEF4FE73E
:1025200057E40E94C50318164CF56B857C858D8594
:102530009E8520E030E040E251E40E941F02DC0171
:10254000CB01BC01CD010E944900DC01CB019E837F
:102550008D830FC080E991E09C838B838B819C816C
:102560000197F1F79C838B838D819E8101979E83D8
:102570008D838D819E81009769F714C06F81788566
:1025800089859A850E944900DC01CB019E838D8359
:102590008D819E819A83898389819A810197F1F740
:1025A0009A83898380E02E960FB6F894DEBF0FBE23
:1025B000CDBFCF91DF910895DF93CF930F92CDB729
:1025C000DEB7898381E061E040E00E942F0B8981C2
:1025D000882334F480E066E041E00E942F0B05C0C0
:1025E00080E066E040E00E942F0B8981829586950D
:1025F00086958370882F90E081709070882331F0E9
:1026000080E065E041E00E942F0B05C080E065E0BE
:1026100040E00E942F0B8981829586958770882FD4
:1026200090E081709070882331F080E064E041E0B8
:102630000E942F0B05C080E064E040E00E942F0B59
:10264000898182958F70882F90E0817090708823A7
:1026500031F080E063E041E00E942F0B05C080E094
:1026600063E040E00E942F0B0E94A21089818695B2
:1026700086958695882F90E081709070882331F040
:1026800080E066E041E00E942F0B05C080E066E03C
:1026900040E00E942F0B898186958695882F90E0D7
:1026A00081709070882331F080E065E041E00E9405
:1026B0002F0B05C080E065E040E00E942F0B898170
:1026C0008695882F90E081709070882331F080E0AB
:1026D00064E041E00E942F0B05C080E064E040E030
:1026E0000E942F0B8981882F90E081709070882341
:1026F00031F080E063E041E00E942F0B05C080E0F4
:1027000063E040E00E942F0B0E94A21080E00F9037
:10271000CF91DF910895DF93CF930F92CDB7DEB7BE
:10272000898381E061E041E00E942F0B8981882349
:1027300034F480E066E041E00E942F0B05C080E0A9
:1027400066E040E00E942F0B8981829586958695F0
:102750008370882F90E081709070882331F080E042
:1027600065E041E00E942F0B05C080E065E040E09D
:102770000E942F0B8981829586958770882F90E023
:1027800081709070882331F080E064E041E00E9425
:102790002F0B05C080E064E040E00E942F0B898190
:1027A00082958F70882F90E081709070882331F02F
:1027B00080E063E041E00E942F0B05C080E063E011
:1027C00040E00E942F0B0E94A21089818695869579
:1027D0008695882F90E081709070882331F080E09A
:1027E00066E041E00E942F0B05C080E066E040E01B
:1027F0000E942F0B898186958695882F90E08170A5
:102800009070882331F080E065E041E00E942F0B5A
:1028100005C080E065E040E00E942F0B898186952D
:10282000882F90E081709070882331F080E064E020
:1028300041E00E942F0B05C080E064E040E00E9470
:102840002F0B8981882F90E081709070882331F060
:1028500080E063E041E00E942F0B05C080E063E070
:1028600040E00E942F0B0E94A21080E00F90CF91B9
:10287000DF910895DF93CF9300D00F92CDB7DEB7ED
:102880009B838A8381E061E041E00E942F0B1982E3
:102890000EC08981282F30E08A819B81FC01E20FE4
:1028A000F31F80810E948B1389818F5F89838981C7
:1028B000282F30E08A819B81FC01E20FF31F808189
:1028C000882339F780E00F900F900F90CF91DF9120
:1028D0000895DF93CF9300D000D0CDB7DEB79A83B1
:1028E00089836B834C8381E061E041E00E942F0B80
:1028F0008B816C810E94401789819A810E943A14D1
:1029000080E00F900F900F900F90CF91DF9108957E
:10291000DF93CF93CDB7DEB72E970FB6F894DEBF17
:102920000FBECDBF9E878D8781E061E041E00E94B0
:102930002F0B1A8219828D859E85009711F580E3F1
:102940000E948B1339C08A81E82FF0E08D859E8527
:102950002AE030E0B9010E94EB26282F205DCE014D
:102960000396E80FF91F20838D859E852AE030E0CD
:10297000B9010E94EB26CB019E878D878A818F5FEC
:102980008A838D859E850097F1F68A81898311C09F
:102990008981882F90E09C0121503040CE01039620
:1029A000FC01E20FF31F80810E948B13898181500B
:1029B00089838981882361F780E02E960FB6F89489
:1029C000DEBF0FBECDBFCF91DF910895DF93CF93D0
:1029D000CDB7DEB7A3970FB6F894DEBF0FBECDBF5D
:1029E00098A38F8F69A34AA381E061E041E00E9430
:1029F0002F0B89A1813009F076C080E80E94DC129B
:102A000080E090E0A0E8BFE3898F9A8FAB8FBC8F06
:102A1000698D7A8D8B8D9C8D20E030E04AE755E4FE
:102A20000E941F02DC01CB018D8B9E8BAF8BB88F78
:102A30006D897E898F89988D20E030E040E85FE3E2
:102A40000E94250488232CF481E090E09C8B8B8BE2
:102A50003FC06D897E898F89988D20E03FEF4FE7D9
:102A600057E40E94C50318164CF5698D7A8D8B8D3D
:102A70009C8D20E030E040E251E40E941F02DC0126
:102A8000CB01BC01CD010E944900DC01CB019C8B34
:102A90008B8B0FC080E991E09A8B898B89899A8909
:102AA0000197F1F79A8B898B8B899C8901979C8B75
:102AB0008B8B8B899C89009769F792C06D897E8981
:102AC0008F89988D0E944900DC01CB019C8B8B8BF8
:102AD0008B899C89988B8F878F8598890197F1F7CF
:102AE000988B8F877DC089A1823009F076C080ECF9
:102AF0000E94DC1280E090E0A0E2B1E48B879C872A
:102B0000AD87BE876B857C858D859E8520E030E016
:102B10004AE755E40E941F02DC01CB018F839887AE
:102B2000A987BA876F81788589859A8520E030E00A
:102B300040E85FE30E94250488232CF481E090E0C4
:102B40009E838D833FC06F81788589859A8520E03B
:102B50003FEF4FE757E40E94C50318164CF56B850D
:102B60007C858D859E8520E030E040E251E40E9426
:102B70001F02DC01CB01BC01CD010E944900DC0138
:102B8000CB019E838D830FC080E991E09C838B8372
:102B90008B819C810197F1F79C838B838D819E8132
:102BA00001979E838D838D819E81009769F718C060
:102BB0006F81788589859A850E944900DC01CB0167
:102BC0009E838D838D819E819A83898389819A8159
:102BD0000197F1F79A83898303C081E08BA31AC020
:102BE00081E090E09E8F8D8F08C08CE10E94DC1206
:102BF0008D8D9E8D01969E8F8D8F8AA1282F30E01E
:102C00008D8D9E8D2817390784F78F8D98A10E948E
:102C100088141BA28BA1A3960FB6F894DEBF0FBE3B
:102C2000CDBFCF91DF910895DF93CF93CDB7DEB7BE
:102C3000A2970FB6F894DEBF0FBECDBF8F8F68A3EB
:102C400049A381E061E041E00E942F0B88A181301F
:102C500009F076C080E80E94DC1280E090E0A0E8F5
:102C6000BFE3898F9A8FAB8FBC8F698D7A8D8B8DE7
:102C70009C8D20E030E04AE755E40E941F02DC0111
:102C8000CB018D8B9E8BAF8BB88F6D897E898F89A1
:102C9000988D20E030E040E85FE30E94250488231F
:102CA0002CF481E090E09C8B8B8B3FC06D897E89FA
:102CB0008F89988D20E03FEF4FE757E40E94C503CE
:102CC00018164CF5698D7A8D8B8D9C8D20E030E047
:102CD00040E251E40E941F02DC01CB01BC01CD01A6
:102CE0000E944900DC01CB019C8B8B8B0FC080E9DB
:102CF00091E09A8B898B89899A890197F1F79A8B50
:102D0000898B8B899C8901979C8B8B8B8B899C8968
:102D1000009769F792C06D897E898F89988D0E948E
:102D20004900DC01CB019C8B8B8B8B899C89988B18
:102D30008F878F8598890197F1F7988B8F877DC052
:102D400088A1823009F076C080EC0E94DC1280E01D
:102D500090E0A0E2B1E48B879C87AD87BE876B854E
:102D60007C858D859E8520E030E04AE755E40E9411
:102D70001F02DC01CB018F839887A987BA876F81F7
:102D8000788589859A8520E030E040E85FE30E94FD
:102D9000250488232CF481E090E09E838D833FC03E
:102DA0006F81788589859A8520E03FEF4FE757E46A
:102DB0000E94C50318164CF56B857C858D859E8514
:102DC00020E030E040E251E40E941F02DC01CB0130
:102DD000BC01CD010E944900DC01CB019E838D83A3
:102DE0000FC080E991E09C838B838B819C8101974C
:102DF000F1F79C838B838D819E8101979E838D83C8
:102E00008D819E81009769F718C06F8178858985CB
:102E10009A850E944900DC01CB019E838D838D81C0
:102E20009E819A83898389819A810197F1F79A8398
:102E3000898303C081E08AA319C081E090E09E8F5E
:102E40008D8F08C08CE10E94DC128D8D9E8D0196C5
:102E50009E8F8D8F89A1282F30E08D8D9E8D281714
:102E6000390784F78F8D0E948B131AA28AA1A2962C
:102E70000FB6F894DEBF0FBECDBFCF91DF9108959E
:102E8000DF93CF9300D000D00F92CDB7DEB7898308
:102E90006A838A8181508A838981282F30E03D832B
:102EA0002C838C819D818130910531F02C813D8175
:102EB0002230310531F00AC08A8180580E94DC122C
:102EC00008C08A8180540E94DC1203C031E03B8339
:102ED00001C01B828B810F900F900F900F900F906D
:102EE000CF91DF910895DF93CF9300D00F92CDB7AC
:102EF000DEB789836A838981882341F48A8180319E
:102F000048F58A8180580E94DC1224C08981813072
:102F100041F48A818031F0F48A8180540E94DC126D
:102F200019C08981823041F48A81803198F48A8184
:102F300080570E94DC120EC08981833041F48A815F
:102F4000803140F48A8180530E94DC1203C081E00A
:102F50008B8301C01B828B810F900F900F90CF91BC
:102F6000DF910895DF93CF93CDB7DEB765970FB6A6
:102F7000F894DEBF0FBECDBF9C8B8B8BEB89FC8999
:102F80008FEF80831F868B899C89009709F4EDC0A1
:102F9000198AE5C08989882F90E0FC01EE53FE4F25
:102FA000908180E0692F40E00E942F0B188AC1C0F9
:102FB0008889882F90E0FC01EA53FE4F90819E01A2
:102FC0002E5E3F4F83E0692FA9010E941E0C8A8963
:102FD000882309F0ABC080E090E0A0EAB1E48B87E1
:102FE0009C87AD87BE876B857C858D859E8520E01F
:102FF00030E04AE755E40E941F02DC01CB018F83D9
:103000009887A987BA876F81788589859A8520E016
:1030100030E040E85FE30E94250488232CF481E03F
:1030200090E09E838D833FC06F81788589859A85E6
:1030300020E03FEF4FE757E40E94C50318164CF518
:103040006B857C858D859E8520E030E040E251E4F3
:103050000E941F02DC01CB01BC01CD010E9449008E
:10306000DC01CB019E838D830FC080E991E09C83BE
:103070008B838B819C810197F1F79C838B838D815E
:103080009E8101979E838D838D819E81009769F734
:1030900014C06F81788589859A850E944900DC017A
:1030A000CB019E838D838D819E819A8389838981C3
:1030B0009A810197F1F79A8389838889882F90E014
:1030C000FC01EA53FE4F90819E012E5E3F4F83E04C
:1030D000692FA9010E941E0C0FC08889882F90E0DB
:1030E000FC01EA53FE4F90819E012E5E3F4F83E02C
:1030F000692FA9010E941E0C8A89882371F389898E
:10310000482F50E08889282F30E0CA01880F991F86
:10311000880F991F820F931FFC01EE54FE4F808190
:10312000EB89FC89808381E08F8707C088898F5F66
:10313000888B8889843008F43BCF8989882F90E078
:10314000FC01EE53FE4F908180E0692F41E00E9428
:103150002F0B8F85813039F089898F5F898B898921
:10316000843008F417CF1D8A02C081E08D8B8D89D1
:1031700065960FB6F894DEBF0FBECDBFCF91DF913D
:103180000895DF93CF93CDB7DEB781E08093F90147
:10319000CF91DF910895DF93CF93CDB7DEB7A1979D
:1031A0000FB6F894DEBF0FBECDBF8E8F6F8F59A3C1
:1031B00048A381E064E040E00E942F0B8E8D0E94C6
:1031C000E50780E090E0A8E4B3E4898F9A8FAB8FA5
:1031D000BC8F698D7A8D8B8D9C8D20E030E04AE725
:1031E00055E40E941F02DC01CB018D8B9E8BAF8BBF
:1031F000B88F6D897E898F89988D20E030E040E816
:103200005FE30E94250488232CF481E090E09C8BEE
:103210008B8B3FC06D897E898F89988D20E03FEF31
:103220004FE757E40E94C50318164CF5698D7A8D57
:103230008B8D9C8D20E030E040E251E40E941F0223
:10324000DC01CB01BC01CD010E944900DC01CB01B6
:103250009C8B8B8B0FC080E991E09A8B898B89893D
:103260009A890197F1F79A8B898B8B899C890197B1
:103270009C8B8B8B8B899C89009769F714C06D8917
:103280007E898F89988D0E944900DC01CB019C8B3F
:103290008B8B8B899C89988B8F878F8598890197D9
:1032A000F1F7988B8F8781E064E040E00E942F0B5C
:1032B0008F8D0E94E5071D8E1D8E85C080E090E0F9
:1032C000A6E9B3E48B879C87AD87BE876B857C8539
:1032D0008D859E8520E030E04AE755E40E941F027C
:1032E000DC01CB018F839887A987BA876F817885A6
:1032F00089859A8520E030E040E85FE30E9425045C
:1033000088232CF481E090E09E838D833FC06F8101
:10331000788589859A8520E03FEF4FE757E40E9442
:10332000C50318164CF56B857C858D859E8520E040
:1033300030E040E251E40E941F02DC01CB01BC01FD
:10334000CD010E944900DC01CB019E838D830FC01B
:1033500080E991E09C838B838B819C810197F1F7BD
:103360009C838B838D819E8101979E838D838D812C
:103370009E81009769F714C06F81788589859A8549
:103380000E944900DC01CB019E838D838D819E814B
:103390009A83898389819A810197F1F79A83898336
:1033A00081E064E040E00E942F0B8D8D282F30E0FB
:1033B00088A199A1FC01E20FF31F80810E94E5071B
:1033C0008D8D8F5F8D8F8D8D282F30E088A199A1F5
:1033D000FC01E20FF31F8081882309F06FCFA196D3
:1033E0000FB6F894DEBF0FBECDBFCF91DF91089529
:1033F0000F931F93DF93CF93CDB7DEB7C75ED04057
:103400000FB6F894DEBF0FBECDBF0E94E90D0E943B
:103410003C127894FE01E852FF4F1382FE01E852FD
:10342000FF4F1282FE01E852FF4F1182FE01E85267
:10343000FF4F80E18083FE01E852FF4F81E08483EB
:10344000CE0188529F4F0E944F06FE01E952FF4F66
:103450001082FE01EA52FF4F1082FE01EC52FF4F34
:1034600011821082FE01ED52FF4F108282E063E074
:103470000E949F0882E00E94310821EC38E182E03E
:10348000B9010E94F8071092F90180E690E00E94CD
:103490003A1481E065E00E9473178091F901282FAA
:1034A00030E0CA51DF4F39832883C65ED040CA510D
:1034B000DF4F48815981C65ED0404330510509F441
:1034C000E8C3CA51DF4F88819981C65ED0408430FD
:1034D0009105F4F4CA51DF4FE881F981C65ED0400E
:1034E000E130F10509F4EFC0CA51DF4F288139817D
:1034F000C65ED040223031050CF0C2C2CA51DF4F47
:1035000048815981C65ED0404115510519F1C5CF9A
:10351000CA51DF4F88819981C65ED04085309105C0
:1035200011F40C94E524CA51DF4FE881F981C65E9D
:10353000D040E530F10514F40C947023CA51DF4FEC
:1035400028813981C65ED0402630310511F40C94B3
:103550006526A3CF83E067E00E94740DFE01E1536E
:10356000FF4F80E090E0AAEFB3E480839183A283D1
:10357000B3838E0105531F4FFE01E153FF4F60815E
:1035800071818281938120E030E04AE755E40E9416
:103590001F02DC01CB01F80180839183A283B383F6
:1035A000FE01E553FF4F608171818281938120E0AC
:1035B00030E040E85FE30E942504882344F4FE01E4
:1035C000E753FF4F81E090E09183808364C0FE0168
:1035D000E553FF4F608171818281938120E03FEF4D
:1035E0004FE757E40E94C50318160CF043C0FE01D4
:1035F000E153FF4F608171818281938120E030E04F
:1036000040E251E40E941F02DC01CB018E0107530E
:103610001F4FBC01CD010E944900DC01CB01F80124
:10362000918380831FC0FE01E953FF4F80E991E041
:1036300091838083FE01E953FF4F8081918101973F
:10364000F1F7FE01E953FF4F91838083DE01A75319
:10365000BF4FFE01E753FF4F808191810197119683
:103660009C938E93FE01E753FF4F808191810097D9
:10367000D1F613CF8E0107531F4FFE01E553FF4FC5
:1036800060817181828193810E944900DC01CB01BC
:10369000F80191838083DE01AB53BF4FFE01E753F6
:1036A000FF4F8081918111969C938E93FE01EB5385
:1036B000FF4F808191810197F1F7FE01EB53FF4F9E
:1036C00091838083EACECE0180529F4F0E94B21731
:1036D000FE01E052FF4F80818F3F09F4DECE8AE287
:1036E0000E948B138091DD01882F90E0FE01E05253
:1036F000FF4F2081FC01E852FE4F20838091DD01C5
:103700008F5F8093DD018091DD01843008F4C5CEA8
:1037100088ED91E02CEA31E0B9010E943D27009745
:1037200009F0C6C00E94531281E790E00E943A144B
:1037300081E060E00E94731782E890E00E943A14F2
:10374000FE01EF53FF4F80E090E0AAEFB4E48083E6
:103750009183A283B3838E0103541F4FFE01EF5365
:10376000FF4F608171818281938120E030E04AE7E0
:1037700055E40E941F02DC01CB01F8018083918394
:10378000A283B383FE01E354FF4F60817181828184
:10379000938120E030E040E85FE30E942504882325
:1037A00044F4FE01E554FF4F81E090E09183808373
:1037B00064C0FE01E354FF4F608171818281938177
:1037C00020E03FEF4FE757E40E94C50318160CF0C6
:1037D00043C0FE01EF53FF4F60817181828193816D
:1037E00020E030E040E251E40E941F02DC01CB0106
:1037F0008E0105541F4FBC01CD010E944900DC0120
:10380000CB01F801918380831FC0FE01E754FF4F75
:1038100080E991E091838083FE01E754FF4F80812E
:1038200091810197F1F7FE01E754FF4F9183808367
:10383000DE01A554BF4FFE01E554FF4F8081918109
:10384000019711969C938E93FE01E554FF4F808162
:1038500091810097D1F628C08E0105541F4FFE01BB
:10386000E354FF4F60817181828193810E944900FE
:10387000DC01CB01F80191838083DE01A954BF4FA5
:10388000FE01E554FF4F8081918111969C938E93A8
:10389000FE01E954FF4F808191810197F1F7FE010C
:1038A000E954FF4F9183808382E08093F901F5CD45
:1038B0000E9453128DE890E00E943A1488ED91E046
:1038C00060E070E045E050E00E9436271092DD0194
:1038D000FE01ED54FF4F80E090E8ABEBB4E4808351
:1038E0009183A283B3838E0101551F4FFE01ED54D6
:1038F000FF4F608171818281938120E030E04AE74F
:1039000055E40E941F02DC01CB01F8018083918302
:10391000A283B383FE01E155FF4F608171818281F3
:10392000938120E030E040E85FE30E942504882393
:1039300044F4FE01E355FF4F81E090E091838083E2
:1039400064C0FE01E155FF4F6081718182819381E6
:1039500020E03FEF4FE757E40E94C50318160CF034
:1039600043C0FE01ED54FF4F6081718182819381DC
:1039700020E030E040E251E40E941F02DC01CB0174
:103980008E0103551F4FBC01CD010E944900DC018F
:10399000CB01F801918380831FC0FE01E555FF4FE5
:1039A00080E991E091838083FE01E555FF4F80819E
:1039B00091810197F1F7FE01E555FF4F91838083D7
:1039C000DE01A355BF4FFE01E355FF4F808191817A
:1039D000019711969C938E93FE01E355FF4F8081D2
:1039E00091810097D1F627C08E0103551F4FFE012C
:1039F000E155FF4F60817181828193810E9449006E
:103A0000DC01CB01F80191838083DE01A755BF4F14
:103A1000FE01E355FF4F808191818D939C93FE01C0
:103A2000E755FF4F808191810197F1F7FE01E7553E
:103A3000FF4F91838083DE01A952BF4FFE01E952FF
:103A4000FF4F80818F5F8C930E9453128CE990E02E
:103A50000E943A1481E065E00E947317FE01E9526A
:103A6000FF4F8081833009F018CD0E94531286EAFF
:103A700090E00E943A14FE01E952FF4F10820DCDF2
:103A80008091F4018823C9F40E94531282EB90E0E4
:103A90000E943A1481E060E00E9473178EEB90E080
:103AA0000E943A1482E060E00E94731789EC90E073
:103AB0000E943A1481E08093F401CE018F519F4F10
:103AC0000E94B217FE01EF51FF4F80818F3F09F432
:103AD000E4CCFE01EF51FF4F8081813331F410922D
:103AE000F40183E08093F901D8CCFE01EF51FF4F40
:103AF0008081823321F484E08093F901CECCFE01F1
:103B0000EF51FF4F8081833321F485E08093F901E9
:103B1000C4CC0E94531288ED90E00E943A14FE013A
:103B2000EB55FF4F80E090E0AAEFB4E480839183EF
:103B3000A283B3838E010F551F4FFE01EB55FF4F3C
:103B4000608171818281938120E030E04AE755E411
:103B50000E941F02DC01CB01F80180839183A283C4
:103B6000B383FE01EF55FF4F6081718182819381A4
:103B700020E030E040E85FE30E942504882344F41D
:103B8000FE01E156FF4F81E090E09183808364C0A5
:103B9000FE01EF55FF4F608171818281938120E0AA
:103BA0003FEF4FE757E40E94C50318160CF043C0DF
:103BB000FE01EB55FF4F608171818281938120E08E
:103BC00030E040E251E40E941F02DC01CB018E0193
:103BD00001561F4FBC01CD010E944900DC01CB0101
:103BE000F801918380831FC0FE01E356FF4F80E9F7
:103BF00091E091838083FE01E356FF4F80819181A4
:103C00000197F1F7FE01E356FF4F91838083DE01B8
:103C1000A156BF4FFE01E156FF4F80819181019770
:103C200011969C938E93FE01E156FF4F8081918106
:103C30000097D1F628C08E0101561F4FFE01EF55A7
:103C4000FF4F60817181828193810E944900DC0174
:103C5000CB01F80191838083DE01A556BF4FFE01A1
:103C6000E156FF4F8081918111969C938E93FE01C6
:103C7000E556FF4F808191810197F1F7FE01E556EE
:103C8000FF4F918380831092F40182E08093F901C9
:103C900004CCFE01ED52FF4F8081882309F02DC135
:103CA0008091F701882349F40E94531287EE90E037
:103CB0000E943A1481E08093F701CE018B519F4F0F
:103CC0000E94B217FE01EB51FF4F80818F3F09F434
:103CD000E4CB9091EE0181E0692F0E947317FE0101
:103CE000EB51FF4F80810E948B138091EE01282FB2
:103CF00030E0FE01EB51FF4F80818053F901E65126
:103D0000FE4F80838091EE01282F30E08091EE01FC
:103D1000882F90E0FC01E651FE4F8081F901E151CE
:103D2000FE4F80838091EE018F5F8093EE01809142
:103D3000EE01823008F4B1CB8091EE01882F90E043
:103D4000FC01E151FE4F1082FE01E956FF4F80E079
:103D500090E0AAEFB4E480839183A283B3838E01C1
:103D60000D561F4FFE01E956FF4F60817181828120
:103D7000938120E030E04AE755E40E941F02DC0115
:103D8000CB01F80180839183A283B383FE01ED56BA
:103D9000FF4F608171818281938120E030E040E8B3
:103DA0005FE30E942504882344F4FE01EF56FF4F91
:103DB00081E090E09183808364C0FE01ED56FF4F67
:103DC000608171818281938120E03FEF4FE757E46A
:103DD0000E94C50318160CF043C0FE01E956FF4FC0
:103DE000608171818281938120E030E040E251E482
:103DF0000E941F02DC01CB018E010F561F4FBC0138
:103E0000CD010E944900DC01CB01F8019183808340
:103E10001FC0FE01E157FF4F80E991E0918380834D
:103E2000FE01E157FF4F808191810197F1F7FE017B
:103E3000E157FF4F91838083DE01AF56BF4FFE01F4
:103E4000EF56FF4F80819181019711969C938E933D
:103E5000FE01EF56FF4F808191810097D1F627C078
:103E60008E010F561F4FFE01ED56FF4F608171818D
:103E7000828193810E944900DC01CB01F80191838A
:103E80008083DE01A357BF4FFE01EF56FF4F8081B5
:103E900091818D939C93FE01E357FF4F8081918127
:103EA0000197F1F7FE01E357FF4F918380838091E3
:103EB000EA01882F90E09C01220F331FC901880F6F
:103EC000991F880F991F820F931F982F8091EB01E4
:103ED000890F8093F3018AEE91E060E070E045E0A5
:103EE00050E00E9436271092EE011092F701FE0179
:103EF000ED52FF4F81E08083D0CA8091F501882385
:103F0000A9F40E94531285EF90E00E943A1481E0D8
:103F100060E00E94731782E091E00E943A148FEEF5
:103F200091E00E943A1481E08093F501CE018E5118
:103F30009F4F0E94B217FE01EE51FF4F80818F3FCD
:103F400009F4ABCAFE01EE51FF4F8081813309F0C5
:103F50007EC1FE01E757FF4F80E090E0A8E4B3E4A4
:103F600080839183A283B3838E010B571F4FFE0181
:103F7000E757FF4F608171818281938120E030E0BB
:103F80004AE755E40E941F02DC01CB01F80180835F
:103F90009183A283B383FE01EB57FF4F6081718150
:103FA0008281938120E030E040E85FE30E942504B5
:103FB000882344F4FE01ED57FF4F81E090E09183A8
:103FC000808364C0FE01EB57FF4F60817181828165
:103FD000938120E03FEF4FE757E40E94C503181696
:103FE0000CF043C0FE01E757FF4F60817181828171
:103FF000938120E030E040E251E40E941F02DC01A6
:10400000CB018E010D571F4FBC01CD010E9449000D
:10401000DC01CB01F801918380831FC0FE01EF57C3
:10402000FF4F80E991E091838083FE01EF57FF4FBE
:10403000808191810197F1F7FE01EF57FF4F918346
:104040008083DE01AD57BF4FFE01ED57FF4F8081EA
:104050009181019711969C938E93FE01ED57FF4F2E
:10406000808191810097D1F627C08E010D571F4F97
:10407000FE01EB57FF4F60817181828193810E9425
:104080004900DC01CB01F80191838083DE01A15856
:10409000BF4FFE01ED57FF4F808191818D939C931F
:1040A000FE01E158FF4F808191810197F1F7FE01F8
:1040B000E158FF4F918380832FEE31E083E067E08A
:1040C000A9010E94CB18FE01E558FF4F80E090E463
:1040D000ACE9B5E480839183A283B3838E01095850
:1040E0001F4FFE01E558FF4F6081718182819381EE
:1040F00020E030E04AE755E40E941F02DC01CB01DA
:10410000F80180839183A283B383FE01E958FF4FB6
:10411000608171818281938120E030E040E85FE33B
:104120000E942504882344F4FE01EB58FF4F81E0F0
:1041300090E09183808364C0FE01E958FF4F608165
:1041400071818281938120E03FEF4FE757E40E9425
:10415000C50318160CF043C0FE01E558FF4F6081FF
:1041600071818281938120E030E040E251E40E943D
:104170001F02DC01CB018E010B581F4FBC01CD018A
:104180000E944900DC01CB01F801918380831FC0AC
:10419000FE01ED58FF4F80E991E091838083FE019D
:1041A000ED58FF4F808191810197F1F7FE01ED58A5
:1041B000FF4F91838083DE01AB58BF4FFE01EB5868
:1041C000FF4F80819181019711969C938E93FE0100
:1041D000EB58FF4F808191810097D1F628C08E0166
:1041E0000B581F4FFE01E958FF4F6081718182819A
:1041F00093810E944900DC01CB01F8019183808307
:10420000DE01AF58BF4FFE01EB58FF4F8081918117
:1042100011969C938E93FE01EF58FF4F8081918100
:104220000197F1F7FE01EF58FF4F918380831092C1
:10423000D7011092D6011092F5011092F401FE01FF
:10424000ED52FF4F108282E08093F90126C9FE01F2
:10425000EE51FF4F8081823309F07FC1FE01E359A7
:10426000FF4F80E090E0A8E4B3E480839183A283D1
:10427000B3838E0107591F4FFE01E359FF4F608141
:1042800071818281938120E030E04AE755E40E9409
:104290001F02DC01CB01F80180839183A283B383E9
:1042A000FE01E759FF4F608171818281938120E097
:1042B00030E040E85FE30E942504882344F4FE01D7
:1042C000E959FF4F81E090E09183808364C0FE0153
:1042D000E759FF4F608171818281938120E03FEF38
:1042E0004FE757E40E94C50318160CF043C0FE01C7
:1042F000E359FF4F608171818281938120E030E03A
:1043000040E251E40E941F02DC01CB018E010959F9
:104310001F4FBC01CD010E944900DC01CB01F80117
:10432000918380831FC0FE01EB59FF4F80E991E02C
:1043300091838083FE01EB59FF4F8081918101972A
:10434000F1F7FE01EB59FF4F91838083DE01A959FC
:10435000BF4FFE01E959FF4F80819181019711966E
:104360009C938E93FE01E959FF4F808191810097C4
:10437000D1F627C08E0109591F4FFE01E759FF4FA3
:1043800060817181828193810E944900DC01CB01AF
:10439000F80191838083DE01AD59BF4FFE01E959D9
:1043A000FF4F808191818D939C93FE01ED59FF4FCA
:1043B000808191810197F1F7FE01ED59FF4F9183C3
:1043C00080832FEE31E083E068E0A9010E94CB18E2
:1043D000FE01E15AFF4F80E090E4ACE9B5E4808350
:1043E0009183A283B3838E01055A1F4FFE01E15AC8
:1043F000FF4F608171818281938120E030E04AE744
:1044000055E40E941F02DC01CB01F80180839183F7
:10441000A283B383FE01E55AFF4F608171818281DF
:10442000938120E030E040E85FE30E942504882388
:1044300044F4FE01E75AFF4F81E090E091838083CE
:1044400064C0FE01E55AFF4F6081718182819381D2
:1044500020E03FEF4FE757E40E94C50318160CF029
:1044600043C0FE01E15AFF4F6081718182819381D7
:1044700020E030E040E251E40E941F02DC01CB0169
:104480008E01075A1F4FBC01CD010E944900DC017B
:10449000CB01F801918380831FC0FE01E95AFF4FD1
:1044A00080E991E091838083FE01E95AFF4F80818A
:1044B00091810197F1F7FE01E95AFF4F91838083C3
:1044C000DE01A75ABF4FFE01E75AFF4F808191815D
:1044D000019711969C938E93FE01E75AFF4F8081BE
:1044E00091810097D1F628C08E01075A1F4FFE0117
:1044F000E55AFF4F60817181828193810E9449005A
:10450000DC01CB01F80191838083DE01AB5ABF4F00
:10451000FE01E75AFF4F8081918111969C938E9303
:10452000FE01EB5AFF4F808191810197F1F7FE0167
:10453000EB5AFF4F918380831092F5011092F401A2
:104540001092D7011092D601FE01ED52FF4F10825A
:1045500082E08093F9010C944D1A0E94531288ED69
:1045600090E00E943A14FE01EF5AFF4F80E090E085
:10457000AAEFB4E480839183A283B3838E01035BAB
:104580001F4FFE01EF5AFF4F60817181828193813D
:1045900020E030E04AE755E40E941F02DC01CB0135
:1045A000F80180839183A283B383FE01E35BFF4F15
:1045B000608171818281938120E030E040E85FE397
:1045C0000E942504882344F4FE01E55BFF4F81E04F
:1045D00090E09183808364C0FE01E35BFF4F6081C4
:1045E00071818281938120E03FEF4FE757E40E9481
:1045F000C50318160CF043C0FE01EF5AFF4F60814F
:1046000071818281938120E030E040E251E40E9498
:104610001F02DC01CB018E01055B1F4FBC01CD01E8
:104620000E944900DC01CB01F801918380831FC007
:10463000FE01E75BFF4F80E991E091838083FE01FB
:10464000E75BFF4F808191810197F1F7FE01E75B06
:10465000FF4F91838083DE01A55BBF4FFE01E55BC9
:10466000FF4F80819181019711969C938E93FE015B
:10467000E55BFF4F808191810097D1F628C08E01C4
:10468000055B1F4FFE01E35BFF4F608171818281FB
:1046900093810E944900DC01CB01F8019183808362
:1046A000DE01A95BBF4FFE01E55BFF4F8081918179
:1046B00011969C938E93FE01E95BFF4F808191815F
:1046C0000197F1F7FE01E95BFF4F91838083FE01C3
:1046D000ED52FF4F108283E08093F9010C944D1A44
:1046E0008091F601882349F40E94531280E191E001
:1046F0000E943A1481E08093F601CE018D519F4FC4
:104700000E94B217FE01ED51FF4F80818F3F11F4DF
:104710000C944D1A9091E30181E0692F0E94731768
:10472000FE01ED51FF4F80810E948B138091E301C8
:10473000282F30E0FE01ED51FF4F80818053F901B9
:10474000E252FE4F80838091E3018F5F8093E3010B
:104750008091E301833010F40C944D1A8091DE01B6
:10476000282F30E084E690E0AC01249FC001259F13
:10477000900D349F900D1124482F8091DF01882FD8
:1047800090E09C01220F331FC901880F991F880FE9
:10479000991F820F931F942F980F8091E001FE01C3
:1047A000EA52FF4F890F8083FE01ED5BFF4F80E0EF
:1047B00090E0A8E4B3E480839183A283B3838E0165
:1047C000015C1F4FFE01ED5BFF4F608171818281B3
:1047D000938120E030E04AE755E40E941F02DC01AB
:1047E000CB01F80180839183A283B383FE01FF96FE
:1047F000608171818281938120E030E040E85FE355
:104800000E94250488232CF481E090E09EAF8DAFB8
:1048100046C0FE01FF96608171818281938120E014
:104820003FEF4FE757E40E94C503181664F5FE01F9
:10483000ED5BFF4F608171818281938120E030E0E8
:1048400040E251E40E941F02DC01CB01BC01CD011A
:104850000E944900DC01CB019EAF8DAF0FC080E903
:1048600091E09CAF8BAF8BAD9CAD0197F1F79CAF06
:104870008BAF8DAD9EAD01979EAF8DAF8DAD9EADD3
:10488000009769F716C0FE01FF96608171818281F1
:1048900093810E944900DC01CB019EAF8DAF8DADAD
:1048A0009EAD9AAF89AF89AD9AAD0197F1F79AAFF6
:1048B00089AF2EED31E085E066E0A9010E94CB18BA
:1048C00080E090E4ACE9B5E48DAB9EABAFABB8AFA4
:1048D0006DA97EA98FA998AD20E030E04AE755E4A4
:1048E0000E941F02DC01CB0189AB9AABABABBCAB26
:1048F00069A97AA98BA99CA920E030E040E85FE390
:104900000E94250488232CF481E090E098AB8FA7C7
:104910003FC069A97AA98BA99CA920E03FEF4FE786
:1049200057E40E94C50318164CF56DA97EA98FA9FE
:1049300098AD20E030E040E251E40E941F02DC012B
:10494000CB01BC01CD010E944900DC01CB0198AB39
:104950008FA70FC080E991E09EA78DA78DA59EA58A
:104960000197F1F79EA78DA78FA598A9019798ABFE
:104970008FA78FA598A9009769F714C069A97AA98C
:104980008BA99CA90E944900DC01CB0198AB8FA7A1
:104990008FA598A99CA78BA78BA59CA50197F1F73C
:1049A0009CA78BA78EED91E060E070E045E050E0C1
:1049B0000E9436271092E3011092F6011092F40142
:1049C00082E08093F9010C944D1A8091F8018823BC
:1049D00049F40E9453128EE191E00E943A1481E062
:1049E0008093F801CE018C519F4F0E94B217FE01B7
:1049F000EC51FF4F80818F3F11F40C944D1A909130
:104A0000E90181E0692F0E947317FE01EC51FF4F0D
:104A100080810E948B138091E901882331F4FE018B
:104A2000EC51FF4F80818093D5018091E901282FBF
:104A300030E0FE01EC51FF4F80818053F901EC51D1
:104A4000FE4F80838091E9018F5F8093E90180911F
:104A5000E901833010F40C944D1A8091D5018B320A
:104A6000D1F48091E501882F90E09C01220F331F43
:104A7000C901880F991F880F991F280F391F80912E
:104A8000E601882F90E0FE01EC52FF4F820F931F4A
:104A9000918380831CC08091E501882F90E09C0168
:104AA000220F331FC901880F991F880F991F820F8A
:104AB000931F909581959F4F2091E601222F30E022
:104AC000FE01EC52FF4F821B930B9183808380E0A9
:104AD00090E0A8E4B3E48FA398A7A9A7BAA76FA111
:104AE00078A589A59AA520E030E04AE755E40E9420
:104AF0001F02DC01CB018BA39CA3ADA3BEA36BA1C2
:104B00007CA18DA19EA120E030E040E85FE30E94FF
:104B1000250488232CF481E090E09AA389A33FC068
:104B20006BA17CA18DA19EA120E03FEF4FE757E450
:104B30000E94C50318164CF56FA178A589A59AA502
:104B400020E030E040E251E40E941F02DC01CB0192
:104B5000BC01CD010E944900DC01CB019AA389A3CD
:104B60000FC080E991E098A38F8F8F8D98A1019756
:104B7000F1F798A38F8F89A19AA101979AA389A38E
:104B800089A19AA1009769F714C06BA17CA18DA19E
:104B90009EA10E944900DC01CB019AA389A389A1AF
:104BA0009AA19E8F8D8F8D8D9E8D0197F1F79E8F8F
:104BB0008D8F24EE31E084E066E0A9010E94CB18DD
:104BC00080E090E4ACE9B5E4898F9A8FAB8FBC8F1D
:104BD000698D7A8D8B8D9C8D20E030E04AE755E41D
:104BE0000E941F02DC01CB018D8B9E8BAF8BB88F97
:104BF0006D897E898F89988D20E030E040E85FE301
:104C00000E94250488232CF481E090E09C8B8B8B00
:104C10003FC06D897E898F89988D20E03FEF4FE7F7
:104C200057E40E94C50318164CF5698D7A8D8B8D5B
:104C30009C8D20E030E040E251E40E941F02DC0144
:104C4000CB01BC01CD010E944900DC01CB019C8B52
:104C50008B8B0FC080E991E09A8B898B89899A8927
:104C60000197F1F79A8B898B8B899C8901979C8B93
:104C70008B8B8B899C89009769F714C06D897E891D
:104C80008F89988D0E944900DC01CB019C8B8B8B16
:104C90008B899C89988B8F878F8598890197F1F7ED
:104CA000988B8F8784EE91E060E070E045E050E003
:104CB0000E9436271092E9011092F8011092F40137
:104CC00082E08093F9010C944D1A0E9453128DE2F8
:104CD00091E00E943A1480E090E0AAE7B4E48B8768
:104CE0009C87AD87BE876B857C858D859E8520E002
:104CF00030E04AE755E40E941F02DC01CB018F83BC
:104D00009887A987BA876F81788589859A8520E0F9
:104D100030E040E85FE30E94250488232CF481E022
:104D200090E09E838D833FC06F81788589859A85C9
:104D300020E03FEF4FE757E40E94C50318164CF5FB
:104D40006B857C858D859E8520E030E040E251E4D6
:104D50000E941F02DC01CB01BC01CD010E94490071
:104D6000DC01CB019E838D830FC080E991E09C83A1
:104D70008B838B819C810197F1F79C838B838D8141
:104D80009E8101979E838D838D819E81009769F717
:104D900014C06F81788589859A850E944900DC015D
:104DA000CB019E838D838D819E819A8389838981A6
:104DB0009A810197F1F79A83898380E090E0C95145
:104DC000DF4F0FB6F894DEBF0FBECDBFCF91DF919E
:104DD0001F910F910895AA1BBB1B51E107C0AA1F89
:104DE000BB1FA617B70710F0A61BB70B881F991F8C
:104DF0005A95A9F780959095BC01CD0108952F9201
:104E00003F924F925F926F927F928F929F92AF925A
:104E1000BF92CF92DF92EF92FF920F931F93CF93A7
:104E2000DF93CDB7DEB7CA1BDB0B0FB6F894DEBF3E
:104E30000FBECDBF09942A88398848885F846E8464
:104E40007D848C849B84AA84B984C884DF80EE80AE
:104E5000FD800C811B81AA81B981CE0FD11D0FB6B7
:104E6000F894DEBF0FBECDBFED010895DC0101C097
:104E70006D9341505040E0F70895FB01DC018D91A6
:104E8000019080190110D9F3990B0895F894FFCF80
:104E9000456E7465722050617373776F7264202160
:104EA0000057656C636F6D6520746F204D6F746F74
:104EB00072004461736820626F6172640057726FA0
:104EC0006E672050617373776F726400547279203B
:104ED000616761696E00426C6F636B6564202121BC
:104EE0002100312D204443204D6F746F7200322D0C
:104EF000205374657070657200332D20536572768F
:104F00006F204D6F746F7200496E76616C6964201A
:104F10004F7074696F6E00537065656428302D3969
:104F200039293A2000312D20526F74617465204375
:104F30005700322D20526F7461746520434357002F
:104F4000416E676C65283364696729203A005369AC
:104F5000676E656420616E676C65203A004578690C
:104F6000742053797374656D203A290000000000A5
:104F7000000000000000010000010100000201002B
:104F8000000301000004010000050100000601000B
:104F90000007010002000100010200000100010001
:104FA00001010100030200010303000103040001E9
:104FB00003060001010001000307010003050100D1
:104FC00000000000000000000000000000000000E1
:104FD0000000000000000000000000003132333407
:104FE00000093738392F3435362A3132332D4330E2
:0A4FF0003D2B000102070203040636
:00000001FF
