:100000000C942A000C948C0D0C94BF0D0C94F20DE2
:100010000C9447000C9447000C9447000C94470044
:100020000C9447000C9447000C94AA0B0C94670B9B
:100030000C9447000C9447000C9447000C94470024
:100040000C9447000C9447000C9447000C94470014
:100050000C94470011241FBECFE5D8E0DEBFCDBF12
:1000600012E0A0E6B0E0EEEEF3E502C005900D92DE
:10007000A43DB107D9F713E0A4EDB2E001C01D9291
:10008000AD31B107E1F70E94D7200C94F5290C940B
:100090000000EF92FF920F931F937B018C0120E0F1
:1000A00030E040E05FE40E94F50388238CF0C80153
:1000B000B70120E030E040E05FE40E94C1010E940F
:1000C000B3049B01AC01205030404040504806C072
:1000D000C801B7010E94B3049B01AC01B901CA0178
:1000E0001F910F91FF90EF900895A0E0B0E0EBE733
:1000F000F0E00C94AE29DC012B01FA019C919230C6
:1001000008F439C1EB018881823008F433C194309E
:1001100069F4843009F02FC111969C91119789815F
:10012000981709F428C1ACE3B1E025C1843009F483
:1001300021C18230A9F4923009F01DC19A01AD01AC
:1001400088E0EA010990AE01E90109929E0181501F
:10015000C1F7E201898111969C918923818308C1AD
:10016000923009F407C112962D903C901397EB0141
:100170008A819B811496AD90BD90CD90DC901797AD
:10018000EC80FD800E811F819101281B390BB90184
:1001900037FF04C066277727621B730B6032710537
:1001A0000CF061C0121613066CF537014801062EDB
:1001B00004C096948794779467940A94D2F721E0C8
:1001C00030E040E050E004C0220F331F441F551FB1
:1001D0006A95D2F721503040404050402E213F21B7
:1001E00040235123211531054105510521F021E01E
:1001F00030E040E050E079018A01E628F72808293C
:1002000019293CC0232BD1F1260E371E350146019A
:10021000062E04C096948794779467940A94D2F734
:1002200021E030E040E050E004C0220F331F441FC3
:10023000551F6A95D2F721503040404050402A2146
:100240003B214C215D21211531054105510521F04E
:1002500021E030E040E050E059016A01A628B728CB
:10026000C828D9280BC0821593052CF01C01AA249C
:10027000BB24650103C0EE24FF24870111969C91E5
:10028000D20111968C91981709F445C0992339F041
:10029000A80197012A193B094C095D0906C0A6016E
:1002A00095012E193F09400B510B57FD08C01182D3
:1002B0003382228224833583468357831DC081E0A5
:1002C00081833382228288279927DC01821B930B4A
:1002D000A40BB50B84839583A683B7830DC0220F2F
:1002E000331F441F551F24833583468357838281E0
:1002F000938101979383828324813581468157813D
:10030000DA01C9010197A109B1098F5F9F4FAF4F72
:10031000BF4328F30BC0918333822282EA0CFB1C7B
:100320000C1D1D1DE482F5820683178383E0808304
:10033000248135814681578157FF1AC0C901AA27F8
:1003400097FDA095BA2F81709070A070B0705695EF
:10035000479537952795822B932BA42BB52B848318
:100360009583A683B7838281938101969383828349
:10037000DF0101C0D201CD01CDB7DEB7E2E10C94BF
:10038000CA29A0E2B0E0E7ECF1E00C94BA29698355
:100390007A838B839C832D833E834F835887E9E048
:1003A000EE2EF12CEC0EFD1ECE010196B7010E943F
:1003B000A4068E010F5E1F4FCE010596B8010E9464
:1003C000A4068A8991E089278A8BC701B801AE010A
:1003D000475E5F4F0E9475000E94CF05A096E6E041
:1003E0000C94D629A0E2B0E0E8EFF1E00C94BA2931
:1003F00069837A838B839C832D833E834F835887C5
:10040000F9E0EF2EF12CEC0EFD1ECE010196B701A6
:100410000E94A4068E010F5E1F4FCE010596B80103
:100420000E94A406C701B801AE01475E5F4F0E945B
:1004300075000E94CF05A096E6E00C94D629A0E2B4
:10044000B0E0E5E2F2E00C94AE2969837A838B8315
:100450009C832D833E834F835887CE010196BE0136
:10046000675F7F4F0E94A406CE010596BE016F5EB6
:100470007F4F0E94A4069985923088F08989823046
:10048000C8F0943019F4823051F404C0843029F457
:10049000923081F48CE391E0C6C0923049F420E0C0
:1004A0009A858A89981321E02A87CE010996BBC0D4
:1004B000823049F420E09A858A89981321E02A8BBA
:1004C000CE014196B0C02D843E844F8458886D88FB
:1004D0007E888F88988CEE24FF248701AA24BB2471
:1004E000650140E050E060E070E0E0E0F0E0C10174
:1004F00081709070892BE9F0E60CF71C081D191D1E
:100500009A01AB012A0D3B1D4C1D5D1D80E090E062
:10051000A0E0B0E0E614F7040805190520F481E036
:1005200090E0A0E0B0E0BA01A901480F591F6A1F8E
:100530007B1FAA0CBB1CCC1CDD1C97FE08C081E0F5
:1005400090E0A0E0B0E0A82AB92ACA2ADB2A3196B6
:10055000E032F10549F0660C771C881C991C569412
:10056000479437942794C3CFFA85EA892B893C892D
:100570008B859C85280F391F2E5F3F4F17C0CA01FE
:1005800081709070892B61F016950795F794E79428
:1005900080E090E0A0E0B0E8E82AF92A0A2B1B2BC3
:1005A00076956795579547952F5F3F4F77FDE7CF36
:1005B0000CC0440F551F661F771F17FD4160EE0CDE
:1005C000FF1C001F111F21503040403090E05907A0
:1005D00090E0690790E4790760F32B8F3C8FDB0193
:1005E000CA018F779070A070B07080349105A1051A
:1005F000B10561F447FD0AC0E114F10401051105DC
:1006000029F0405C5F4F6F4F7F4F40781A8EFE1786
:1006100011F081E08A8F4D8F5E8F6F8F78A383E01A
:10062000898FCE0149960E94CF05A096E2E10C94F5
:10063000CA29A8E1B0E0EFE1F3E00C94B6296983A0
:100640007A838B839C832D833E834F835887B9E0C5
:10065000EB2EF12CEC0EFD1ECE010196B7010E948F
:10066000A4068E010F5E1F4FCE010596B8010E94B1
:10067000A4062985223008F47EC03989323010F46E
:10068000B8017CC08A859A8989278A87243011F02D
:10069000223031F4231709F06EC06CE371E06EC0B4
:1006A000343039F41D861E861F86188A1C861B86E8
:1006B00004C0323021F484E08987B7015FC02B8504
:1006C0003C858B899C89281B390B3C872B87ED84C3
:1006D000FE840F851889AD88BE88CF88D88CEA142F
:1006E000FB040C051D0540F4EE0CFF1C001F111F40
:1006F000215030403C872B8720E030E040E050E044
:1007000080E090E0A0E0B0E460E070E0EA14FB0478
:100710000C051D0540F0282B392B4A2B5B2BEA18C2
:10072000FB080C091D09B695A79597958795EE0CC2
:10073000FF1C001F111F6F5F7F4F6F31710531F775
:10074000DA01C9018F779070A070B0708034910584
:10075000A105B10561F427FD0AC0E114F10401050A
:10076000110529F0205C3F4F4F4F5F4F20782D87B8
:100770003E874F87588BBE01675F7F4FCB010E943A
:10078000CF056896EAE00C94D229A8E1B0E0EBEC42
:10079000F3E00C94BA2969837A838B839C832D833D
:1007A0003E834F83588789E0E82EF12CEC0EFD1E26
:1007B000CE010196B7010E94A4068E010F5E1F4F65
:1007C000CE010596B8010E94A4068985823040F0CA
:1007D0008989823028F0C701B8010E941C0701C036
:1007E0008FEF6896E6E00C94D629A8E1B0E0EBEF35
:1007F000F3E00C94BA2969837A838B839C832D83DD
:100800003E834F83588789E0E82EF12CEC0EFD1EC5
:10081000CE010196B7010E94A4068E010F5E1F4F04
:10082000CE010596B8010E94A4068985823040F069
:100830008989823028F0C701B8010E941C0701C0D5
:100840008FEF6896E6E00C94D629A8E1B0E0EBE2E1
:10085000F4E00C94BA2969837A838B839C832D837B
:100860003E834F83588789E0E82EF12CEC0EFD1E65
:10087000CE010196B7010E94A4068E010F5E1F4FA4
:10088000CE010596B8010E94A4068985823040F009
:100890008989823028F0C701B8010E941C0701C075
:1008A00081E06896E6E00C94D629A8E0B0E0EBE59C
:1008B000F4E00C94B7299B01AC0183E08983DA0151
:1008C000C9018827B7FD83959927AA27BB27B82E8A
:1008D000211531054105510519F482E089833AC09B
:1008E0008823A9F0203080E0380780E0480780E8BE
:1008F000580729F460E070E080E09FEC30C0EE24FF
:10090000FF248701E21AF30A040B150B02C07901D8
:100910008A018EE1C82ED12CDC82CB82ED82FE8250
:100920000F831887C801B7010E9480050197181628
:10093000190684F4082E04C0EE0CFF1C001F111FC2
:100940000A94D2F7ED82FE820F831887C81AD90A5B
:10095000DC82CB82BA82CE0101960E94CF05289616
:10096000E9E00C94D329ACE0B0E0E9EBF4E00C94BE
:10097000BE2969837A838B839C83CE010196BE0155
:100980006B5F7F4F0E94A4068D81823061F18230BF
:1009900050F1843021F48E81882351F12EC02F81B3
:1009A000388537FD20C06E812F3131051CF066235C
:1009B000F9F023C08EE190E0821B930B29853A85E4
:1009C0004B855C8504C056954795379527958A9544
:1009D000D2F76623B1F050954095309521953F4F61
:1009E0004F4F5F4F0EC020E030E040E050E009C0C4
:1009F0002FEF3FEF4FEF5FE704C020E030E040E033
:100A000050E8B901CA012C96E2E00C94DA29A8E07A
:100A1000B0E0EDE0F5E00C94B6297B018C016115A6
:100A200071058105910519F482E0898360C083E036
:100A300089838EE1C82ED12CDC82CB82ED82FE82AE
:100A40000F831887C801B7010E948005FC01319708
:100A5000F7FF3BC0222733272E1B3F0B57016801AE
:100A6000022E04C0D694C794B794A7940A94D2F7E0
:100A700040E050E060E070E081E090E0A0E0B0E0B5
:100A800004C0880F991FAA1FBB1F2A95D2F7019790
:100A9000A109B1098E219F21A023B1230097A105AF
:100AA000B10521F041E050E060E070E04A295B29A7
:100AB0006C297D294D835E836F8378878EE190E07A
:100AC0008E1B9F0B9C838B8312C0309781F00E2E60
:100AD00004C0EE0CFF1C001F111F0A94D2F7ED8218
:100AE000FE820F831887CE1ADF0ADC82CB821A823D
:100AF000CE0101960E94CF052896EAE00C94D229F7
:100B0000EF92FF920F931F937B018C0180E0E81618
:100B100080E0F80681E0080780E0180788F48FEF8E
:100B2000E816F1040105110531F028F088E090E0A5
:100B3000A0E0B0E017C080E090E0A0E0B0E012C01C
:100B400080E0E81680E0F80680E0080781E01807FA
:100B500028F088E190E0A0E0B0E004C080E190E0FF
:100B6000A0E0B0E020E230E040E050E0281B390B8C
:100B70004A0B5B0B04C016950795F794E7948A958A
:100B8000D2F7F701EC5BFE4F8081281B3109410948
:100B90005109C9011F910F91FF90EF900895DF92C5
:100BA000EF92FF920F931F93FC01E480F580068182
:100BB0001781D1808081823048F480E090E0A0E10C
:100BC000B0E0E82AF92A0A2B1B2BA5C0843009F4CF
:100BD0009FC0823021F4EE24FF24870105C0E11478
:100BE000F1040105110519F4E0E0F0E096C062811E
:100BF00073819FEF623879070CF05BC022E83FEF0A
:100C0000261B370B2A3131052CF020E030E040E084
:100C100050E02AC0B801A701022E04C0769567955E
:100C2000579547950A94D2F781E090E0A0E0B0E0B4
:100C300004C0880F991FAA1FBB1F2A95D2F70197DE
:100C4000A109B1098E219F21A023B1230097A105FD
:100C5000B10521F081E090E0A0E0B0E09A01AB01A5
:100C6000282B392B4A2B5B2BDA01C9018F77907027
:100C7000A070B07080349105A105B10539F427FF4B
:100C800009C0205C3F4F4F4F5F4F04C0215C3F4F76
:100C90004F4F5F4FE0E0F0E02030A0E03A07A0E0E7
:100CA0004A07A0E45A0710F0E1E0F0E079018A0178
:100CB00027C06038710564F5FB01E158FF4FD8018A
:100CC000C7018F779070A070B07080349105A10536
:100CD000B10539F4E7FE0DC080E490E0A0E0B0E09B
:100CE00004C08FE390E0A0E0B0E0E80EF91E0A1F18
:100CF0001B1F17FF05C016950795F794E7943196CB
:100D000087E016950795F794E7948A95D1F705C083
:100D1000EE24FF248701EFEFF0E06E2F6795662742
:100D20006795902F9F77D794DD24D7948E2F869543
:100D3000492F462B582F5D29B701CA011F910F91EA
:100D4000FF90EF90DF900895FC01DB01408151811D
:100D50002281622F6F7770E0221F2227221F93814A
:100D6000892F880F822B282F30E0991F9927991FF0
:100D700011969C93119721153105A9F5411551053F
:100D80006105710511F482E037C082E89FEF139688
:100D90009C938E9312979A01AB0167E0220F331F49
:100DA000441F551F6A95D1F783E08C930DC0220F25
:100DB000331F441F551F12968D919C9113970197D5
:100DC00013969C938E931297203080E0380780E032
:100DD000480780E4580758F314962D933D934D939C
:100DE0005C93179708952F3F310579F4411551050C
:100DF0006105710519F484E08C93089564FF03C0C4
:100E000081E08C9312C01C9210C02F573040139673
:100E10003C932E93129783E08C9387E0440F551FE9
:100E2000661F771F8A95D1F7706414964D935D9372
:100E30006D937C93179708951F93DC01FB019C91A0
:100E4000923008F447C08081823008F443C0943067
:100E500051F411961C91843099F58181682F70E0CE
:100E6000611B71093FC0843021F0923031F482302F
:100E7000B9F18181882389F12DC011961C911197B8
:100E80008230F1F081811817D9F412962D913C919E
:100E90001397828193818217930794F0281739075B
:100EA000BCF014968D919D910D90BC91A02D248144
:100EB000358146815781281739074A075B0718F49F
:100EC000112341F00AC082179307A407B50740F425
:100ED000112319F061E070E005C06FEF7FEF02C0F1
:100EE00060E070E0CB011F910895DF93CF93CDB701
:100EF000DEB72A970FB6F894DEBF0FBECDBF9B8337
:100F00008A8381E089838A819B81009719F481E03B
:100F10008983BBC08A819B812DE033E03F832E8390
:100F20009987888735E03A87E885F98500802885A4
:100F300039852F5F3F4F39872887EE81FF810082F7
:100F40002E813F812F5F3F4F3F832E833A85315063
:100F50003A878A85882341F7EA81FB818081843042
:100F600008F05EC01982EA81FB818081E82FF0E001
:100F7000FD83EC832C813D812130310521F18C8171
:100F80009D81823091052CF4EC81FD81309761F0D8
:100F900049C02C813D812230310521F18C819D8118
:100FA0008330910571F13EC0A3E5B0E0E3E5F0E0E8
:100FB00080818F7B8C93A3E5B0E0E3E5F0E0808156
:100FC000877F8C932FC0A3E5B0E0E3E5F0E080815C
:100FD00080648C93A3E5B0E0E3E5F0E08081877F57
:100FE0008C9320C0A3E5B0E0E3E5F0E080818F7B47
:100FF0008C93A3E5B0E0E3E5F0E0808188608C931A
:1010000011C0A3E5B0E0E3E5F0E0808180648C935B
:10101000A3E5B0E0E3E5F0E0808188608C9302C056
:1010200081E08983EA81FB818181883058F4A3E5DE
:10103000B0E0E3E5F0E09081EA81FB818181892BDA
:101040008C9302C081E08983A3E5B0E0E3E5F0E0A2
:101050008081282FEA81FB818281882F90E0829510
:101060009295907F9827807F9827822B8C93A9E573
:10107000B0E0E9E5F0E02081EA81FB819381EA813B
:10108000FB818481892B822B8C9389812A960FB6D0
:10109000F894DEBF0FBECDBFCF91DF910895DF93EF
:1010A000CF93CDB7DEB7A3E5B0E0E3E5F0E0808114
:1010B0008E7F8C93A3E5B0E0E3E5F0E080818D7F47
:1010C0008C93A3E5B0E0E3E5F0E080818B7F8C9327
:1010D00080E0CF91DF910895DF93CF9300D0CDB71B
:1010E000DEB79A838983ECE5F0E08081E981FA81BB
:1010F000808380E00F900F90CF91DF910895DF9370
:10110000CF930F92CDB7DEB78983ECE5F0E089810C
:10111000808380E00F90CF91DF910895DF93CF938C
:1011200000D0CDB7DEB79A838983E2E5F0E0808115
:10113000E981FA81808380E00F900F90CF91DF9159
:101140000895DF93CF930F92CDB7DEB78983E2E5A1
:10115000F0E08981808380E00F90CF91DF91089546
:10116000DF93CF9300D0CDB7DEB79A838983809188
:10117000D9029091DA02A091DB02B091DC02E98100
:10118000FA81808380E00F900F90CF91DF910895D6
:101190000F931F93DF93CF9300D000D00F92CDB762
:1011A000DEB76A837B838C839D8380910D038330BC
:1011B00029F080910D03813009F057C080910F0311
:1011C000823011F50CE510E06A817B818C819D8174
:1011D00020E030E048EC52E40E941903DC01CB012E
:1011E000BC01CD0120E030E040E853E40E941F0242
:1011F000DC01CB01BC01CD010E944900DC01CB0127
:101200008150F80180832FC080910F03833059F5FE
:101210000CE510E06A817B818C819D8120E030E0CB
:1012200040E853E40E941F02DC01CB01BC01CD0168
:1012300020E030E048EC52EC0E941903DC01CB01C5
:10124000BC01CD0120E030E040E853E40E94F2010F
:10125000DC01CB01BC01CD010E944900DC01CB01C6
:101260008150F8018083198202C081E089838981DD
:101270000F900F900F900F900F90CF91DF911F91D3
:101280000F910895DF93CF93CDB7DEB767970FB671
:10129000F894DEBF0FBECDBF6D877E878F87988B9A
:1012A0009E01285F3F4F3C8B2B8B81EB92E09E8B06
:1012B0008D8B95E09F8BED89FE8900802D893E897D
:1012C0002F5F3F4F3E8B2D8BEB89FC8900822B8952
:1012D0003C892F5F3F4F3C8B2B8B3F8931503F8B9D
:1012E0008F89882341F7CE0108960E9475071F82D7
:1012F0001E828985E82FF0E0FA8BE98B29893A89EB
:101300002330310549F189899A89843091057CF42B
:10131000E989FA89E130F10549F129893A892230D0
:101320003105FCF489899A89009729F126C0E98959
:10133000FA89E530F10531F029893A8925303105FE
:1013400034F01BC080E094E09F838E8316C080E061
:1013500091E09F838E8311C080E490E09F838E8311
:101360000CC088E090E09F838E8307C081E090E00E
:101370009F838E8302C01F821E828E819F81CC013B
:10138000A0E0B0E028EE33E040E050E0BC01CD0149
:101390000E9459299B01AC0180E094E2A4EFB0E0E7
:1013A000BC01CD010E948C29DA01C9012D853E8541
:1013B0004F855889BC01CD010E945929DC01CB0120
:1013C0008A839B83AC83BD838A819B81AC81BD81F1
:1013D000892F9A2FAB2FBB278093D9029093DA02E3
:1013E000A093DB02B093DC028A81898380E00E94B3
:1013F000A1088091D9029091DA02A091DB02B0910C
:10140000DC020097A105B105A1F7E2E5F0E09081CB
:1014100089819817D0F30E944F08A9E5B0E0E9E56B
:10142000F0E080818E7F8C9367960FB6F894DEBFD4
:101430000FBECDBFCF91DF910895DF93CF9300D042
:10144000CDB7DEB79A83898389819A819093D5023B
:101450008093D4020F900F90CF91DF910895DF9386
:10146000CF9300D0CDB7DEB79A83898389819A81E3
:101470009093D7028093D6020F900F90CF91DF9177
:101480000895DF93CF93CDB7DEB72A970FB6F894C0
:10149000DEBF0FBECDBF9B838A8381E089838A81B3
:1014A0009B81009719F481E08983EAC08A819B813E
:1014B00022E133E03F832E839987888738E03A879B
:1014C000E885F9850080288539852F5F3F4F39876A
:1014D0002887EE81FF8100822E813F812F5F3F4F61
:1014E0003F832E833A8531503A878A85882341F796
:1014F000EA81FB818081833008F06FC01982EA8124
:10150000FB818081E82FF0E0FD83EC832C813D811D
:101510002130310541F18C819D818230910509F4A2
:101520003FC0EC81FD81309709F059C0AFE4B0E0D5
:10153000EFE4F0E080818E7F8C93AFE4B0E0EFE4E5
:10154000F0E080818D7F8C93AEE4B0E0EEE4F0E0DB
:101550008081877F8C93AEE4B0E0EEE4F0E08081A0
:101560008F7E8C933CC0AFE4B0E0EFE4F0E080818C
:101570008E7F8C93AFE4B0E0EFE4F0E08081826096
:101580008C93AEE4B0E0EEE4F0E0808188608C9370
:10159000AEE4B0E0EEE4F0E0808180618C931FC0A7
:1015A000AFE4B0E0EFE4F0E0808181608C93AFE4E1
:1015B000B0E0EFE4F0E0808182608C93AEE4B0E0D4
:1015C000EEE4F0E0808188608C93AEE4B0E0EEE47D
:1015D000F0E0808180618C9302C081E08983EA81A0
:1015E000FB818181883058F4AEE4B0E0EEE4F0E0B5
:1015F0009081EA81FB818181892B8C9302C081E0FB
:101600008983AFE4B0E0EFE4F0E08081282FEA8145
:10161000FB818281882F90E000249695879507941E
:10162000969587950794982F802D822B8C93AFE405
:10163000B0E0EFE4F0E08081282FEA81FB81838134
:10164000882F90E082959295907F9827807F9827A9
:10165000822B8C93A9E5B0E0E9E5F0E02081EA81F6
:10166000FB819481EA81FB818581982BEA81FB8152
:101670008681982BEA81FB818781892B822B8C9331
:1016800089812A960FB6F894DEBF0FBECDBFCF91E9
:10169000DF910895DF93CF93CDB7DEB7AEE4B0E02E
:1016A000EEE4F0E080818E7F8C93AEE4B0E0EEE477
:1016B000F0E080818D7F8C93AEE4B0E0EEE4F0E06A
:1016C00080818B7F8C9380E0CF91DF9108951F9272
:1016D0000F920FB60F9211248F939F93AF93BF93E6
:1016E000EF93FF93DF93CF93CDB7DEB78091D9020D
:1016F0009091DA02A091DB02B091DC020097A10583
:10170000B105A1F08091D9029091DA02A091DB029B
:10171000B091DC020197A109B1098093D90290939D
:10172000DA02A093DB02B093DC0207C0A9E5B0E0C7
:10173000E9E5F0E080818E7F8C93CF91DF91FF917E
:10174000EF91BF91AF919F918F910F900FBE0F902E
:101750001F9018951F920F920FB60F9211242F937E
:101760003F934F935F936F937F938F939F93AF9329
:10177000BF93EF93FF93DF93CF93CDB7DEB7809105
:10178000D6029091D702009729F0E091D602F0910D
:10179000D7020995CF91DF91FF91EF91BF91AF9162
:1017A0009F918F917F916F915F914F913F912F9179
:1017B0000F900FBE0F901F901895DF93CF9300D01E
:1017C00000D00F92CDB7DEB789837B836A8389818E
:1017D000282F30E03D832C838C819D8181309105C1
:1017E00081F02C813D812230310591F08C819D81E9
:1017F0000097A1F48A819B819093DF028093DE029F
:101800000DC08A819B819093E1028093E00206C023
:101810008A819B819093E3028093E2020F900F9064
:101820000F900F900F90CF91DF910895DF93CF939A
:1018300000D00F92CDB7DEB789838981282F30E0A1
:101840003B832A838A819B818130910589F02A819B
:101850003B8122303105A1F08A819B810097B9F448
:10186000ABE5B0E0EBE5F0E0808180648C930FC0E5
:10187000ABE5B0E0EBE5F0E0808180688C9307C0D9
:10188000ABE5B0E0EBE5F0E0808180628C930F90F7
:101890000F900F90CF91DF910895DF93CF9300D0F9
:1018A0000F92CDB7DEB789838981282F30E03B8343
:1018B0002A838A819B818130910589F02A813B812D
:1018C00022303105A1F08A819B810097B9F4ABE504
:1018D000B0E0EBE5F0E080818F7B8C930FC0ABE54F
:1018E000B0E0EBE5F0E080818F778C9307C0ABE54B
:1018F000B0E0EBE5F0E080818F7D8C930F900F904E
:101900000F90CF91DF910895DF93CF93CDB7DEB7DE
:101910002A970FB6F894DEBF0FBECDBF89836A83C6
:101920008981282F30E03A87298789859A858130F7
:10193000910509F466C029853A852230310509F4FC
:10194000BBC089859A85009709F0DDC08A81282F60
:1019500030E038872F838F8198858130910521F180
:101960002F813885223031052CF48F81988500979E
:1019700061F0C9C02F8138852230310521F18F8176
:1019800098858330910571F1BEC0A5E5B0E0E5E52D
:10199000F0E080818E7F8C93A5E5B0E0E5E5F0E096
:1019A00080818D7F8C93AFC0A5E5B0E0E5E5F0E0E8
:1019B000808181608C93A5E5B0E0E5E5F0E0808171
:1019C0008D7F8C93A0C0A5E5B0E0E5E5F0E08081D7
:1019D0008E7F8C93A5E5B0E0E5E5F0E08081826044
:1019E0008C9391C0A5E5B0E0E5E5F0E080818160F1
:1019F0008C93A5E5B0E0E5E5F0E0808182608C9312
:101A000082C08A81282F30E03E832D838D819E8184
:101A10008130910521F12D813E81223031052CF458
:101A20008D819E81009761F06EC02D813E812230B4
:101A3000310521F18D819E818330910571F163C063
:101A4000A5E5B0E0E5E5F0E080818B7F8C93A5E52E
:101A5000B0E0E5E5F0E08081877F8C9354C0A5E598
:101A6000B0E0E5E5F0E0808184608C93A5E5B0E02E
:101A7000E5E5F0E08081877F8C9345C0A5E5B0E087
:101A8000E5E5F0E080818B7F8C93A5E5B0E0E5E5AE
:101A9000F0E0808188608C9336C0A5E5B0E0E5E594
:101AA000F0E0808184608C93A5E5B0E0E5E5F0E0AE
:101AB000808188608C9327C08A81282F30E03C8306
:101AC0002B838B819C818230910531F02B813C816D
:101AD0002330310549F010C0A4E5B0E0E4E5F0E0C2
:101AE00080818F7B8C930FC0A4E5B0E0E4E5F0E04B
:101AF000808180648C9307C0A4E5B0E0E4E5F0E069
:101B000080818F7B8C932A960FB6F894DEBF0FBE30
:101B1000CDBFCF91DF9108951F920F920FB60F9214
:101B200011242F933F934F935F936F937F938F93E2
:101B30009F93AF93BF93EF93FF93DF93CF93CDB773
:101B4000DEB78091DE029091DF02009729F0E091EC
:101B5000DE02F091DF020995CF91DF91FF91EF91C5
:101B6000BF91AF919F918F917F916F915F914F91B5
:101B70003F912F910F900FBE0F901F9018951F92BD
:101B80000F920FB60F9211242F933F934F935F93B1
:101B90006F937F938F939F93AF93BF93EF93FF9335
:101BA000DF93CF93CDB7DEB78091E0029091E10251
:101BB000009729F0E091E002F091E1020995CF91C0
:101BC000DF91FF91EF91BF91AF919F918F917F91A5
:101BD0006F915F914F913F912F910F900FBE0F909A
:101BE0001F9018951F920F920FB60F9211242F93EA
:101BF0003F934F935F936F937F938F939F93AF9395
:101C0000BF93EF93FF93DF93CF93CDB7DEB7809170
:101C1000E2029091E302009729F0E091E202F09154
:101C2000E3020995CF91DF91FF91EF91BF91AF91C1
:101C30009F918F917F916F915F914F913F912F91E4
:101C40000F900FBE0F901F901895DF93CF9300D089
:101C500000D0CDB7DEB789836A834B838A81883011
:101C600018F081E08C83D8C08981882391F58B811D
:101C70008130A1F4AAE3B0E0EAE3F0E08081482FEC
:101C80008A81282F30E081E090E0022E02C0880F88
:101C9000991F0A94E2F7842B8C93BDC08B81882313
:101CA000A9F4AAE3B0E0EAE3F0E08081482F8A815A
:101CB000282F30E081E090E0022E02C0880F991FAB
:101CC0000A94E2F7809584238C93A5C081E08C83ED
:101CD000A3C08981813091F58B818130A1F4A7E384
:101CE000B0E0E7E3F0E08081482F8A81282F30E0E0
:101CF00081E090E0022E02C0880F991F0A94E2F75B
:101D0000842B8C9388C08B818823A9F4A7E3B0E04F
:101D1000E7E3F0E08081482F8A81282F30E081E0DE
:101D200090E0022E02C0880F991F0A94E2F7809576
:101D300084238C9370C081E08C836EC08981823053
:101D400091F58B818130A1F4A4E3B0E0E4E3F0E00D
:101D50008081482F8A81282F30E081E090E0022E98
:101D600002C0880F991F0A94E2F7842B8C9353C00A
:101D70008B818823A9F4A4E3B0E0E4E3F0E0808160
:101D8000482F8A81282F30E081E090E0022E02C0A7
:101D9000880F991F0A94E2F7809584238C933BC0A7
:101DA00081E08C8339C08981833091F58B818130CA
:101DB000A1F4A1E3B0E0E1E3F0E08081482F8A8163
:101DC000282F30E081E090E0022E02C0880F991F9A
:101DD0000A94E2F7842B8C931EC08B818823A9F48C
:101DE000A1E3B0E0E1E3F0E08081482F8A81282F71
:101DF00030E081E090E0022E02C0880F991F0A9423
:101E0000E2F7809584238C9306C081E08C8304C024
:101E100081E08C8301C01C828C810F900F900F9009
:101E20000F90CF91DF910895DF93CF9300D000D032
:101E3000CDB7DEB789836A834B838A81883018F0F7
:101E400081E08C83D8C08981882391F58B81813092
:101E5000A1F4ABE3B0E0EBE3F0E08081482F8A81AE
:101E6000282F30E081E090E0022E02C0880F991FF9
:101E70000A94E2F7842B8C93BDC08B818823A9F44C
:101E8000ABE3B0E0EBE3F0E08081482F8A81282FBC
:101E900030E081E090E0022E02C0880F991F0A9482
:101EA000E2F7809584238C93A5C081E08C83A3C046
:101EB0008981813091F58B818130A1F4A8E3B0E074
:101EC000E8E3F0E08081482F8A81282F30E081E02C
:101ED00090E0022E02C0880F991F0A94E2F7842B2B
:101EE0008C9388C08B818823A9F4A8E3B0E0E8E351
:101EF000F0E08081482F8A81282F30E081E090E057
:101F0000022E02C0880F991F0A94E2F7809584235D
:101F10008C9370C081E08C836EC08981823091F592
:101F20008B818130A1F4A5E3B0E0E5E3F0E08081AE
:101F3000482F8A81282F30E081E090E0022E02C0F5
:101F4000880F991F0A94E2F7842B8C9353C08B81DE
:101F50008823A9F4A5E3B0E0E5E3F0E08081482F11
:101F60008A81282F30E081E090E0022E02C0880FA5
:101F7000991F0A94E2F7809584238C933BC081E0FB
:101F80008C8339C08981833091F58B818130A1F4B4
:101F9000A2E3B0E0E2E3F0E08081482F8A81282FBD
:101FA00030E081E090E0022E02C0880F991F0A9471
:101FB000E2F7842B8C931EC08B818823A9F4A2E3C3
:101FC000B0E0E2E3F0E08081482F8A81282F30E002
:101FD00081E090E0022E02C0880F991F0A94E2F778
:101FE000809584238C9306C081E08C8304C081E0BB
:101FF0008C8301C01C828C810F900F900F900F90EA
:10200000CF91DF910895DF93CF9300D000D00F924E
:10201000CDB7DEB789836A835C834B838A8188303E
:1020200018F041E04D8360C089818823A1F4E9E381
:10203000F0E08081282F30E08A81882F90E0A9018C
:1020400002C0559547958A95E2F7CA018170EB81E8
:10205000FC81808348C089818130A1F4E6E3F0E00F
:102060008081282F30E08A81882F90E0A90102C06A
:10207000559547958A95E2F7CA018170EB81FC81FD
:10208000808331C089818230A1F4E3E3F0E0808174
:10209000282F30E08A81882F90E0A90102C0559551
:1020A00047958A95E2F7CA018170EB81FC818083B4
:1020B0001AC089818330A1F4E0E3F0E08081282F09
:1020C00030E08A81882F90E0A90102C0559547959C
:1020D0008A95E2F7CA018170EB81FC81808303C09D
:1020E00051E05D8301C01D828D810F900F900F9094
:1020F0000F900F90CF91DF910895DF93CF9300D091
:1021000000D00F92CDB7DEB789836A838A81813090
:1021100031F08A81813019F021E02D8353C089810B
:10212000282F30E03C832B838B819C81813091056B
:1021300009F12B813C81223031052CF48B819C816B
:10214000009761F03BC02B813C8122303105F1F0DA
:102150008B819C818330910529F130C08A81813047
:1021600029F4EAE3F0E08FEF80832BC0EAE3F0E0AC
:10217000108227C08A81813029F4E7E3F0E08FEFF5
:1021800080831FC0E7E3F0E010821BC08A818130AA
:1021900029F4E4E3F0E08FEF808313C0E4E3F0E0A0
:1021A00010820FC08A81813029F4E1E3F0E08FEFE3
:1021B000808307C0E1E3F0E0108203C091E09D83DB
:1021C00001C01D828D810F900F900F900F900F9086
:1021D000CF91DF910895DF93CF9300D000D00F927D
:1021E000CDB7DEB789836A838A81813031F08A81F5
:1021F000882319F021E02D8353C08981282F30E0F6
:102200003C832B838B819C818130910509F12B814B
:102210003C81223031052CF48B819C81009761F048
:102220003BC02B813C8122303105F1F08B819C81B8
:102230008330910529F130C08A81813029F4EBE3A4
:10224000F0E08FEF80832BC0EBE3F0E0108227C03B
:102250008A81813029F4E8E3F0E08FEF80831FC0AA
:10226000E8E3F0E010821BC08A81813029F4E5E3C5
:10227000F0E08FEF808313C0E5E3F0E010820FC041
:102280008A81813029F4E2E3F0E08FEF808307C098
:10229000E2E3F0E0108203C091E09D8301C01D8263
:1022A0008D810F900F900F900F900F90CF91DF9135
:1022B0000895DF93CF9300D00F92CDB7DEB7898317
:1022C0006A838A81883018F081E08B8360C08981BD
:1022D0008823A1F4ABE3B0E0EBE3F0E08081482F8A
:1022E0008A81282F30E081E090E0022E02C0880F22
:1022F000991F0A94E2F784278C9348C08981813022
:10230000A1F4A8E3B0E0E8E3F0E08081482F8A81FF
:10231000282F30E081E090E0022E02C0880F991F44
:102320000A94E2F784278C9331C089818230A1F42A
:10233000A5E3B0E0E5E3F0E08081482F8A81282F13
:1023400030E081E090E0022E02C0880F991F0A94CD
:10235000E2F784278C931AC089818330A1F4A2E329
:10236000B0E0E2E3F0E08081482F8A81282F30E05E
:1023700081E090E0022E02C0880F991F0A94E2F7D4
:1023800084278C9303C081E08B8301C01B828B81E7
:102390000F900F900F90CF91DF910895DF93CF931F
:1023A00000D0CDB7DEB71A8219821A821982A3C271
:1023B00089819A81880F991F880F991FFC01EC5B16
:1023C000FD4F8081882309F09BC089819A81880F05
:1023D000991F0196880F991FFC01EC5BFD4F8081CE
:1023E0008130E9F4AAE3B0E0EAE3F0E08081482F2D
:1023F00089819A81880F991F880F991FFC01EB5BD7
:10240000FD4F8081282F30E081E090E0022E02C055
:10241000880F991F0A94E2F7842B8C9367C2AAE372
:10242000B0E0EAE3F0E08081482F89819A81880F4B
:10243000991F880F991FFC01EB5BFD4F8081282FAE
:1024400030E081E090E0022E02C0880F991F0A94CC
:10245000E2F7809584238C9389819A81880F991F54
:10246000880F991FFC01E95BFD4F80818130E9F401
:10247000ABE3B0E0EBE3F0E08081482F89819A8103
:10248000880F991F880F991FFC01EB5BFD4F80811E
:10249000282F30E081E090E0022E02C0880F991FC3
:1024A0000A94E2F7842B8C9321C289819A81880F48
:1024B000991F880F991FFC01E95BFD4F80818823DC
:1024C00009F014C2ABE3B0E0EBE3F0E08081482F09
:1024D00089819A81880F991F880F991FFC01EB5BF6
:1024E000FD4F8081282F30E081E090E0022E02C075
:1024F000880F991F0A94E2F7809584238C93F6C184
:1025000089819A81880F991F880F991FFC01EC5BC4
:10251000FD4F8081813009F09BC089819A81880FAD
:10252000991F0196880F991FFC01EC5BFD4F80817C
:102530008130E9F4A7E3B0E0E7E3F0E08081482FE1
:1025400089819A81880F991F880F991FFC01EB5B85
:10255000FD4F8081282F30E081E090E0022E02C004
:10256000880F991F0A94E2F7842B8C93BFC1A7E3CD
:10257000B0E0E7E3F0E08081482F89819A81880FFD
:10258000991F880F991FFC01EB5BFD4F8081282F5D
:1025900030E081E090E0022E02C0880F991F0A947B
:1025A000E2F7809584238C9389819A81880F991F03
:1025B000880F991FFC01E95BFD4F80818130E9F4B0
:1025C000A8E3B0E0E8E3F0E08081482F89819A81B8
:1025D000880F991F880F991FFC01EB5BFD4F8081CD
:1025E000282F30E081E090E0022E02C0880F991F72
:1025F0000A94E2F7842B8C9379C189819A81880FA0
:10260000991F880F991FFC01E95BFD4F808188238A
:1026100009F06CC1ABE3B0E0EBE3F0E08081482F60
:1026200089819A81880F991F880F991FFC01EB5BA4
:10263000FD4F8081282F30E081E090E0022E02C023
:10264000880F991F0A94E2F7809584238C934EC1DA
:1026500089819A81880F991F880F991FFC01EC5B73
:10266000FD4F8081823009F09BC089819A81880F5B
:10267000991F0196880F991FFC01EC5BFD4F80812B
:102680008130E9F4A4E3B0E0E4E3F0E08081482F96
:1026900089819A81880F991F880F991FFC01EB5B34
:1026A000FD4F8081282F30E081E090E0022E02C0B3
:1026B000880F991F0A94E2F7842B8C9317C1A4E327
:1026C000B0E0E4E3F0E08081482F89819A81880FAF
:1026D000991F880F991FFC01EB5BFD4F8081282F0C
:1026E00030E081E090E0022E02C0880F991F0A942A
:1026F000E2F7809584238C9389819A81880F991FB2
:10270000880F991FFC01E95BFD4F80818130E9F45E
:10271000A5E3B0E0E5E3F0E08081482F89819A816C
:10272000880F991F880F991FFC01EB5BFD4F80817B
:10273000282F30E081E090E0022E02C0880F991F20
:102740000A94E2F7842B8C93D1C089819A81880FF7
:10275000991F880F991FFC01E95BFD4F8081882339
:1027600009F0C4C0ABE3B0E0EBE3F0E08081482FB8
:1027700089819A81880F991F880F991FFC01EB5B53
:10278000FD4F8081282F30E081E090E0022E02C0D2
:10279000880F991F0A94E2F7809584238C93A6C032
:1027A00089819A81880F991F880F991FFC01EC5B22
:1027B000FD4F8081833009F099C089819A81880F0B
:1027C000991F0196880F991FFC01EC5BFD4F8081DA
:1027D0008130E9F4A1E3B0E0E1E3F0E08081482F4B
:1027E00089819A81880F991F880F991FFC01EB5BE3
:1027F000FD4F8081282F30E081E090E0022E02C062
:10280000880F991F0A94E2F7842B8C936FC0A1E381
:10281000B0E0E1E3F0E08081482F89819A81880F60
:10282000991F880F991FFC01EB5BFD4F8081282FBA
:1028300030E081E090E0022E02C0880F991F0A94D8
:10284000E2F7809584238C9389819A81880F991F60
:10285000880F991FFC01E95BFD4F80818130E9F40D
:10286000A2E3B0E0E2E3F0E08081482F89819A8121
:10287000880F991F880F991FFC01EB5BFD4F80812A
:10288000282F30E081E090E0022E02C0880F991FCF
:102890000A94E2F7842B8C9329C089819A81880F4E
:1028A000991F880F991FFC01E95BFD4F80818823E8
:1028B000E9F4ABE3B0E0EBE3F0E08081482F8981FD
:1028C0009A81880F991F880F991FFC01EB5BFD4FC0
:1028D0008081282F30E081E090E0022E02C0880F36
:1028E000991F0A94E2F7809584238C9389819A81B9
:1028F00001969A83898389819A818A3191050CF4A2
:1029000057CD80E00F900F90CF91DF910895DF9326
:10291000CF93CDB7DEB782E060E041E00E94250EA4
:1029200082E065E041E00E94250E82E066E041E041
:102930000E94250E82E067E041E00E94250E82E0C1
:1029400060E040E00E94140F82E065E040E00E94F9
:10295000140F82E066E040E00E94140F82E067E01E
:1029600040E00E94140FCF91DF910895DF93CF9341
:10297000CDB7DEB7EF970FB6F894DEBF0FBECDBF71
:102980008FAF8FAD882F90E0A0E0B0E0072E7BE006
:10299000880F991FAA1FBB1F7A95D1F7702D28E6C3
:1029A00031E040E050E0BC01CD010E948C29DA0109
:1029B000C9019EAF8DAF8DAD9EAD969587959695CD
:1029C00087959CAF8BAF1AAE19AE1AAE19AE1DC269
:1029D00082E060E041E00E94140F82E065E040E0A8
:1029E0000E94140F82E066E040E00E94140F82E033
:1029F00067E040E00E94140F80E090E0A0EAB1E4BC
:102A00008DAB9EABAFABB8AF6DA97EA98FA998ADCA
:102A100020E030E04AE755E40E941F02DC01CB01D0
:102A200089AB9AABABABBCAB69A97AA98BA99CA9C2
:102A300020E030E040E85FE30E94250488232CF486
:102A400081E090E098AB8FA73FC069A97AA98BA9D4
:102A50009CA920E03FEF4FE757E40E94C5031816FA
:102A60004CF56DA97EA98FA998AD20E030E040E239
:102A700051E40E941F02DC01CB01BC01CD010E9488
:102A80004900DC01CB0198AB8FA70FC080E991E032
:102A90009EA78DA78DA59EA50197F1F79EA78DA74F
:102AA0008FA598A9019798AB8FA78FA598A9009794
:102AB00069F714C069A97AA98BA99CA90E94490049
:102AC000DC01CB0198AB8FA78FA598A99CA78BA7FA
:102AD0008BA59CA50197F1F79CA78BA782E060E0EE
:102AE00040E00E94140F82E065E041E00E94140F74
:102AF00082E066E040E00E94140F82E067E040E080
:102B00000E94140F80E090E0A0EAB1E48FA398A7A0
:102B1000A9A7BAA76FA178A589A59AA520E030E05A
:102B20004AE755E40E941F02DC01CB018BA39CA362
:102B3000ADA3BEA36BA17CA18DA19EA120E030E03E
:102B400040E85FE30E94250488232CF481E090E0B4
:102B50009AA389A33FC06BA17CA18DA19EA120E077
:102B60003FEF4FE757E40E94C50318164CF56FA1DD
:102B700078A589A59AA520E030E040E251E40E94C2
:102B80001F02DC01CB01BC01CD010E944900DC0128
:102B9000CB019AA389A30FC080E991E098A38F8FFE
:102BA0008F8D98A10197F1F798A38F8F89A19AA192
:102BB00001979AA389A389A19AA1009769F714C0E4
:102BC0006BA17CA18DA19EA10E944900DC01CB01DB
:102BD0009AA389A389A19AA19E8F8D8F8D8D9E8D99
:102BE0000197F1F79E8F8D8F82E060E040E00E94B8
:102BF000140F82E065E040E00E94140F82E066E07E
:102C000041E00E94140F82E067E040E00E94140F50
:102C100080E090E0A0EAB1E4898F9A8FAB8FBC8FFF
:102C2000698D7A8D8B8D9C8D20E030E04AE755E4EC
:102C30000E941F02DC01CB018D8B9E8BAF8BB88F66
:102C40006D897E898F89988D20E030E040E85FE3D0
:102C50000E94250488232CF481E090E09C8B8B8BD0
:102C60003FC06D897E898F89988D20E03FEF4FE7C7
:102C700057E40E94C50318164CF5698D7A8D8B8D2B
:102C80009C8D20E030E040E251E40E941F02DC0114
:102C9000CB01BC01CD010E944900DC01CB019C8B22
:102CA0008B8B0FC080E991E09A8B898B89899A89F7
:102CB0000197F1F79A8B898B8B899C8901979C8B63
:102CC0008B8B8B899C89009769F714C06D897E89ED
:102CD0008F89988D0E944900DC01CB019C8B8B8BE6
:102CE0008B899C89988B8F878F8598890197F1F7BD
:102CF000988B8F8782E060E040E00E94140F82E0B2
:102D000065E040E00E94140F82E066E040E00E942F
:102D1000140F82E067E041E00E94140F80E090E031
:102D2000A0EAB1E48B879C87AD87BE876B857C85E5
:102D30008D859E8520E030E04AE755E40E941F0221
:102D4000DC01CB018F839887A987BA876F8178854B
:102D500089859A8520E030E040E85FE30E94250401
:102D600088232CF481E090E09E838D833FC06F81A7
:102D7000788589859A8520E03FEF4FE757E40E94E8
:102D8000C50318164CF56B857C858D859E8520E0E6
:102D900030E040E251E40E941F02DC01CB01BC01A3
:102DA000CD010E944900DC01CB019E838D830FC0C1
:102DB00080E991E09C838B838B819C810197F1F763
:102DC0009C838B838D819E8101979E838D838D81D2
:102DD0009E81009769F714C06F81788589859A85EF
:102DE0000E944900DC01CB019E838D838D819E81F1
:102DF0009A83898389819A810197F1F79A838983DC
:102E000089AD9AAD01969AAF89AF29AD3AAD8BAD38
:102E10009CAD2817390708F4DBCDEF960FB6F89470
:102E2000DEBF0FBECDBFCF91DF910895DF93CF936B
:102E3000CDB7DEB781E08093E40283E08093E502C2
:102E400082E08093E6021092E70284EE92E00E9414
:102E5000410ACF91DF910895DF93CF9300D000D046
:102E600000D0CDB7DEB79E838D838D819E81AA274A
:102E700097FDA095BA2FBC01CD010E945504DC013D
:102E8000CB01BC01CD0120E030E044E353E40E94DB
:102E90001903DC01CB01BC01CD0120E030E04AE7A1
:102EA00054E40E941F02DC01CB01BC01CD0120E0F3
:102EB00030E84BEB54E40E94F201DC01CB01BC0191
:102EC000CD010E944900DC01CB019C838B838B8167
:102ED0009C8196958795969587959A838983EAE450
:102EE000F0E089819A81019791838083E6E4F0E0A4
:102EF00087E893E191838083AFE4B0E0EFE4F0E012
:102F0000808180688C930E9416178D819E812FEF9F
:102F1000863A92072CF486EA9FEF9E838D8309C040
:102F20008D819E818B35910524F08AE590E09E830A
:102F30008D8326960FB6F894DEBF0FBECDBFCF911E
:102F4000DF910895DF93CF93CDB7DEB70E944A0B90
:102F5000CF91DF910895DF93CF93CDB7DEB7E097A0
:102F60000FB6F894DEBF0FBECDBF81E060E041E058
:102F70000E94140F80E090E0A0E2B1E48DA79EA72C
:102F8000AFA7B8AB6DA57EA58FA598A92BEA3AEAA5
:102F90004AEA50E40E941F02DC01CB0189A79AA7EC
:102FA000ABA7BCA769A57AA58BA59CA520E030E0BE
:102FB00040E85FE30E94250488231CF481E088A791
:102FC00091C069A57AA58BA59CA520E030E04FE7CC
:102FD00053E40E94C50318160CF07BC06DA57EA5B6
:102FE0008FA598A920E030E04AE754E40E94190335
:102FF000DC01CB018CA39DA3AEA3BFA36CA17DA1DB
:103000008EA19FA120E030E04AE755E40E941F0214
:10301000DC01CB0188A399A3AAA3BBA368A179A1D2
:103020008AA19BA120E030E040E85FE30E942504F4
:1030300088232CF481E090E09F8F8E8F3FC068A1A1
:1030400079A18AA19BA120E03FEF4FE757E40E94BE
:10305000C50318164CF56CA17DA18EA19FA120E09F
:1030600030E040E251E40E941F02DC01CB01BC01D0
:10307000CD010E944900DC01CB019F8F8E8F0FC0D4
:1030800080E991E09D8F8C8F8C8D9D8D0197F1F75C
:103090009D8F8C8F8E8D9F8D01979F8F8E8F8E8DA4
:1030A0009F8D009769F724C068A179A18AA19BA18F
:1030B0000E944900DC01CB019F8F8E8F8E8D9F8DEA
:1030C0009B8F8A8F8A8D9B8D0197F1F79B8F8A8FBB
:1030D0000FC069A57AA58BA59CA50E944900DC01BB
:1030E000CB0188A788A5898F898D8A95F1F7898F6B
:1030F00081E060E040E00E94140F80E090E0AAEFE1
:10310000B4E48D8B9E8BAF8BB88F6D897E898F8950
:10311000988D2BEA3AEA4AEA50E40E941F02DC0149
:10312000CB01898B9A8BAB8BBC8B69897A898B8914
:103130009C8920E030E040E85FE30E94250488237A
:103140001CF481E0888B91C069897A898B899C897C
:1031500020E030E04FE753E40E94C50318160CF05E
:103160007BC06D897E898F89988D20E030E04AE7A9
:1031700054E40E941903DC01CB018C879D87AE8744
:10318000BF876C857D858E859F8520E030E04AE78E
:1031900055E40E941F02DC01CB0188879987AA872A
:1031A000BB87688579858A859B8520E030E040E88B
:1031B0005FE30E94250488232CF481E090E09F8344
:1031C0008E833FC0688579858A859B8520E03FEFA7
:1031D0004FE757E40E94C50318164CF56C857D85B2
:1031E0008E859F8520E030E040E251E40E941F027E
:1031F000DC01CB01BC01CD010E944900DC01CB0107
:103200009F838E830FC080E991E09D838C838C81A6
:103210009D810197F1F79D838C838E819F8101971A
:103220009F838E838E819F81009769F724C0688574
:1032300079858A859B850E944900DC01CB019F83AB
:103240008E838E819F819B838A838A819B81019754
:10325000F1F79B838A830FC069897A898B899C895E
:103260000E944900DC01CB01888B88898983898190
:103270008A95F1F7898380E0E0960FB6F894DEBF77
:103280000FBECDBFCF91DF910895DF93CF93CDB720
:10329000DEB782E00E94E51988E20E94E5198EE01F
:1032A0000E94E51986E00E94E51981E00E94E51977
:1032B00080E0CF91DF910895DF93CF93CDB7DEB754
:1032C0002E970FB6F894DEBF0FBECDBF81E00E94EF
:1032D000E51980E090E0A0E0B0E48B879C87AD87A3
:1032E000BE876B857C858D859E8520E030E04AE732
:1032F00055E40E941F02DC01CB018F839887A987C8
:10330000BA876F81788589859A8520E030E040E82A
:103310005FE30E94250488232CF481E090E09E83E3
:103320008D833FC06F81788589859A8520E03FEF46
:103330004FE757E40E94C50318164CF56B857C8552
:103340008D859E8520E030E040E251E40E941F021E
:10335000DC01CB01BC01CD010E944900DC01CB01A5
:103360009E838D830FC080E991E09C838B838B814A
:103370009C810197F1F79C838B838D819E810197BE
:103380009E838D838D819E81009769F714C06F8124
:10339000788589859A850E944900DC01CB019E834E
:1033A0008D838D819E819A83898389819A810197FA
:1033B000F1F79A83898380E02E960FB6F894DEBFEA
:1033C0000FBECDBFCF91DF910895DF93CF930F92C2
:1033D000CDB7DEB7898381E061E040E00E94140F41
:1033E0008981882334F480E066E041E00E94140F74
:1033F00005C080E066E040E00E94140F898182955C
:10340000869586958370882F90E0817090708823D0
:1034100031F080E065E041E00E94140F05C080E0DB
:1034200065E040E00E94140F89818295869587703F
:10343000882F90E081709070882331F080E064E004
:1034400041E00E94140F05C080E064E040E00E946B
:10345000140F898182958F70882F90E08170907011
:10346000882331F080E063E041E00E94140F05C042
:1034700080E063E040E00E94140F0E94AB17898156
:10348000869586958695882F90E081709070882328
:1034900031F080E066E041E00E94140F05C080E05A
:1034A00066E040E00E94140F898186958695882FFA
:1034B00090E081709070882331F080E065E041E019
:1034C0000E94140F05C080E065E040E00E94140FE8
:1034D00089818695882F90E081709070882331F0E3
:1034E00080E064E041E00E94140F05C080E064E0E9
:1034F00040E00E94140F8981882F90E081709070C5
:10350000882331F080E063E041E00E94140F05C0A1
:1035100080E063E040E00E94140F0E94AB1780E05F
:103520000F90CF91DF910895DF93CF930F92CDB796
:10353000DEB7898381E061E041E00E94140F898158
:10354000882334F480E066E041E00E94140F05C057
:1035500080E066E040E00E94140F898182958695A4
:1035600086958370882F90E081709070882331F069
:1035700080E065E041E00E94140F05C080E065E056
:1035800040E00E94140F8981829586958770882F6C
:1035900090E081709070882331F080E064E041E039
:1035A0000E94140F05C080E064E040E00E94140F08
:1035B000898182958F70882F90E081709070882328
:1035C00031F080E063E041E00E94140F05C080E02C
:1035D00063E040E00E94140F0E94AB17898186953A
:1035E00086958695882F90E081709070882331F0C1
:1035F00080E066E041E00E94140F05C080E066E0D4
:1036000040E00E94140F898186958695882F90E06E
:1036100081709070882331F080E065E041E00E9485
:10362000140F05C080E065E040E00E94140F89811E
:103630008695882F90E081709070882331F080E02B
:1036400064E041E00E94140F05C080E064E040E0C7
:103650000E94140F8981882F90E0817090708823D8
:1036600031F080E063E041E00E94140F05C080E08B
:1036700063E040E00E94140F0E94AB1780E00F90BF
:10368000CF91DF910895DF93CF9300D00F92CDB704
:10369000DEB79B838A8381E061E041E00E94140FE2
:1036A00019820EC08981282F30E08A819B81FC011C
:1036B000E20FF31F80810E94941A89818F5F8983B2
:1036C0008981282F30E08A819B81FC01E20FF31F62
:1036D0008081882339F780E00F900F900F90CF9171
:1036E000DF910895DF93CF9300D000D0CDB7DEB740
:1036F0009A8389836B834C8381E061E041E00E947F
:10370000140F8B816C810E94491E89819A810E94CD
:10371000431B80E00F900F900F900F90CF91DF919F
:103720000895DF93CF93CDB7DEB72E970FB6F894F9
:10373000DEBF0FBECDBF9E878D8781E061E041E097
:103740000E94140F1A8219828D859E85009711F5AB
:1037500080E30E94941A39C08A81E82FF0E08D85B9
:103760009E852AE030E0B9010E947829282F205D4B
:10377000CE010396E80FF91F20838D859E852AE0F0
:1037800030E0B9010E947829CB019E878D878A811C
:103790008F5F8A838D859E850097F1F68A81898364
:1037A00011C08981882F90E09C0121503040CE01CA
:1037B0000396FC01E20FF31F80810E94941A898115
:1037C000815089838981882361F780E02E960FB626
:1037D000F894DEBF0FBECDBFCF91DF910895DF9388
:1037E000CF93CDB7DEB7A3970FB6F894DEBF0FBE69
:1037F000CDBF98A38F8F69A34AA381E061E041E028
:103800000E94140F89A1813009F076C080E80E94DF
:10381000E51980E090E0A0E8BFE3898F9A8FAB8F35
:10382000BC8F698D7A8D8B8D9C8D20E030E04AE7CE
:1038300055E40E941F02DC01CB018D8B9E8BAF8B68
:10384000B88F6D897E898F89988D20E030E040E8BF
:103850005FE30E94250488232CF481E090E09C8B98
:103860008B8B3FC06D897E898F89988D20E03FEFDB
:103870004FE757E40E94C50318164CF5698D7A8D01
:103880008B8D9C8D20E030E040E251E40E941F02CD
:10389000DC01CB01BC01CD010E944900DC01CB0160
:1038A0009C8B8B8B0FC080E991E09A8B898B8989E7
:1038B0009A890197F1F79A8B898B8B899C8901975B
:1038C0009C8B8B8B8B899C89009769F792C06D8943
:1038D0007E898F89988D0E944900DC01CB019C8BE9
:1038E0008B8B8B899C89988B8F878F859889019783
:1038F000F1F7988B8F877DC089A1823009F076C05F
:1039000080EC0E94E51980E090E0A0E2B1E48B87B2
:103910009C87AD87BE876B857C858D859E8520E0E5
:1039200030E04AE755E40E941F02DC01CB018F839F
:103930009887A987BA876F81788589859A8520E0DD
:1039400030E040E85FE30E94250488232CF481E006
:1039500090E09E838D833FC06F81788589859A85AD
:1039600020E03FEF4FE757E40E94C50318164CF5DF
:103970006B857C858D859E8520E030E040E251E4BA
:103980000E941F02DC01CB01BC01CD010E94490055
:10399000DC01CB019E838D830FC080E991E09C8385
:1039A0008B838B819C810197F1F79C838B838D8125
:1039B0009E8101979E838D838D819E81009769F7FB
:1039C00018C06F81788589859A850E944900DC013D
:1039D000CB019E838D838D819E819A83898389818A
:1039E0009A810197F1F79A83898303C081E08BA3C1
:1039F0001AC081E090E09E8F8D8F08C08CE10E94FC
:103A0000E5198D8D9E8D01969E8F8D8F8AA1282F11
:103A100030E08D8D9E8D2817390784F78F8D98A102
:103A20000E94911B1BA28BA1A3960FB6F894DEBF38
:103A30000FBECDBFCF91DF910895DF93CF93CDB768
:103A4000DEB7A2970FB6F894DEBF0FBECDBF8F8F43
:103A500068A349A381E061E041E00E94140F88A1BE
:103A6000813009F076C080E80E94E51980E090E09E
:103A7000A0E8BFE3898F9A8FAB8FBC8F698D7A8D59
:103A80008B8D9C8D20E030E04AE755E40E941F02B8
:103A9000DC01CB018D8B9E8BAF8BB88F6D897E89BE
:103AA0008F89988D20E030E040E85FE30E94250494
:103AB00088232CF481E090E09C8B8B8B3FC06D8938
:103AC0007E898F89988D20E03FEF4FE757E40E9471
:103AD000C50318164CF5698D7A8D8B8D9C8D20E071
:103AE00030E040E251E40E941F02DC01CB01BC0146
:103AF000CD010E944900DC01CB019C8B8B8B0FC058
:103B000080E991E09A8B898B89899A890197F1F7ED
:103B10009A8B898B8B899C8901979C8B8B8B8B894A
:103B20009C89009769F792C06D897E898F89988DED
:103B30000E944900DC01CB019C8B8B8B8B899C897B
:103B4000988B8F878F8598890197F1F7988B8F874E
:103B50007DC088A1823009F076C080EC0E94E51912
:103B600080E090E0A0E2B1E48B879C87AD87BE87C0
:103B70006B857C858D859E8520E030E04AE755E4A5
:103B80000E941F02DC01CB018F839887A987BA8727
:103B90006F81788589859A8520E030E040E85FE391
:103BA0000E94250488232CF481E090E09E838D837D
:103BB0003FC06F81788589859A8520E03FEF4FE788
:103BC00057E40E94C50318164CF56B857C858D85DE
:103BD0009E8520E030E040E251E40E941F02DC01BB
:103BE000CB01BC01CD010E944900DC01CB019E83C9
:103BF0008D830FC080E991E09C838B838B819C81B6
:103C00000197F1F79C838B838D819E8101979E8321
:103C10008D838D819E81009769F718C06F817885AB
:103C200089859A850E944900DC01CB019E838D83A2
:103C30008D819E819A83898389819A810197F1F789
:103C40009A83898303C081E08AA319C081E090E050
:103C50009E8F8D8F08C08CE10E94E5198D8D9E8D01
:103C600001969E8F8D8F89A1282F30E08D8D9E8D9E
:103C70002817390784F78F8D0E94941A1AA28AA1F7
:103C8000A2960FB6F894DEBF0FBECDBFCF91DF91E5
:103C90000895DF93CF9300D000D00F92CDB7DEB759
:103CA00089836A838A8181508A838981282F30E0C1
:103CB0003D832C838C819D818130910531F02C8155
:103CC0003D812230310531F00AC08A8180580E943E
:103CD000E51908C08A8180540E94E51903C031E0CB
:103CE0003B8301C01B828B810F900F900F900F9030
:103CF0000F90CF91DF910895DF93CF9300D00F9273
:103D0000CDB7DEB789836A838981882341F48A81AC
:103D1000803148F58A8180580E94E51924C0898144
:103D2000813041F48A818031F0F48A8180540E948C
:103D3000E51919C08981823041F48A81803198F473
:103D40008A8180570E94E5190EC08981833041F431
:103D50008A81803140F48A8180530E94E51903C032
:103D600081E08B8301C01B828B810F900F900F909D
:103D7000CF91DF910895DF93CF93CDB7DEB76597ED
:103D80000FB6F894DEBF0FBECDBF9C8B8B8BEB893B
:103D9000FC898FEF80831F868B899C89009709F4AB
:103DA000EDC0198AE5C08989882F90E0FC01EA53AB
:103DB000FD4F908181E0692F40E00E94140F188A26
:103DC000C1C08889882F90E0FC01E653FD4F9081A7
:103DD0009E012E5E3F4F83E0692FA9010E940310D0
:103DE0008A89882309F0ABC080E090E0A0EAB1E4C2
:103DF0008B879C87AD87BE876B857C858D859E85EF
:103E000020E030E04AE755E40E941F02DC01CB01CC
:103E10008F839887A987BA876F81788589859A85E6
:103E200020E030E040E85FE30E94250488232CF482
:103E300081E090E09E838D833FC06F817885898586
:103E40009A8520E03FEF4FE757E40E94C50318161C
:103E50004CF56B857C858D859E8520E030E040E2C9
:103E600051E40E941F02DC01CB01BC01CD010E9484
:103E70004900DC01CB019E838D830FC080E991E076
:103E80009C838B838B819C810197F1F79C838B832F
:103E90008D819E8101979E838D838D819E81009768
:103EA00069F714C06F81788589859A850E944900D9
:103EB000DC01CB019E838D838D819E819A838983D2
:103EC00089819A810197F1F79A8389838889882F5C
:103ED00090E0FC01E653FD4F90819E012E5E3F4F26
:103EE00083E0692FA9010E9403100FC08889882FE1
:103EF00090E0FC01E653FD4F90819E012E5E3F4F06
:103F000083E0692FA9010E9403108A89882371F335
:103F10008989482F50E08889282F30E0CA01880F0E
:103F2000991F880F991F820F931FFC01EA54FD4FC0
:103F30008081EB89FC89808381E08F8707C0888935
:103F40008F5F888B8889843008F43BCF8989882FDC
:103F500090E0FC01EA53FD4F908181E0692F41E040
:103F60000E94140F8F85813039F089898F5F898B8A
:103F70008989843008F417CF1D8A02C081E08D8BB7
:103F80008D8965960FB6F894DEBF0FBECDBFCF9179
:103F9000DF910895DF93CF9300D0CDB7DEB789834B
:103FA0008981882359F482E061E041E00E94250E76
:103FB00082E062E041E00E94250E11C089818130DB
:103FC00059F482E063E041E00E94250E82E064E063
:103FD00041E00E94250E03C081E08A8301C01A825D
:103FE0008A810F900F90CF91DF910895DF93CF9347
:103FF00000D0CDB7DEB789838981882359F482E068
:1040000061E040E00E94140F82E062E040E00E9424
:10401000140F11C08981813059F482E063E040E0DF
:104020000E94140F82E064E040E00E94140F03C07D
:1040300081E08A8301C01A828A810F900F90CF910C
:10404000DF910895DF93CF9300D000D00F92CDB7CA
:10405000DEB789836A838A81282F30E03D832C83F1
:104060008C819D81009731F02C813D81213031057B
:10407000E9F038C08981882359F482E061E041E0A9
:104080000E94140F82E062E040E00E94140F2DC0F5
:104090008981813051F582E063E041E00E94140F94
:1040A00082E064E040E00E94140F1FC089818823F1
:1040B00059F482E061E040E00E94140F82E062E087
:1040C00041E00E94140F11C08981813071F482E0B7
:1040D00063E040E00E94140F82E064E041E00E944F
:1040E000140F03C031E03B8301C01B828B810F9012
:1040F0000F900F900F900F90CF91DF910895DF9365
:10410000CF93CDB7DEB72C970FB6F894DEBF0FBEB6
:10411000CDBF8E836F83CE01019699878887EEECA1
:10412000F2E0FB87EA87F5E0FC87EA85FB85008003
:104130008A859B8501969B878A87E885F985008219
:10414000888599850196998788879C8591509C8759
:10415000EC85EE2351F7CE0101960E9475078E8102
:10416000882F90E0009779F48F81882F90E0A0E06D
:10417000B0E0BC01CD010E940705DC01CB01BC0110
:10418000CD010E94C80880E02C960FB6F894DEBFDF
:104190000FBECDBFCF91DF910895DF93CF93CDB701
:1041A000DEB781E080931A03CF91DF9108950F93DA
:1041B0001F93DF93CF93CDB7DEB7CB58D0400FB668
:1041C000F894DEBF0FBECDBF0E94CE110E944519EC
:1041D0000E948714789480E00E94CA1FFE01ED5768
:1041E000FF4F1082FE01EE57FF4F1082FE01E05894
:1041F000FF4F11821082FE01E158FF4F108282E0D2
:1042000063E00E94840C82E00E94160C2DEC30E2E8
:1042100082E0B9010E94DD0B10921A0380E690E063
:104220000E94431B81E065E00E947C1E80911A037E
:10423000282F30E0C657DF4F39832883CA58D04033
:10424000C657DF4F48815981CA58D0404330510585
:1042500009F4E5C3C657DF4F88819981CA58D04019
:1042600084309105F4F4C657DF4FE881F981CA58CC
:10427000D040E130F10509F4ECC0C657DF4F28818A
:104280003981CA58D040223031050CF0BFC2C65720
:10429000DF4F48815981CA58D0404115510501F17D
:1042A000C5CFC657DF4F88819981CA58D040853025
:1042B000910509F46BC6C657DF4FE881F981CA58EA
:1042C000D040E530F1050CF4E7C5C657DF4F288133
:1042D0003981CA58D0402630310509F464C7A6CFC9
:1042E00083E067E00E945911FE01E558FF4F80E02E
:1042F00090E0AAEFB3E480839183A283B3838E011D
:1043000009581F4FFE01E558FF4F6081718182817E
:10431000938120E030E04AE755E40E941F02DC016F
:10432000CB01F80180839183A283B383FE01E95816
:10433000FF4F608171818281938120E030E040E80D
:104340005FE30E942504882344F4FE01EB58FF4FED
:1043500081E090E09183808364C0FE01E958FF4FC3
:10436000608171818281938120E03FEF4FE757E4C4
:104370000E94C50318160CF043C0FE01E558FF4F1C
:10438000608171818281938120E030E040E251E4DC
:104390000E941F02DC01CB018E010B581F4FBC0194
:1043A000CD010E944900DC01CB01F801918380839B
:1043B0001FC0FE01ED58FF4F80E991E0918380839B
:1043C000FE01ED58FF4F808191810197F1F7FE01C9
:1043D000ED58FF4F91838083DE01AB58BF4FFE0144
:1043E000EB58FF4F80819181019711969C938E939A
:1043F000FE01EB58FF4F808191810097D1F616CFD7
:104400008E010B581F4FFE01E958FF4F60817181EB
:10441000828193810E944900DC01CB01F8019183E4
:104420008083DE01AF58BF4FFE01EB58FF4F808104
:10443000918111969C938E93FE01EF58FF4F8081DE
:1044400091810197F1F7FE01EF58FF4F918380832F
:10445000EDCECE018C579F4F0E94BB1EFE01EC5744
:10446000FF4F80818F3F09F4E1CE8AE20E94941AC7
:104470008091F502882F90E0FE01EC57FF4F2081DC
:10448000FC01E051FD4F20838091F5028F5F809306
:10449000F5028091F502843008F4C8CE80EF92E0F6
:1044A0002CEA32E0B9010E94EC29009709F0C6C05D
:1044B0000E945C1981E790E00E94431B81E060E06C
:1044C0000E947C1E82E890E00E94431BFE01E3599B
:1044D000FF4F80E090E0AAEFB4E480839183A28351
:1044E000B3838E0107591F4FFE01E359FF4F6081CF
:1044F00071818281938120E030E04AE755E40E9497
:104500001F02DC01CB01F80180839183A283B38376
:10451000FE01E759FF4F608171818281938120E024
:1045200030E040E85FE30E942504882344F4FE0164
:10453000E959FF4F81E090E09183808364C0FE01E0
:10454000E759FF4F608171818281938120E03FEFC5
:104550004FE757E40E94C50318160CF043C0FE0154
:10456000E359FF4F608171818281938120E030E0C7
:1045700040E251E40E941F02DC01CB018E01095987
:104580001F4FBC01CD010E944900DC01CB01F801A5
:10459000918380831FC0FE01EB59FF4F80E991E0BA
:1045A00091838083FE01EB59FF4F808191810197B8
:1045B000F1F7FE01EB59FF4F91838083DE01A9598A
:1045C000BF4FFE01E959FF4F8081918101971196FC
:1045D0009C938E93FE01E959FF4F80819181009752
:1045E000D1F628C08E0109591F4FFE01E759FF4F30
:1045F00060817181828193810E944900DC01CB013D
:10460000F80191838083DE01AD59BF4FFE01E95966
:10461000FF4F8081918111969C938E93FE01ED59FD
:10462000FF4F808191810197F1F7FE01ED59FF4F16
:104630009183808382E080931A03F8CD0E945C19F5
:104640008DE890E00E94431B80EF92E060E070E014
:1046500045E050E00E94E5291092F502FE01E15A82
:10466000FF4F80E090E8ABEBB4E480839183A283BA
:10467000B3838E01055A1F4FFE01E15AFF4F60813F
:1046800071818281938120E030E04AE755E40E9405
:104690001F02DC01CB01F80180839183A283B383E5
:1046A000FE01E55AFF4F608171818281938120E094
:1046B00030E040E85FE30E942504882344F4FE01D3
:1046C000E75AFF4F81E090E09183808364C0FE0150
:1046D000E55AFF4F608171818281938120E03FEF35
:1046E0004FE757E40E94C50318160CF043C0FE01C3
:1046F000E15AFF4F608171818281938120E030E037
:1047000040E251E40E941F02DC01CB018E01075AF6
:104710001F4FBC01CD010E944900DC01CB01F80113
:10472000918380831FC0FE01E95AFF4F80E991E029
:1047300091838083FE01E95AFF4F80819181019727
:10474000F1F7FE01E95AFF4F91838083DE01A75AFA
:10475000BF4FFE01E75AFF4F80819181019711966B
:104760009C938E93FE01E75AFF4F808191810097C1
:10477000D1F627C08E01075A1F4FFE01E55AFF4FA1
:1047800060817181828193810E944900DC01CB01AB
:10479000F80191838083DE01AB5ABF4FFE01E75AD7
:1047A000FF4F808191818D939C93FE01EB5AFF4FC7
:1047B000808191810197F1F7FE01EB5AFF4F9183C0
:1047C0008083DE01AD57BF4FFE01ED57FF4F808163
:1047D0008F5F8C930E945C198CE990E00E94431BD0
:1047E00081E065E00E947C1EFE01ED57FF4F808155
:1047F000833009F01BCD0E945C1986EA90E00E948C
:10480000431BFE01ED57FF4F108210CD809108032E
:104810008823C9F40E945C1982EB90E00E94431B3C
:1048200081E060E00E947C1E8EEB90E00E94431BC2
:1048300082E060E00E947C1E89EC90E00E94431BB5
:1048400081E080930803CE018B579F4F0E94BB1ECF
:10485000FE01EB57FF4F80818F3F09F4E7CCFE014B
:10486000EB57FF4F8081813331F41092080383E0CE
:1048700080931A03DBCCFE01EB57FF4F808182331C
:1048800021F484E080931A03D1CCFE01EB57FF4F53
:104890008081833321F485E080931A03C7CC0E9482
:1048A0005C1988ED90E00E94431BFE01EF5AFF4F18
:1048B00080E090E0AAEFB4E480839183A283B38385
:1048C0008E01035B1F4FFE01EF5AFF4F6081718124
:1048D0008281938120E030E04AE755E40E941F0284
:1048E000DC01CB01F80180839183A283B383FE01B5
:1048F000E35BFF4F608171818281938120E030E032
:1049000040E85FE30E942504882344F4FE01E55B50
:10491000FF4F81E090E09183808364C0FE01E35B00
:10492000FF4F608171818281938120E03FEF4FE7EB
:1049300057E40E94C50318160CF043C0FE01EF5A5D
:10494000FF4F608171818281938120E030E040E2FD
:1049500051E40E941F02DC01CB018E01055B1F4F59
:10496000BC01CD010E944900DC01CB01F80191831B
:1049700080831FC0FE01E75BFF4F80E991E09183D8
:104980008083FE01E75BFF4F808191810197F1F702
:10499000FE01E75BFF4F91838083DE01A55BBF4F84
:1049A000FE01E55BFF4F80819181019711969C93F9
:1049B0008E93FE01E55BFF4F808191810097D1F6D8
:1049C00028C08E01055B1F4FFE01E35BFF4F608136
:1049D0007181828193810E944900DC01CB01F80141
:1049E00091838083DE01A95BBF4FFE01E55BFF4F32
:1049F0008081918111969C938E93FE01E95BFF4F1C
:104A0000808191810197F1F7FE01E95BFF4F91836E
:104A100080831092080382E080931A0307CCFE0182
:104A2000E158FF4F8081882309F060C080910B031B
:104A3000882349F40E945C1987EE90E00E94431B92
:104A400081E080930B03CE0187579F4F0E94BB1ECE
:104A5000FE01E757FF4F80818F3F09F4E7CB81E0EC
:104A600060E00E947C1EFE01E757FF4F80810E949C
:104A7000941A80910603282F30E0FE01E757FF4F7C
:104A800080818053F901EE5FFC4F808380910603A3
:104A90008F5F8093060380910603823008F4C6CBB3
:104AA00080910203882F90E09C01220F331FC901DF
:104AB000880F991F880F991F820F931F982F80913D
:104AC0000303890F8093070382E093E060E070E0C6
:104AD00045E050E00E94E5291092060310920B0376
:104AE000FE01E158FF4F81E08083A0CB8091090354
:104AF000882389F40E945C1985EF90E00E94431B93
:104B000081E060E00E947C1E82E091E00E94431BF5
:104B100081E080930903CE018A579F4F0E94BB1EFC
:104B2000FE01EA57FF4F80818F3F09F4B2C1FE01B9
:104B3000EA57FF4F8081813309F09CC090910703B1
:104B400080E0692F0E947F2080E060E00E942220A8
:104B5000FE01ED5BFF4F80E090E8ABE3B5E48083BE
:104B60009183A283B3838E01015C1F4FFE01ED5B35
:104B7000FF4F608171818281938120E030E04AE7BC
:104B800055E40E941F02DC01CB01F8018083918370
:104B9000A283B383FE01FF9660817181828193813C
:104BA00020E030E040E85FE30E94250488232CF4F5
:104BB00081E090E09EAF8DAF46C0FE01FF96608120
:104BC00071818281938120E03FEF4FE757E40E949B
:104BD000C503181664F5FE01ED5BFF4F608171811E
:104BE0008281938120E030E040E251E40E941F0284
:104BF000DC01CB01BC01CD010E944900DC01CB01ED
:104C00009EAF8DAF0FC080E991E09CAF8BAF8BADB5
:104C10009CAD0197F1F79CAF8BAF8DAD9EAD019729
:104C20009EAF8DAF8DAD9EAD009769F716C0FE01AA
:104C3000FF9660817181828193810E944900DC012D
:104C4000CB019EAF8DAF8DAD9EAD9AAF89AF89ADD3
:104C50009AAD0197F1F79AAF89AF80E00E94F61FF5
:104C600010920903FE01E158FF4F108282E0809309
:104C70001A030FC1FE01EA57FF4F8081823309F00A
:104C800089C09091070380E0692F0E947F2080E017
:104C900061E00E94222080E090E8ABE3B5E48DABB8
:104CA0009EABAFABB8AF6DA97EA98FA998AD20E040
:104CB00030E04AE755E40E941F02DC01CB0189ABDA
:104CC0009AABABABBCAB69A97AA98BA99CA920E034
:104CD00030E040E85FE30E94250488232CF481E063
:104CE00090E098AB8FA73FC069A97AA98BA99CA92E
:104CF00020E03FEF4FE757E40E94C50318164CF53C
:104D00006DA97EA98FA998AD20E030E040E251E482
:104D10000E941F02DC01CB01BC01CD010E944900B1
:104D2000DC01CB0198AB8FA70FC080E991E09EA773
:104D30008DA78DA59EA50197F1F79EA78DA78FA59D
:104D400098A9019798AB8FA78FA598A9009769F7A5
:104D500014C069A97AA98BA99CA90E944900DC0109
:104D6000CB0198AB8FA78FA598A99CA78BA78BA5E4
:104D70009CA50197F1F79CA78BA780E00E94F61FE6
:104D800010920903FE01E158FF4F108282E08093E8
:104D90001A037FC00E945C1988ED90E00E94431BBB
:104DA00080E090E0AAEFB4E48FA398A7A9A7BAA7E0
:104DB0006FA178A589A59AA520E030E04AE755E4DF
:104DC0000E941F02DC01CB018BA39CA3ADA3BEA359
:104DD0006BA17CA18DA19EA120E030E040E85FE3C3
:104DE0000E94250488232CF481E090E09AA389A3F3
:104DF0003FC06BA17CA18DA19EA120E03FEF4FE7BA
:104E000057E40E94C50318164CF56FA178A589A533
:104E10009AA520E030E040E251E40E941F02DC014C
:104E2000CB01BC01CD010E944900DC01CB019AA35A
:104E300089A30FC080E991E098A38F8F8F8D98A1EF
:104E40000197F1F798A38F8F89A19AA101979AA34F
:104E500089A389A19AA1009769F714C06BA17CA1CD
:104E60008DA19EA10E944900DC01CB019AA389A3D8
:104E700089A19AA19E8F8D8F8D8D9E8D0197F1F7BF
:104E80009E8F8D8FFE01E158FF4F108283E080934B
:104E90001A030E944F08CAC980910A03882349F463
:104EA0000E945C1980E191E00E94431B81E08093A5
:104EB0000A03CE0189579F4F0E94BB1EFE01E9578E
:104EC000FF4F80818F3F09F4B1C99091FB0281E0CF
:104ED000692F0E947C1EFE01E957FF4F80810E94CE
:104EE000941A8091FB02282F30E0FE01E957FF4F12
:104EF00080818053F901EA50FD4F80838091FB024D
:104F00008F5F8093FB028091FB02833008F48EC98F
:104F10008091F602282F30E084E690E0AC01249FD7
:104F2000C001259F900D349F900D1124482F809132
:104F3000F702882F90E09C01220F331FC901880FD0
:104F4000991F880F991F820F931F942F980F80919C
:104F5000F802FE01EE57FF4F890F8083FE01EE57E6
:104F6000FF4F80810E94B61486EF92E060E070E00F
:104F700045E050E00E94E5291092FB0210920A03DE
:104F80001092080382E080931A0350C980910C03A9
:104F9000882349F40E945C198EE191E00E94431B32
:104FA00081E080930C03CE0188579F4F0E94BB1E67
:104FB000FE01E857FF4F80818F3F09F437C9909178
:104FC000010381E0692F0E947C1EFE01E857FF4F1C
:104FD00080810E94941A80910103882331F4FE019C
:104FE000E857FF4F80818093EF0280910103282FC3
:104FF00030E0FE01E857FF4F80818053F901E45013
:10500000FD4F8083809101038F5F80930103809126
:105010000103833008F40AC98091EF028B32D1F486
:105020008091FD02882F90E09C01220F331FC9015F
:10503000880F991F880F991F280F391F8091FE0232
:10504000882F90E0FE01E058FF4F820F931F91835D
:1050500080831CC08091FD02882F90E09C01220F6C
:10506000331FC901880F991F880F991F820F931F43
:10507000909581959F4F2091FE02222F30E0FE01F6
:10508000E058FF4F821B930B91838083FE01E05811
:10509000FF4F808191810E942C178CEF92E060E09D
:1050A00070E045E050E00E94E5291092010380E0A5
:1050B00090E0AAE7B4E4898F9A8FAB8FBC8F698D9B
:1050C0007A8D8B8D9C8D20E030E04AE755E40E947C
:1050D0001F02DC01CB018D8B9E8BAF8BB88F6D894E
:1050E0007E898F89988D20E030E040E85FE30E9460
:1050F000250488232CF481E090E09C8B8B8B3FC0AF
:105100006D897E898F89988D20E03FEF4FE757E4C6
:105110000E94C50318164CF5698D7A8D8B8D9C8D78
:1051200020E030E040E251E40E941F02DC01CB01AC
:10513000BC01CD010E944900DC01CB019C8B8B8B13
:105140000FC080E991E09A8B898B89899A890197B0
:10515000F1F79A8B898B8B899C8901979C8B8B8B20
:105160008B899C89009769F714C06D897E898F8926
:10517000988D0E944900DC01CB019C8B8B8B8B8925
:105180009C89988B8F878F8598890197F1F7988BE9
:105190008F870E94A21710920C031092080382E0DE
:1051A00080931A0343C80E945C198DE291E00E942B
:1051B000431B80E090E0AAE7B4E48B879C87AD872F
:1051C000BE876B857C858D859E8520E030E04AE733
:1051D00055E40E941F02DC01CB018F839887A987C9
:1051E000BA876F81788589859A8520E030E040E82C
:1051F0005FE30E94250488232CF481E090E09E83E5
:105200008D833FC06F81788589859A8520E03FEF47
:105210004FE757E40E94C50318164CF56B857C8553
:105220008D859E8520E030E040E251E40E941F021F
:10523000DC01CB01BC01CD010E944900DC01CB01A6
:105240009E838D830FC080E991E09C838B838B814B
:105250009C810197F1F79C838B838D819E810197BF
:105260009E838D838D819E81009769F714C06F8125
:10527000788589859A850E944900DC01CB019E834F
:105280008D838D819E819A83898389819A810197FB
:10529000F1F79A83898380E090E0C557DF4F0FB61E
:1052A000F894DEBF0FBECDBFCF91DF911F910F915C
:1052B0000895629FD001739FF001829FE00DF11D60
:1052C000649FE00DF11D929FF00D839FF00D749F80
:1052D000F00D659FF00D9927729FB00DE11DF91F2C
:1052E000639FB00DE11DF91FBD01CF011124089589
:1052F000AA1BBB1B51E107C0AA1FBB1FA617B707FC
:1053000010F0A61BB70B881F991F5A95A9F7809517
:105310009095BC01CD010895A1E21A2EAA1BBB1BDA
:10532000FD010DC0AA1FBB1FEE1FFF1FA217B30771
:10533000E407F50720F0A21BB30BE40BF50B661F87
:10534000771F881F991F1A9469F76095709580954B
:1053500090959B01AC01BD01CF0108952F923F9222
:105360004F925F926F927F928F929F92AF92BF9275
:10537000CF92DF92EF92FF920F931F93CF93DF9321
:10538000CDB7DEB7CA1BDB0B0FB6F894DEBF0FBE7E
:10539000CDBF09942A88398848885F846E847D84CB
:1053A0008C849B84AA84B984C884DF80EE80FD80CD
:1053B0000C811B81AA81B981CE0FD11D0FB6F89443
:1053C000DEBF0FBECDBFED010895DC0101C06D93BE
:1053D00041505040E0F70895FB01DC018D910190B0
:0E53E00080190110D9F3990B0895F894FFCFAE
:1053EE00456E7465722050617373776F72642021FD
:1053FE000057656C636F6D6520746F204D6F746F11
:10540E0072004461736820626F6172640057726F3C
:10541E006E672050617373776F72640054727920D7
:10542E00616761696E00426C6F636B656420212158
:10543E002100312D204443204D6F746F7200322DA8
:10544E00205374657070657200332D20536572762B
:10545E006F204D6F746F7200496E76616C696420B7
:10546E004F7074696F6E00537065656428302D3906
:10547E0039293A2000312D20526F74617465204312
:10548E005700322D20526F746174652043435700CC
:10549E00416E676C65283364696729203A00536949
:1054AE00676E656420616E676C65203A00457869A9
:1054BE00742053797374656D203A29000000000042
:1054CE0000000000000102020303030304040404AD
:1054DE000404040405050505050505050505050572
:1054EE000505050506060606060606060606060652
:1054FE00060606060606060606060606060606063E
:10550E000606060607070707070707070707070721
:10551E00070707070707070707070707070707070D
:10552E0007070707070707070707070707070707FD
:10553E0007070707070707070707070707070707ED
:10554E0007070707080808080808080808080808D1
:10555E0008080808080808080808080808080808BD
:10556E0008080808080808080808080808080808AD
:10557E00080808080808080808080808080808089D
:10558E00080808080808080808080808080808088D
:10559E00080808080808080808080808080808087D
:1055AE00080808080808080808080808080808086D
:1055BE00080808080808080808080808080808085D
:1055CE0008080808000001000001010000020100A7
:1055DE0000030100000401000005010000060100A7
:1055EE00000701000200010001020000010001009D
:1055FE000101010001030100010401000105010088
:10560E00010601000107010003020001030300016E
:10561E000304000103060001010001000204010061
:10562E00030701000305010000000000313233348E
:10563E000000050001003738392F3435362A313253
:10564E00332D43303D2B04050607020304060103E8
:04565E000200000046
:00000001FF
